:020000040800F2
:1000000000040020B9030008BB030008BB0300087C
:10001000BB030008BB030008BB030008BB030008C8
:10002000BB030008BB030008BB030008214800080D
:10003000BB030008BB030008BB030008BB030008A8
:10004000BB030008BB030008BB030008BB03000898
:10005000BB030008BB030008BB030008BB03000888
:10006000BB030008BB030008BB030008E13B00081A
:10007000513C0008C13C0008313D0008A13D00088A
:10008000113E0008813E0008BB030008BB030008C6
:10009000BB030008BB030008BB030008BB03000848
:1000A000BB030008BB030008BB030008BB03000838
:1000B00081360008BB030008BB030008BB0300082F
:1000C000BB030008BB030008BB030008E1420008B3
:1000D000BB030008BB030008BB030008C1350008D0
:1000E000BB030008BB030008BB030008BB030008F8
:1000F000BB030008BB030008BB030008F13E000877
:10010000BB030008BB030008BB030008BB030008D7
:10011000BB03000821360008C1370008BB030008F4
:10012000613F0008D13F000841400008B14000088D
:1001300021410008BB030008BB030008BB03000803
:10014000BB030008BB030008BB030008BB03000897
:10015000914100080142000871420008BB030008F9
:10016000BB030008BB030008BB030008BB03000877
:10017000BB030008BB030008BB030008BB03000867
:10018000BB030008BB030008BB030008BB03000857
:10019000BB030008BB03000831430008BB03000891
:1001A000BB030008BB030008BB030008BB03000837
:1001B000BB030008BB030008BB030008BB03000827
:1001C000BB030008BB030008BB030008BB03000817
:1001D000BB030008BB030008BB030008BB03000807
:1001E000BB030008BB030008BB030008BB030008F7
:1001F000BB030008BB030008BB030008BB030008E7
:10020000BB030008BB030008BB030008BB030008D6
:10021000BB030008BB030008BB030008BB030008C6
:10022000BB030008BB030008BB030008BB030008B6
:10023000BB030008BB030008BB030008BB030008A6
:10024000BB03000861380008D138000841390008B4
:10025000B1390008213A0008913A0008013B000832
:10026000713B0008BB030008BB030008BB03000888
:10027000BB030008BB030008BB030008BB03000866
:10028000BB030008BB030008BB030008BB03000856
:10029000BB030008BB030008BB030008BB03000846
:1002A000BB030008BB030008BB030008BB03000836
:1002B000BB030008BB030008BB030008BB03000826
:1002C000BB030008BB030008BB030008BB03000816
:1002D000BB030008BB030008BB030008BB03000806
:1002E00072B6264880F30888254880F30988254897
:1002F00025490860022080F31488BFF36F8F03F054
:10030000B7F804F03DF84FF0553020491B4A9142B0
:100310003CBF41F8040BFAE71D49194A91423CBF22
:1003200041F8040BFAE71B491B4A1C4B9A423EBF9B
:1003300051F8040B42F8040BF8E700201849194A59
:1003400091423CBF41F8040BFAE703F0E1F803F0F7
:10035000CFF8154C154DAC4203DA54F8041B88470E
:10036000F9E704F06DFA124C124DAC4203DA54F87E
:10037000041B8847F9E703F0C3B80000000400201D
:10038000000800200000000808ED00E00000002048
:1003900000040020545B000800000024000000243A
:1003A00000000024A8060024E0020008E002000883
:1003B000E0020008E002000892E700F000F8FEE723
:1003C0002DE9F04FC1F80CD0D0F80CD0BDE8F08F7B
:1003D000002383F311882846A047002004F0E0F9A9
:1003E000FEE704F0ADF900DFFEE700001A4A20F056
:1003F000004393421AD900B5B3F1FF4F83B005D340
:10040000014600F0BBFF03B05DF804FB694600F055
:100410009BF800F003000128019912D0022809D0AE
:1004200098B90098012200F019F8ECE700210022A9
:1004300000F014B80098012200F010F800F100401C
:10044000E1E7009800F0DAFDDDE7009800F0D6FD66
:1004500000F10040D7E700BFD80F493F2DE9F8432E
:1004600020F00043B3F1485F04460E46904603D2A5
:1004700001F004F9002858D02146204600F0C6FEBD
:1004800005460146204600F0C1FE2949814628461E
:1004900000F0BCFE274900F071FF294600F0B6FECF
:1004A000254900F06DFF294600F0B0FE234900F019
:1004B00065FF294600F0AAFE214900F061FF0746CA
:1004C000B8F1000F22D04FF07C51304600F09EFE74
:1004D00039468046484600F099FE0146404600F005
:1004E0004DFF294600F092FE314600F047FF1549C6
:1004F0000546484600F08AFE0146284600F040FFC7
:100500000146204600F03AFFBDE8F8830146284640
:1005100000F07CFE0B4900F031FF494600F076FE0A
:10052000214600F02DFFBDE8F8832046BDE8F883A2
:10053000D3C92E2F342FD7321BEF3836010D503947
:100540008988083CABAA2A3E2DE9F04FA64A20F044
:100550000045954289B00C466FD9A44A954206469B
:100560001FD820F000450028A14925F00F0540F3D1
:10057000148100F003FF9F4B9D42064668D09E49C0
:1005800000F0FCFE01460546304600F0F7FE9A49B1
:1005900000F0F4FE256060600127384609B0BDE830
:1005A000F08F964A954263D9B5F1FF4F4AD2EF15C5
:1005B000863FA5EBC755284601F060F800F094FF90
:1005C00001462846059100F0D9FE4FF0874100F022
:1005D0001DFE804601F052F800F086FF05462946D0
:1005E0004046069500F0CAFE4FF0874100F00EFE2F
:1005F0000021079001F010F8002800F0CA800021C7
:10060000284601F009F8002814BF012302237C4A80
:1006100001920222009221463A4605A800F002F912
:10062000002E0746B9DAD4E9002302F1004203F1B3
:100630000043226063604742AFE7002220604A60C7
:100640000027AAE7014600F099FE60602060F7E706
:100650006C4900F093FE6C49064600F08FFE01469F
:100660000546304600F08AFE674900F087FE91E7B4
:1006700000F0D4F86549804600F0C8FD4FF07C5189
:1006800000F07EFE00F0FAFF074600F02DFF58490B
:10069000834600F0BBFD0146404600F06FFE564920
:1006A0008246584600F0B2FD1F2F81460146504653
:1006B00022DC574B7A1E53F8222026F0004323F009
:1006C000FF03934218D000F059FE80464146C4F81B
:1006D0000080504600F052FE494600F04FFE002ECA
:1006E0006060BFF65AAF08F1004800F10040C4F85E
:1006F000008060607F4250E700F040FEC0F3C753C7
:10070000C3EBD553EA15082B80460392DEDD3D4945
:10071000584600F07BFD80460146504600F02EFE14
:1007200005462946504600F029FE414600F026FEC7
:1007300035498046584600F069FD414600F01EFEEE
:1007400001468146284600F019FE039AC0F3C753BC
:10075000D21A192A80461EDD2E49584600F056FD51
:1007600001468046284600F009FE8246514628464A
:1007700000F004FE414600F001FE274905465846B8
:1007800000F044FD294600F0F9FD8146014650463F
:1007900099E703233BE7AA4698E700F0F1FD154BE4
:1007A0009D4206460FD0144900F0EAFD0146054679
:1007B000304600F0E3FD104900F0E2FD2560606086
:1007C0004FF0FF37E9E60F4900F0DAFD0E49064623
:1007D00000F0D6FD01460546304600F0CFFD0A493F
:1007E00000F0CEFDEAE700BFD80F493FE3CB16404B
:1007F000800FC93FD00FC93F43443537800F49436D
:100800004C5300080044353708A3852E84F9223F55
:10081000CC52000800A3852E32318D2420F00040F8
:10082000704700BF2DE9F04FDDB09E469346C14BA7
:10083000669A099153F822A01BF1040F0EF1FF33C1
:1008400080460193C0F2B382BBF1030348BF0BF1B2
:100850000403DB1006930133DB000A930A9B069A1C
:10086000ABEB030303930EF1FF331AEB0307A2EB89
:1008700003051ED401372F4420AE3B46DDF89C9182
:10088000CDF800E0374600241E4608E059F8250060
:1008900000F02AFE0135B54247F8040B07D0002DC1
:1008A000F4DA01352046B54247F8040BF7D1DDF8FC
:1008B00000E0A8F10403BAF1000F0293B8BF4FEAB9
:1008C0008E0837DBDDF80490CDF810A020AA4FEA9F
:1008D0008E080AEB0E0102EB8E0248AECDE907E866
:1008E000CDF814B0009103EB8E059246CB46B0468E
:1008F000B9F1000FB8BF00240FDB029E5746002459
:1009000057F8041D56F8040F00F080FC01462046FD
:1009100000F036FDAE420446F2D1009B48F8044B8D
:100920000BF1010B9B450AF1040AE1D1DDE904ABAF
:10093000DDE907E8029BCDF810A003EB08050CAB3E
:1009400003EB8A03043B07930CAB03EB8A03D1460A
:10095000CDF82CB09A46CDF820E05CAB03EB8903D0
:10096000B9F1000F53F850BC4FEA8903009322DD20
:100970000DF5907808EB03060CAF4FF06E5158461A
:1009800000F044FC00F07AFE00F0AEFD4FF087412D
:10099000044600F03BFC0146584600F0EFFC00F036
:1009A0006DFE56F8041D47F8040B204600F0E8FCE5
:1009B00046458346E1D1039E5846314600F0C6FACB
:1009C0004FF07851044600F021FC00F0DBFB4FF0C3
:1009D000824100F01BFC0146204600F0CFFC04469B
:1009E00000F04CFE074600F07FFD0146204600F077
:1009F000C5FC002E804640F3828009F1FF3C0CAA22
:100A0000C6F1080352F82C10C6F1070041FA03F6AC
:100A100006FA03F3C91A41FA00F40CAB002C43F8B0
:100A20002C10374400F312810021404600F0F4FD01
:100A3000002800F0BA80049B99450CDD009B303300
:100A40006B44002153F8042D534541EA0201F9D1CA
:100A5000002940F01681049B0CAA013B52F8233078
:100A6000002B40F00A810799012351F8042D01332E
:100A7000002AFAD04B4409F101060699089ACDF8EC
:100A800014A001EB060808F18048679908F1FF38C7
:100A90004A4401EB8808DDF80090009320A901EB9F
:100AA000820748AA914458F8040F00F01DFD019BED
:100AB00047F8040B002B1ADBDDF808A0BB46002426
:100AC0005BF8041D5AF8040F00F0A0FB0146204615
:100AD00000F056FCAA450446F2D1009B49F8044FA9
:100AE0000136B342DFDADDF814A0994635E7009B02
:100AF00001360024B34249F8044FD4DAF3E740F05A
:100B00008D8009F1FF330CAA52F82340E411002C28
:100B10008ADDB9F1000F07F1010740F3EF810CAB5B
:100B2000002153F8046B002E74D0C6F5807643F88C
:100B3000046C06E0645600081A68C2F1FF0243F82C
:100B4000042B01318945F7DC0126039B002B0FDDC7
:100B5000039B012B00F08680022B09D109F1FF31A4
:100B60000CAB0CAA53F8213003F03F0342F82130BC
:100B7000022C7FF459AF41464FF07E5000F0FEFB4F
:100B80008046002E3FF450AF03994FF07E5000F0A6
:100B9000DDF90146404600F0F1FB80460021404669
:100BA00000F03AFD00287FF446AFDDE90A3B4046FD
:100BB000A3EB0B010194DDF810A000F0C7F94FF092
:100BC0008741044600F046FD002800F079814FF08F
:100BD0006E51204600F01AFB00F050FD00F084FC3E
:100BE0004FF08741054600F011FB0146204600F01A
:100BF000C5FB00F043FD0CAB09F1010643F82900E9
:100C0000039B28460833039300F038FD0CAB43F8F0
:100C1000260050E00131894583DC96E74FF07C5196
:100C200000F018FD044600283FF4FEAEB9F1000FB5
:100C300007F10107C8BF02243FF771AF41464FF0EB
:100C40007E5000F09BFB02248046EDE6B9F1000FD8
:100C500007F10107D8BF00263FF761AF039B012BC7
:100C60007FF47AAF09F1FF310CAB0CAA53F82130B5
:100C700003F07F0342F821307AE709F10106334699
:100C8000FBE6039BDDF810A00194A3F1080209F133
:100C9000FF360CAB039253F8263063B909F1804359
:100CA000013B0CA901EB830353F8041D013E083AF4
:100CB0000029F9D0039203994FF07E5000F046F9D5
:100CC000002E8146C0F22481741C0CABA10003EB02
:100CD000840848AB4FF06E5503EB84048B4658F8FC
:100CE000040D00F001FC494600F090FA294644F852
:100CF000040D484600F08AFA0CAB98458146EED1C7
:100D0000ABF1080348AA34AC1344CDE90274B146F0
:100D100059461A464FF0000B0496C8465E462346D5
:100D200005919146BAF1000F71DB874F0093BB46E6
:100D3000002500244F4601E0B4420DDC57F8041FA3
:100D40005BF8040B00F062FA0146284600F018FB3D
:100D50000134A2450546EFDA009B43F8045B08F135
:100D6000FF38B8F1FF3F06F10106A9F10409D9D116
:100D7000669B022BDDE90274DDE9046149DC002B8E
:100D80001ADC0FD134AB5C18002054F8041D00F0BD
:100D9000F7FA34AB9C42F8D1019B002B40F0AB80BA
:100DA000099B186007F007005DB0BDE8F08F0823CD
:100DB0000A930023069351E534AB002503EB0109A8
:100DC000284659F8041D00F0DBFA34AB9945F8D1F8
:100DD00005462946349800F0D1FA019B002B40F0DB
:100DE0008280099B1D605EB1012554F8041F013506
:100DF00000F0C6FAAE42F8DA019B0BB100F10040F8
:100E0000099B586007F007005DB0BDE8F08F002532
:100E1000A3E7669B032BC5D1002E00F0868034AB80
:100E200003EB860A53F82640B500D3465BF8049CD2
:100E30002046494600F0A4FAA0460446214648460A
:100E400000F09CFA414600F09BFACBF800004BF80A
:100E5000044D34AB9B45E9D1012E66D034AB53F839
:100E600026401E1D5AF8049C2046494600F088FA88
:100E7000A04604462146484600F080FA414600F06C
:100E80007FFACAF800004AF8044D5645EAD134AB5F
:100E90002C1D1C4403F10808002054F8041D00F028
:100EA0006FFAA045F9D10199349A359B81B9099916
:100EB0000A604B60886007F007005DB0BDE8F08F06
:100EC000204600F0DBFB0CAB4E4643F82900F2E66F
:100ED000099902F1004203F1004300F100400A6069
:100EE0004B608860E7E7099B05F100451D60002E17
:100EF0007FF47AAF82E700F1004051E7022C7FF4E3
:100F000093AD01464FF07E5000F038FA80468BE5F5
:100F1000669B022B05DC002B09DC7FF443AF00202D
:100F20003AE7669B032B7FF43DAF0020BBE7019BB4
:100F300034981BB9099A0023136061E7099A4FF0AE
:100F4000004313605AE700BF7056000810B50C4606
:100F500030F0004103461DD0B1F1FF4F1BD210F01D
:100F6000FF4F02461BD14FF0984100F04FF9204A45
:100F7000944203462CDBC0F3C75102464CF250307A
:100F80008442A1F1190110DD1A49184661F31E00CF
:100F900000F03CF910BD014600F0F2F910BD4CF232
:100FA000503084424FEAD151EEDC2144FE29EBDC83
:100FB000002911DC11F1160F13DB01F1190022F0E9
:100FC000FF424FF04C5142EAC05000F01FF910BDF3
:100FD000094900F01BF910BD22F0FF4242EAC1505E
:100FE00010BD0549184661F31E0000F00FF910BD51
:100FF000B03CFFFFCAF249716042A20D2DE9F843EF
:1010000020F00046B6F1485F0546884649D200F018
:1010100035FB002800F09D802946284600F0F6F8B0
:101020004E49044600F0F2F84D4900F0A9F9214676
:1010300000F0ECF84B4900F0A1F9214600F0E6F889
:10104000494900F09DF9214600F0E0F8474900F0D9
:1010500095F9214600F0DAF8454900F091F921466A
:1010600000F0D4F807464FF07C51204600F0CEF84F
:1010700039460646204600F0C9F84146044628464F
:1010800000F0C4F80146204600F078F901463046E9
:1010900000F074F901464FF07E5000F06FF9BDE8A2
:1010A000F883014600F0B2F82C49044600F0AEF88F
:1010B0002B4900F065F9214600F0A8F8294900F015
:1010C0005DF9214600F0A2F8274900F059F92146C0
:1010D00000F09CF8254900F051F9214600F096F8FF
:1010E000234900F04DF9214600F090F8214B9E4233
:1010F0000746B8D9204B9E4227D806F17F464FF0CD
:101100007E50314600F03AF981464FF07C5120463E
:1011100000F07CF8314600F031F9394606462046A9
:1011200000F074F841460446284600F06FF8014686
:10113000204600F023F90146304600F01FF9014631
:10114000484600F01BF9BDE8F883DFF830900C4EFC
:10115000DBE74FF07E50BDE8F88300BF4ED747ADC8
:10116000F6740F317CF29334010DD037610BB63A2F
:10117000ABAA2A3D9999993E0000483F0000383FAC
:101180000000903E2DE9F041C0F3C7557F3D162D7C
:10119000044620F0004725DC002D804614DB184F64
:1011A0002F4138421BD0174900F0EAF8002100F027
:1011B0005BFAA0B1002C03DA4FF400032B419844F2
:1011C00028EA0700BDE8F0810E4900F0D9F80021B7
:1011D00000F04AFA18B1002C0CDB002000E0204699
:1011E000BDE8F081B7F1FF4FF9D3014600F0C8F830
:1011F000BDE8F08117B94FF00040F1E70248EFE792
:10120000FFFF7F00CAF24971000080BF4FF0FF0C62
:101210001CEAD0521EBF1CEAD15392EA0C0F93EA8B
:101220000C0F6FD01A4480EA010C400218BF5FEA2D
:1012300041211ED04FF0006343EA501043EA5111A0
:10124000A0FB01310CF00040B1F5000F3EBF49009A
:1012500041EAD3715B0040EA010062F17F02FD2A9E
:101260001DD8B3F1004F40EBC25008BF20F0010081
:10127000704790F0000F0CF0004C08BF49024CEA98
:10128000502040EA51207F3AC2BFD2F1FF0340EA2A
:10129000C250704740F400004FF00003013A5DDC9B
:1012A00012F1190FDCBF00F000407047C2F10002DC
:1012B000410021FA02F1C2F1200200FA02FC5FEAC9
:1012C000310040F1000053EA4C0308BF20EADC7013
:1012D000704792F0000F00F0004C02BF400010F485
:1012E000000F013AF9D040EA0C0093F0000F01F032
:1012F000004C02BF490011F4000F013BF9D041EA54
:101300000C018FE70CEAD15392EA0C0F18BF93EA55
:101310000C0F0AD030F0004C18BF31F0004CD8D17F
:1013200080EA010000F00040704790F0000F17BF06
:1013300090F0004F084691F0000F91F0004F14D04C
:1013400092EA0C0F01D142020FD193EA0C0F03D1A4
:101350004B0218BF084608D180EA010000F00040A7
:1013600040F0FE4040F40000704740F0FE4040F482
:101370004000704780F0004002E000BF81F0004173
:1013800042001FBF5FEA410392EA030F7FEA226C2B
:101390007FEA236C6AD04FEA1262D2EB1363C1BFBB
:1013A000D218414048404140B8BF5B42192B88BF2A
:1013B000704710F0004F40F4000020F07F4018BF4D
:1013C000404211F0004F41F4000121F07F4118BF6D
:1013D000494292EA030F3FD0A2F1010241FA03FC15
:1013E00010EB0C00C3F1200301FA03F100F00043FD
:1013F00002D5494260EB4000B0F5000F13D3B0F1C5
:10140000807F06D340084FEA310102F10102FE2A33
:1014100051D2B1F1004F40EBC25008BF20F00100A3
:1014200040EA03007047490040EB0000013A28BF42
:10143000B0F5000FEDD2B0FA80FCACF1080CB2EBC5
:101440000C0200FA0CF0AABF00EBC2505242184343
:10145000BCBFD0401843704792F0000F81F40001E8
:1014600006BF80F400000132013BB5E74FEA4103BB
:101470007FEA226C18BF7FEA236C21D092EA030F27
:1014800004D092F0000F08BF0846704790EA010FA1
:101490001CBF0020704712F07F4F04D1400028BFCE
:1014A00040F00040704712F100723CBF00F50000B0
:1014B000704700F0004343F0FE4040F400007047E6
:1014C0007FEA226216BF08467FEA23630146420292
:1014D00006BF5FEA412390EA010F40F480007047A5
:1014E0004FF0000304E000BF10F0004348BF40424B
:1014F0005FEA000C08BF704743F0964301464FF087
:1015000000001CE050EA010208BF70474FF00003E2
:101510000AE000BF50EA010208BF704711F0004323
:1015200002D5404261EB41015FEA010C02BF8446F3
:101530000146002043F0B64308BFA3F18053A3F552
:101540000003BCFA8CF2083AA3EBC25310DB01FA99
:1015500002FC634400FA02FCC2F12002BCF1004F1D
:1015600020FA02F243EB020008BF20F001007047AE
:1015700002F1200201FA02FCC2F1200250EA4C0002
:1015800021FA02F243EB020008BF20EADC70704748
:101590004FF0FF3C06E000BF4FF0010C02E000BF3F
:1015A0004FF0010C4DF804CD4FEA40024FEA4103E1
:1015B0007FEA226C18BF7FEA236C11D001B052EA97
:1015C000530C18BF90EA010F58BFB2EB030088BF5D
:1015D000C81738BF6FEAE17018BF40F001007047CC
:1015E0007FEA226C02D15FEA402C05D17FEA236CAE
:1015F000E4D15FEA412CE1D05DF8040B704700BFF5
:10160000844608466146FFE70FB5FFF7C9FF00288B
:1016100048BF10F1000F0FBD4DF808EDFFF7F4FFC4
:101620000CBF012000205DF808FB00BF4DF808ED5D
:10163000FFF7EAFF34BF012000205DF808FB00BF80
:101640004DF808EDFFF7E0FF94BF012000205DF8A2
:1016500008FB00BF4DF808EDFFF7D2FF94BF012053
:1016600000205DF808FB00BF4DF808EDFFF7C8FF4C
:1016700034BF012000205DF808FB00BF4FEA4002A4
:10168000B2F1FE4F0FD34FF09E03B3EB12620DD9B0
:101690004FEA002343F0004310F0004F23FA02F01A
:1016A00018BF404270474FF00000704712F1610FC1
:1016B00001D1420205D110F0004008BF6FF0004098
:1016C00070474FF00000704781F0004102E000BF1A
:1016D00083F0004330B54FEA41044FEA430594EAF2
:1016E000050F08BF90EA020F1FBF54EA000C55EA2D
:1016F000020C7FEA645C7FEA655C00F0E2804FEAFE
:101700005454D4EB5555B8BF6D420CDD2C4480EADF
:10171000020281EA030382EA000083EA010180EA0F
:10172000020281EA0303362D88BF30BD11F0004F5D
:101730004FEA01314FF4801C4CEA113102D0404293
:1017400061EB410113F0004F4FEA03334CEA1333CE
:1017500002D0524263EB430394EA050F00F0A780E6
:10176000A4F10104D5F1200E0DDB02FA0EFC22FAE1
:1017700005F2801841F1000103FA0EF2801843FAD5
:1017800005F359410EE0A5F120050EF1200E012AC6
:1017900003FA0EFC28BF4CF0020C43FA05F3C01804
:1017A00051EBE37101F0004507D54FF0000EDCF17D
:1017B000000C7EEB00006EEB0101B1F5801F1BD326
:1017C000B1F5001F0CD349085FEA30004FEA3C0C2A
:1017D00004F101044FEA445212F5800F80F09A8020
:1017E000BCF1004F08BF5FEA500C50F1000041EB24
:1017F000045141EA050130BD5FEA4C0C404141EB28
:101800000101013C28BFB1F5801FE9D291F0000F22
:1018100004BF01460020B1FA81F308BF2033A3F1D1
:101820000B03B3F120020CDA0C3208DD02F1140CC8
:10183000C2F10C0201FA0CF021FA02F10CE002F103
:101840001402D8BFC2F1200C01FA02F120FA0CFCFC
:10185000DCBF41EA0C019040E41AA2BF01EB045145
:10186000294330BD6FEA04041F3C1CDA0C340EDC43
:1018700004F11404C4F1200220FA04F001FA02F386
:1018800040EA030021FA04F345EA030130BDC4F144
:101890000C04C4F1200220FA02F001FA04F340EA39
:1018A0000300294630BD21FA04F0294630BD94F0EA
:1018B000000F83F4801306BF81F480110134013DD1
:1018C0004EE77FEA645C18BF7FEA655C29D094EA42
:1018D000050F08BF90EA020F05D054EA000C04BFC0
:1018E0001946104630BD91EA030F1EBF00210020AB
:1018F00030BD5FEA545C05D14000494128BF41F04A
:10190000004130BD14F580043CBF01F5801130BDAD
:1019100001F0004545F0FE4141F470014FF0000038
:1019200030BD7FEA645C1ABF194610467FEA655CE9
:101930001CBF0B46024650EA013406BF52EA03358B
:1019400091EA030F41F4002130BD00BF90F0000F79
:1019500004BF0021704730B54FF4806404F13204B5
:101960004FF000054FF0000150E700BF90F0000F6E
:1019700004BF0021704730B54FF4806404F1320495
:1019800010F0004548BF40424FF000013EE700BF65
:1019900042004FEAE2014FEA31014FEA02701FBFF5
:1019A00012F07F4393F07F4F81F06051704732F027
:1019B0007F4208BF704793F07F4F04BF41F400217E
:1019C000704730B54FF4607401F0004521F00041DC
:1019D0001CE700BF50EA010208BF704730B54FF066
:1019E00000050AE050EA010208BF704730B511F067
:1019F000004502D5404261EB41014FF4806404F19F
:101A000032045FEA915C3FF4D8AE4FF003025FEA24
:101A1000DC0C18BF03325FEADC0C18BF033202EBA8
:101A2000DC02C2F1200300FA03FC20FA02F001FA02
:101A300003FE40EA0E0021FA02F11444BDE600BFA5
:101A400070B54FF0FF0C4CF4E06C1CEA11541DBF54
:101A50001CEA135594EA0C0F95EA0C0F00F0DEF81F
:101A60002C4481EA030621EA4C5123EA4C5350EA04
:101A7000013518BF52EA033541F4801143F4801355
:101A800038D0A0FB02CE4FF00005E1FB02E506F0E6
:101A90000042E0FB03E54FF00006E1FB03569CF03B
:101AA000000F18BF4EF0010EA4F1FF04B6F5007F41
:101AB00064F5407404D25FEA4E0E6D4146EB0606B3
:101AC00042EAC62141EA55514FEAC52040EA5E503C
:101AD0004FEACE2EB4F1FD0C88BFBCF5E06F1ED8E6
:101AE000BEF1004F08BF5FEA500E50F1000041EB1D
:101AF000045170BD06F0004646EA010140EA0200CA
:101B000081EA0301B4EB5C04C2BFD4EB0C0541EAEB
:101B1000045170BD41F480114FF0000E013C00F300
:101B2000AB8014F1360FDEBF002001F0004170BD24
:101B3000C4F10004203C35DA0C341BDC04F114043D
:101B4000C4F1200500FA05F320FA04F001FA05F2C9
:101B500040EA020001F0004221F0004110EBD37096
:101B600021FA04F642EB06015EEA430E08BF20EAC2
:101B7000D37070BDC4F10C04C4F1200500FA04F365
:101B800020FA05F001FA04F240EA020001F00041F7
:101B900010EBD37041F100015EEA430E08BF20EA6A
:101BA000D37070BDC4F1200500FA05F24EEA020EB2
:101BB00020FA04F301FA05F243EA020321FA04F0E1
:101BC00001F0004121FA04F220EA020000EBD37098
:101BD0005EEA430E08BF20EAD37070BD94F0000F98
:101BE0000FD101F00046400041EB010111F4801FCC
:101BF00008BF013CF7D041EA060195F0000F18BF7D
:101C0000704703F00046520043EB030313F4801FB8
:101C100008BF013DF7D043EA0603704794EA0C0F72
:101C20000CEA135518BF95EA0C0F0CD050EA410688
:101C300018BF52EA4306D1D181EA030101F0004105
:101C40004FF0000070BD50EA410606BF104619462D
:101C500052EA430619D094EA0C0F02D150EA013639
:101C600013D195EA0C0F05D152EA03361CBF10467A
:101C700019460AD181EA030101F0004141F0FE4119
:101C800041F470014FF0000070BD41F0FE4141F49D
:101C9000780170BD70B54FF0FF0C4CF4E06C1CEA9D
:101CA00011541DBF1CEA135594EA0C0F95EA0C0F52
:101CB00000F0A7F8A4EB050481EA030E52EA03350D
:101CC0004FEA013100F088804FEA03334FF080552E
:101CD00045EA131343EA12634FEA022245EA11155B
:101CE00045EA10654FEA00260EF000419D4208BF0C
:101CF000964244F1FD0404F5407402D25B084FEAB9
:101D00003202B61A65EB03055B084FEA32024FF464
:101D100080104FF4002CB6EB020E75EB030E22BFC1
:101D2000B61A754640EA0C005B084FEA3202B6EB81
:101D3000020E75EB030E22BFB61A754640EA5C0030
:101D40005B084FEA3202B6EB020E75EB030E22BFC0
:101D5000B61A754640EA9C005B084FEA3202B6EBC1
:101D6000020E75EB030E22BFB61A754640EADC0080
:101D700055EA060E18D04FEA051545EA16754FEAE2
:101D800006164FEAC30343EA52734FEAC2025FEA00
:101D90001C1CC0D111F4801F0BD141EA00014FF08F
:101DA00000004FF0004CB6E711F4801F04BF014360
:101DB0000020B4F1FD0C88BFBCF5E06F3FF6AFAE7C
:101DC000B5EB030C04BFB6EB020C5FEA500C50F10C
:101DD000000041EB045170BD0EF0004E4EEA11318F
:101DE00014EB5C04C2BFD4EB0C0541EA045170BD96
:101DF00041F480114FF0000E013C90E645EA060EDA
:101E00008DE60CEA135594EA0C0F08BF95EA0C0F07
:101E10003FF43BAF94EA0C0F0AD150EA01347FF44F
:101E200034AF95EA0C0F7FF425AF104619462CE726
:101E300095EA0C0F06D152EA03353FF4FDAE104689
:101E4000194622E750EA410618BF52EA43067FF4DA
:101E5000C5AE50EA41047FF40DAF52EA43057FF46A
:101E6000EBAE12E74FEA4102B2F1E04324BFB3F513
:101E7000001CDCF1FE5C0DD901F0004C4FEAC00201
:101E80004CEA5070B2F1004F40EB830008BF20F0E5
:101E90000100704711F0804F21D113F13872BCBF9F
:101EA00001F00040704741F480114FEA5252C2F1F4
:101EB0001802C2F1200C10FA0CF320FA02F018BF3D
:101EC00040F001004FEAC1234FEAD32303FA0CFC90
:101ED00040EA0C0023FA02F34FEA4303CCE77FEA1F
:101EE000625307D150EA01331EBF4FF0FE4040F469
:101EF0004000704701F0004040F0FE4040F4000018
:101F0000704700BF42000ED2B2F1FE4F0BD34FF02C
:101F10009E03B3EB126209D44FEA002343F000435F
:101F200023FA02F070474FF00000704712F1610F82
:101F300001D1420202D14FF0FF3070474FF0000054
:101F4000704700BF830730B547D0541E002A3ED0EB
:101F5000CAB2034601E0013C39D303F8012B9D07C7
:101F6000F9D1032C2CD9CDB205EB05250F2C05EBAF
:101F7000054535D9A4F1100222F00F0C03F1100E23
:101F8000E6444FEA121C1A46C2E90055C2E902555E
:101F900010327245F8D10CF1010214F00C0F03EB72
:101FA000021204F00F0C13D0ACF1040323F003036E
:101FB0000433134442F8045B9342FBD10CF0030456
:101FC0002CB1C9B21C4403F8011BA342FBD130BDA4
:101FD00064461346002CF4D1F9E703461446C0E7E3
:101FE0001A46A446E0E700BF844641EA000313F026
:101FF00003036DD1403A41D351F8043B40F8043B10
:1020000051F8043B40F8043B51F8043B40F8043BD2
:1020100051F8043B40F8043B51F8043B40F8043BC2
:1020200051F8043B40F8043B51F8043B40F8043BB2
:1020300051F8043B40F8043B51F8043B40F8043BA2
:1020400051F8043B40F8043B51F8043B40F8043B92
:1020500051F8043B40F8043B51F8043B40F8043B82
:1020600051F8043B40F8043B51F8043B40F8043B72
:1020700051F8043B40F8043B403ABDD2303211D312
:1020800051F8043B40F8043B51F8043B40F8043B52
:1020900051F8043B40F8043B51F8043B40F8043B42
:1020A000103AEDD20C3205D351F8043B40F8043B12
:1020B000043AF9D2043208D0D2071CBF11F8013B10
:1020C00000F8013B01D30B8803806046704700BFD6
:1020D000082A13D38B078DD010F003038AD0C3F1E5
:1020E0000403D21ADB071CBF11F8013B00F8013BC7
:1020F00080D331F8023B20F8023B7BE7043AD9D386
:10210000013A11F8013B00F8013BF9D20B7803705A
:102110004B7843708B7883706046704700000000F6
:10212000012914BF6FF01300002070470000000069
:10213000302383F311880D4B5B6813F4006302D1E5
:1021400083F311887047EFF309834FF08072203BCF
:10215000DA6183F30988064A1168D268896892684F
:1021600091428CBF034A044A9A61704700ED00E037
:10217000C0050024E3030008E60300080000000097
:102180002DE9F04702F00305D4094FF0000C4FF0A1
:102190000108AE4603270F2601F001034908ABB33F
:1021A000D0F804A008FA0CF94FEA4C030CF007022F
:1021B0002AEA0909022D07FA03F34FEA8202C0F85E
:1021C0000490D0F8089029EA0309C0F80890D0F8E4
:1021D0000C9029EA03096FEA0303C0F80C9006FA91
:1021E00002F904FA02F26FEA090914D0D0F800A04B
:1021F000BCF1070F03EA0A0343EA0E0303601DD88C
:10220000036A03EA090313430362A9B14FEA8E0E7E
:102210000CF1010CC0E7BCF1070F15D8D0F820A0D5
:102220000AEA090949EA020202620268134043EA23
:102230000E0303600029E9D1BDE8F087436A03EA91
:10224000090313434362E0E7D0F824A00AEA09092E
:1022500049EA02024262E8E70000000000000000D4
:10226000024A136843F0C0031360704700480040FF
:10227000024A136843F0C0031360704700500040E7
:1022800072B603490322034BC1F8E4001A70FEE75B
:10229000C0050024A403002400000000000000008A
:1022A000FEE700BF0000000000000000000000008A
:1022B000014B5B6883607047001000E00000000085
:1022C0000E4A0F4B81685B6810B4946802691B1B4F
:1022D000C4685B1A41690134D218026141F10001FE
:1022E000426841619342026888BF43609342C0E9FB
:1022F000023438BF036010BC704700BFA403002441
:10230000001000E0000000000000000000000000DD
:10231000064B49425A68101A08401968884203D38C
:10232000824201D358607047002070479C0300240C
:1023300030B500F10B052B468C46B1FBF2F102FBE8
:1023400011C404F1300EBEF1390FC8BF04F1370ECD
:10235000624503F801EDEFD9421EEC1A13F8011B98
:102360009D4202F8011FF9D1204430BD0000000059
:1023700008B5084B1A689A4203D1002383F31188E9
:1023800008BDD96893688A689A42F6D20248FFF776
:1023900077FF00BFC0050024B45A00080000000009
:1023A00070B5C56A2A68136823F01F0313601368A9
:1023B00013F00103FBD12C7B3D226968A2402E4E15
:1023C0000A6001216C7B326801FA04F422424CD08D
:1023D00095F80EC022EA0402284C0CF01F05A94013
:1023E0004FEA5C15A44404EB850ECEF88010CEF8BD
:1023F00080118CF80033D3B23260C3B112F47F4F36
:1024000025D0836A00221C68C26202692068E16BE1
:10241000D3E90256138930409289AB403140AA403B
:1024200003430A4343F00103E263236070BD144B8E
:10243000996BC9071CD5996B12F47F4F21F00101EC
:102440009963196E21F0010119661B6ED9D10C4BED
:102450009A6B92070CD59A6B22F002029A631A6E5D
:1024600022F002021A661B6ECBE70648FFF708FF50
:102470000548FFF705FF00BF2804002400E100E045
:1024800000450258885A0008785A000800000000E9
:1024900038B590F82030D0E90914E3B162681368C8
:1024A00023F00F0313600E23227A246803FA02F24A
:1024B00062604C68226822F00F0222600C7A0A687F
:1024C000A34053603A4B984222D03A4B984233D0C3
:1024D0003948FFF7D5FE2268136823F01F03136005
:1024E0001368DD07FCD4227B3D23646893400A68AF
:1024F0002360136823F01F0313601368DC07FCD408
:102500000C7B3D234A68A3401360294B9842DCD1E1
:102510002A4B1B6DDA0448D5294BD3F8982042F496
:102520008052C3F89820D3F8982022F48052C3F840
:102530009820D3F8983012E0204B5B6D9B0631D584
:102540001F4BD3F89C2042F02002C3F89C20D3F804
:102550009C2022F02002C3F89C20D3F89C304168D4
:102560004024C36900204D69164A18602A4058600B
:102570004FF0FF301C6142F44042986148789A6005
:102580008A6940B91049114040F2011241F00151ED
:10259000D9601A6038BD22F4C022DA6040F201121C
:1025A0001A6038BD0948FFF76BFE0948FFF768FE5F
:1025B000EC030024B0030024645A000800450258CC
:1025C000004402581F3EFFFFFFFFB9DF545A0008C6
:1025D000445A000800000000000000000000000055
:1025E00008B5302383F311880B7F0C2B08D8DFE864
:1025F00003F03207072B130F071307070707130012
:102600004FF0FF320F2B4A630DD11548FFF738FE0C
:102610004A6B9368013393604FF0FF30D1E9003289
:1026200013605A60486300220B6988680A771B6848
:102630009A688242FBD25A6800200B604A6011609F
:10264000596080F3118808BD4A6B00204FF0FF33BA
:1026500010604B63E7E7002383F3118808BD00BFD8
:10266000305A0008000000000000000000000000D8
:1026700003689BB110B51A7F032A10D100241A6990
:102680000460596399681C77126890688842FBD28D
:102690005168C3E900210B60536010BD70470148C9
:1026A000FFF7EEFDDC59000800000000000000000C
:1026B00011F00C0F38B504461FD1CB0601F02005F0
:1026C00004D543685B68002B3BD09847A5B163688D
:1026D0005B6833B104222046227098472378042B8C
:1026E00029D0302383F31188002104F11400FFF76F
:1026F000BFFF002383F3118838BDFFF751FE20464A
:10270000FFF74EFE63689B683BB10522002120461F
:10271000227098472378052B10D000253023656060
:1027200083F311884FF0FF3104F11400FFF7A0FF8D
:1027300085F3118838BD03232370D2E70223237069
:10274000EBE7002DCDD138BD0000000000000000F7
:102750000368984239D0F0B40025DA680A43DA6099
:1027600059B11A69114208D11B68984215D0DA682C
:102770000A43DA601A691142F6D0D3E90124566C93
:1027800092F81CC03443BCF10A0F546407D0BCF16A
:102790000B0F15D01B689842DFD1F0BC7047566B09
:1027A0003442F7D014699768556315772468A66892
:1027B000BE42FBD266681460566032606260E9E730
:1027C000566B36EA0404E5D1ECE7704700000000E0
:1027D000302310B583F31188104B49425C68201AEE
:1027E00008401968821A8A420AD3944208D35A6070
:1027F0000B4B1A689A4208D1002383F3118810BD4D
:10280000074B00201A689A42F6D0D96893688A6804
:102810009A42F1D20348FFF733FD00BF9C03002426
:10282000C0050024D059000800000000000000008E
:102830001D4B70B503F11004D9611D6AC0E9014256
:102840001C69AA42046038BF2A46606018614FF0D4
:1028500080408E18C46814F002041BD146630461E2
:102860000224C460446A661AB24200D970BD2E4682
:10287000C2680136920731440FD54163426A111B89
:10288000B1420DD2B542F1D2DA6B1E6242F00102C2
:10289000DA6370BD0548FFF7F3FC0548FFF7F0FC6D
:1028A00021461446E4E700BFC0050024285700086D
:1028B0001C5700080000000000000000000000009D
:1028C000F8B5134C4FF08043226ADD68914238BF5F
:1028D0001146AD0701EB00070ED515465F635E6A32
:1028E000301A81420BD9AA4200D3F8BDE36B2562AE
:1028F00043F00103E363F8BD0648FFF7C1FCD86865
:10290000691C800701EB0607F6D530460D46E5E762
:10291000C00500241C570008000000000000000053
:1029200008B50368984213D01A68026050601A7F95
:10293000042A0ED100211A69986859631977126820
:1029400091688142FBD25168C3E900210B6053605A
:1029500008BD0148FFF794FC08570008000000007C
:102960002DE9F047466D0446F5692B07356240F0C6
:102970008E80EA057FD4A80634D5302704F10408F8
:1029800012E062692162013262611D70D4E907328E
:102990009A4201D3A3692362FFF7C2FF002383F3A6
:1029A0001188F569AB061DD587F31188756A94F80F
:1029B0005C1063690D4083B104F10C00D4E9083266
:1029C000934203F10101DCD16269002AD9D04FF4AE
:1029D00000614046FFF7BCFEE0E704214046FFF7F8
:1029E000B7FEE9E7D6F800A01AF0800F30D02A062B
:1029F0002ED54FF030084FF0000904EB080712E025
:102A0000A16B236C0131C4F848C09C45A1631578C3
:102A100001D3E36BA364FFF783FFB56289F31188E9
:102A2000F569290614D588F31188D4E9113238469E
:102A3000934202F1010CE3D1A36B002BE0D00821FB
:102A4000201DFFF785FE2AF0800A002383F31188FA
:102A50001AF0400F0BD06B0609D5302383F3118891
:102A6000D4E911239A4228D0002383F31188C6F8B1
:102A700000A0BDE8F087302383F311884FF4806114
:102A8000201DFFF765FE002383F3118873E76901BA
:102A9000AF074FF0300301F4907148BF41F040019F
:102AA000680748BF41F0800183F31188201DFFF7BC
:102AB0004FFE002383F311885BE7A36B002BD3D079
:102AC0001021201D2AF0400AFFF742FECCE700BF8C
:102AD0000E4A38B55368D1689C68012C13D19942CD
:102AE0000ED00B6993420BD11A680877156810460F
:102AF0006B601D601477DA60BDE83840FDF760BC9C
:102B00000348FFF7BDFB0348FFF7BAFBC0050024ED
:102B1000205A00080C5A00080000000000000000C5
:102B20002DE9F0474B1C3C4E86B0D6F80C9025D0D2
:102B3000B0463A4B07460A4658F8105F0393002305
:102B40004545CDF8109005934FF08043586A58D012
:102B5000F469AB68041B0C1928BF0C46A34235D896
:102B60009C42EA4605D810E02D68E41AAB689C4206
:102B70000BD95545F8D12A48FFF782FBFFF7A8FF8C
:102B8000D9F8340006B0BDE8F0870294AB686A68F3
:102B90001B1B00950192C2F800A0C5E901A34FF0EC
:102BA000FF33B3613846FFF793FF009B002BE7D05C
:102BB000326952450ED09A68DDE9011002440B607B
:102BC000C3E901124FF0FF33B361D9E7FFF778FE95
:102BD000AB68C5E70022434533610092C3F8048027
:102BE00015D09A680298F16902444FF080409A60CB
:102BF000406A431A9A42C3D9091A1144FFF760FE8A
:102C0000BEE701466846EA46FFF712FECAE74FF004
:102C10008043DA60B4E700BFC0050024E125000866
:102C2000985A0008000000000000000000000000AA
:102C30002DE9F04F85B01646D0F81C904FF0300AC1
:102C400002938AF31188002A7FD04E4604469346A9
:102C5000DFF8FC8089460392A2685A4539D2A568FC
:102C6000D4E904703F1AAF4239D83FD23A464946B8
:102C7000FFF7BAF9EA1B09EB0701E0680192FFF7D9
:102C8000B3F9E168019A0A44A168491B6261A16035
:102C90000EB12046B047D8F8002042454ED100235F
:102CA00083F31188ABEB050BA9448AF31188BBF1C0
:102CB000000FD1D1039ED8F800204FF0000B424501
:102CC00033D1002282F31188A6EB0B0005B0BDE8DA
:102CD000F08FD4E904705D463F1AAF42C5D949462A
:102CE0002A46FFF781F96169294404E049462A46EA
:102CF000FFF77AF9E168A2686161521BA260002DBA
:102D0000C6D1029BD8F80C2053B161680420C2E9F7
:102D100000410A6019466260FFF702FF00289BD05D
:102D2000D8F80020039E4245CBD0D8F80C1092680A
:102D300089689142C5D20748FFF7A2FAD8F80C106B
:102D4000926889689142AAD2F5E7DFF80480B2E779
:102D5000C0050024C05A0008000000000000000068
:102D60004FF0FF333030FFF763BF00BF00000000BB
:102D70003030FFF75DBF00BF000000000000000022
:102D800070B53023044683F311888368002B35D156
:102D90000D4649B94FF0FF30204E3368B34235D16C
:102DA000002383F3118870BD1C4EF36800E0F368C4
:102DB000626829461C6004205A6013606360FFF754
:102DC000AFFE0028E9DBA368002BF0D0A368A1695F
:102DD000013B4A1CA3602369A2619A420D7801D38A
:102DE000E368A361E3690BB1204698473368B342B7
:102DF00006D1002383F31188284670BD074EE5E70E
:102E0000F2689B6892689A42F3D204E0F2689B6889
:102E100092689A42C4D20248FFF732FAC0050024F1
:102E2000C05A000800000000000000000000000080
:102E30004FF0FF310C30FFF7A3BF00BF00000000D0
:102E40000C30FFF79DBF00BF000000000000000035
:102E50002DE9F04F85B01646D0F81C904FF0300A9F
:102E600002938AF31188002A7FD04E460446934687
:102E7000DFF8FC8089460392A2685A4539D2A169DD
:102E80002769A5687F1AAF4239D83FD23A464846EB
:102E9000FFF7AAF8EA1BE16809EB07000192FFF7C8
:102EA000A3F8E168019A0A44A168491BA261A160E4
:102EB0000EB12046B047D8F8002042454ED100233D
:102EC00083F31188ABEB050BA9448AF31188BBF19E
:102ED000000FD1D1039ED8F800204FF0000B4245DF
:102EE00033D1002282F31188A6EB0B0005B0BDE8B8
:102EF000F08FA1695D4627697F1AAF42C5D92A467E
:102F00004846FFF771F8A169294404E02A4648467B
:102F1000FFF76AF8E168A268A161521BA260002D68
:102F2000C6D1029BD8F80C2053B161680420C2E9D5
:102F300000410A6019466260FFF7F2FD00289BD04D
:102F4000D8F80020039E4245CBD0D8F80C109268E8
:102F500089689142C5D20748FFF792F9D8F80C105A
:102F6000926889689142AAD2F5E7DFF80480B2E757
:102F7000C0050024C05A0008000000000000000046
:102F80004FF0FF330C30FFF763BF00BF00000000BD
:102F90000C30FFF75DBF00BF000000000000000024
:102FA0002DE9F04130230446884683F31188836875
:102FB000002B38D1164652B94FF0FF30224F3B68F4
:102FC000BB4238D1002383F31188BDE8F0811E4F46
:102FD000FB6800E0FB68656831461C6004205D60AA
:102FE0002B606360FFF79CFD0028E8DBA368002BE3
:102FF000F0D0A3686269013BA360531C636182F84F
:103000000080D4E904329A4201D3E3686361E36942
:103010000BB1204698473B68BB4206D1002080F3A5
:103020001188BDE8F081084FE3E7FA689B68926871
:103030009A42F3D204E0FA689B6892689A42C1D23D
:103040000248FFF71DF900BFC0050024C05A000860
:103050004FF0FF323030FFF7A3BF00BF0000000089
:103060003030FFF79DBF00BF0000000000000000EF
:103070000EB42DE9F04F86B00FAB53F8045BA946B0
:103080000093029319F8011B002900F0DF81044628
:103090004FF000080CE0236808F101084D46204677
:1030A000DB689847A94619F8011B002900F0E18068
:1030B0002529F0D16B782D2B00F0C180002799F8DD
:1030C00000202B2A00F0B5800020302A00F0AB80D1
:1030D00020262A2A50D1DDF800C009F1020599F80E
:1030E00001205CF804AB2E2A00F0AD80002102F034
:1030F000DF034C2B58D12A78002A00F0BA80A2F1C5
:1031000044030135342B00F2BA80DFE813F0690183
:10311000B800B800B800B8006901B800B800B8003D
:10312000B800B80095016F01B800B800B800B80049
:103130009A01B800B8006F01B800B800B800B80034
:10314000B800B800B800B800B800B800270169019D
:10315000B800B800B800B8006901B800B800B800FD
:10316000B800B80095016F01B800B8000901B800B7
:103170009A01B800B8006F0109F10109002A78D05E
:103180004FF0000A05E019F8012B03EB410A002A71
:103190006FD0A2F130034D460AEB8A01DBB2092B56
:1031A000F1D9DDF800C09EE7A2F141035FFA83FE8A
:1031B000A2F14403342B62D8DFE813F0FB00610076
:1031C000610061006100FB0061006100610061005D
:1031D0006100280110016100610061006100790057
:1031E0006100610010016100610061006100610027
:1031F00061006100610061006100D000FB006100BE
:10320000610061006100FB0061006100610061001C
:1032100061002801100161006100B20061007900C5
:1032200061006100100109F10109164699F80020BA
:103230004FE799F80120012009F1010945E705F15F
:10324000020901273BE72A789AB12A2A2AD005F1F8
:10325000010E0021A2F13003754601EB8109DBB2BA
:10326000092B3FF644AF1EF8012B03EB4901002A5E
:10327000F0D1404606B0BDE8F04F03B07047CDF83E
:1032800000C00AF1FF398DF80C2029EAE979002FF6
:1032900040F08A80BAF1010FBA466ADC0DF10C0BDE
:1032A000B94621E06A7802355CF8041B1FE70A2260
:1032B0000CF1040300930DF10C0BDCF800105846E0
:1032C000FFF736F8A0EB0B02AAEB0203019223EA08
:1032D000E379002F48D1002B02F1FF3A4DDC019B2E
:1032E000002B7FF7DFAEB9460AF101075F44236880
:1032F00020461BF8011BDB6898475F45F7D1C244A5
:103300000AF10108B9F1000F3FF4CCAE4F46236833
:1033100031462046DB689847013FF8D1C844C1E6F2
:10332000634653F804BB0093BBF1000F79D047F616
:10333000FF73002908BF19469BF80030002B00F0EE
:1033400087800BF1FF3258460A4402E010F8013F33
:1033500013B1131A002BF9DA2026B3E763462026AF
:1033600013F8042B00938CE7019BB3F1010ABBD542
:10337000C8E701230DF10C0B01939BF800102B29DA
:1033800018BF2D2901D1302E35D0C9F1000723688F
:1033900031462046DB6898470137F8D1019BC84485
:1033A000B3F1010A9FD57DE64FF0000A0DF10C0B39
:1033B0009AE76346BEF1190F53F8041B009311D925
:1033C000002925DBA0B32B230DF10D000DF10C0B13
:1033D0008DF80C300A22FEF7ABFF73E7102267E787
:1033E0000CF10403DCF800100093E9E70CF104038E
:1033F000102200935FE72368204608F101080BF1D3
:10340000010BDB689847CDF804A0BEE708224FE720
:103410002D2349420DF10D000DF10C0B8DF80C30F0
:10342000D8E7DFF844B0002986D147F6FF7188E776
:103430000DF10C0B5846CDE70CF104030822009364
:1034400039E70CF104030A22009334E7884610E7B9
:103450002AEAEA7937B9BAF1000F7FF723AE2026BE
:10346000019792E720264DE79C56000800000000D7
:1034700010B5BFF34F8FBFF36F8F1C480022C0F809
:103480005022BFF34F8FBFF36F8F436943F4003374
:103490004361BFF34F8FBFF36F8FC0F88420BFF33A
:1034A0004F8FD0F8803043F6E074C3F34E3CC3F343
:1034B000C90E4FEA4C1C0CEA0401734641EA8372C0
:1034C000013BC0F860225A1CF8D1ACF1200C1CF171
:1034D000200FF0D1BFF34F8F436943F48033436132
:1034E000BFF34F8FBFF36F8F10BD00BF00ED00E043
:1034F000704700BF00000000000000000000000056
:10350000FEE700BF00000000000000000000000017
:1035100070B5294D05F1800455F8102C55E90301CB
:1035200088420DD2043A034652F8046F43F8046B04
:103530008B42F9D30139031D091A21F00301C81880
:1035400055F8043C834207D9013B00211B1A23F0A4
:1035500003020432FEF7F6FC1035A542DCD1174811
:103560000023C0F88430BFF34F8FD0F8805043F66B
:10357000E076C5F34E34C5F3C905640104EA0601DB
:103580002B4641EA8372013BC0F86C225A1CF8D1E9
:10359000203C14F1200FF1D1BFF34F8FBFF36F8F99
:1035A000BFF34F8FBFF36F8F0023C0F85032BFF3CC
:1035B0004F8FBFF36F8F70BDDC5A000800ED00E045
:1035C00008B51048FFF7CCF9302383F311880E4B70
:1035D0005B6813F4006302D183F3118808BDEFF335
:1035E00009834FF08072203BDA6183F30988074A30
:1035F0001168D2688968926891428CBF044A054A72
:103600009A6108BD6005002400ED00E0C0050024BB
:10361000E3030008E60300080000000000000000CB
:1036200008B51048FFF79CF9302383F311880E4B3F
:103630005B6813F4006302D183F3118808BDEFF3D4
:1036400009834FF08072203BDA6183F30988074ACF
:103650001168D2688968926891428CBF044A054A11
:103660009A6108BD0005002400ED00E0C0050024BB
:10367000E3030008E603000800000000000000006B
:103680002DE9F0474FF08049D9F81030D9F80C20D7
:103690001340DAB29B076FEA0202C9F810200BD47C
:1036A000302383F311883F4B5B6813F400634FD1E1
:1036B00083F31188BDE8F087302383F311883A4EF5
:1036C0004FF0000A06F110074FF0300809E08AF3C6
:1036D0001188D4E903312046984788F3118863693B
:1036E000ABB9D9F824003469F569A268411B91424D
:1036F00042D31544D4E90010F56101604860C4F874
:1037000000A03369BB42E2D1C9F80CA0DFE74FF05B
:103710008042516A4A1B934217D33269BA4204D19C
:1037200039E0944234D05B1A126891688B42F8D821
:10373000A36091682260C91A536863601C604FF0EF
:10374000FF33C2E90141B361BEE71848FEF798FDB7
:10375000EFF309834FF08072203BDA6183F309882D
:10376000114A1168D2688968926891428CBF104AE8
:10377000104A9A61BDE8F087BC4205D0121AF06188
:103780005119A160FFF79CF8002383F3118887E7A4
:103790000948FEF775FD5B1A20465A19FFF748F8ED
:1037A000F2E700BF00ED00E0C0050024A85A0008C1
:1037B000E3030008E6030008985A00080000000030
:1037C0001F48C26808B51369D1680B40D9B2DB073E
:1037D0006FEA0101116107D50378042B22D04368F9
:1037E0005B680BB116489847302383F31188154B5B
:1037F0005B6813F4006302D183F3118808BDEFF313
:1038000009834FF08072203BDA6183F309880E4A06
:103810001168D2688968926891428CBF0B4A0C4A41
:103820009A6108BD00230221017013601361D368FF
:1038300023F0FF03D36043685B68002BD2D1D3E74A
:10384000F004002400ED00E0C0050024E3030008BC
:10385000E603000800000000000000000000000077
:1038600008B5144B14481968426801F00E015960FC
:103870000AB180689047302383F311880F4B5B684F
:1038800013F4006302D183F3118808BDEFF30983B9
:103890004FF08072203BDA6183F30988084A11688F
:1038A000D2688968926891428CBF064A064A9A613A
:1038B00008BD00BF00540258AC04002400ED00E035
:1038C000C0050024E3030008E60300080000000030
:1038D000154B16481968C268090901F00E0110B5A8
:1038E0000C015C600AB100699047302383F31188B2
:1038F0000F4B5B6813F4006302D183F3118810BD92
:10390000EFF309834FF08072203BDA6183F309887B
:10391000084A1168D2688968926891428CBF064A49
:10392000064A9A6110BD00BF00540258AC0400243E
:1039300000ED00E0C0050024E3030008E6030008F2
:10394000154B164819684269090A01F00E0110B5B5
:103950000C025C600AB180699047302383F31188C0
:103960000F4B5B6813F4006302D183F3118810BD21
:10397000EFF309834FF08072203BDA6183F309880B
:10398000084A1168D2688968926891428CBF064AD9
:10399000064A9A6110BD00BF00540258AC040024CE
:1039A00000ED00E0C0050024E3030008E603000882
:1039B000154B16481968C269090B01F00E0110B5C4
:1039C0000C035C600AB1006A9047302383F31188CE
:1039D0000F4B5B6813F4006302D183F3118810BDB1
:1039E000EFF309834FF08072203BDA6183F309889B
:1039F000084A1168D2688968926891428CBF064A69
:103A0000064A9A6110BD00BF00540258AC0400245D
:103A100000ED00E0C0050024E3030008E603000811
:103A2000154B16481968426A090C01F00E0110B5D1
:103A30000C045C600AB1806A9047302383F31188DC
:103A40000F4B5B6813F4006302D183F3118810BD40
:103A5000EFF309834FF08072203BDA6183F309882A
:103A6000084A1168D2688968926891428CBF064AF8
:103A7000064A9A6110BD00BF00540258AC040024ED
:103A800000ED00E0C0050024E3030008E6030008A1
:103A9000154B16481968C26A090D01F00E0110B5E0
:103AA0000C055C600AB1006B9047302383F31188EA
:103AB0000F4B5B6813F4006302D183F3118810BDD0
:103AC000EFF309834FF08072203BDA6183F30988BA
:103AD000084A1168D2688968926891428CBF064A88
:103AE000064A9A6110BD00BF00540258AC0400247D
:103AF00000ED00E0C0050024E3030008E603000831
:103B0000154B16481968426B090E01F00E0110B5ED
:103B10000C065C600AB1806B9047302383F31188F8
:103B20000F4B5B6813F4006302D183F3118810BD5F
:103B3000EFF309834FF08072203BDA6183F3098849
:103B4000084A1168D2688968926891428CBF064A17
:103B5000064A9A6110BD00BF00540258AC0400240C
:103B600000ED00E0C0050024E3030008E6030008C0
:103B7000154B16481968C26B090F01F00E0110B5FC
:103B80000C075C600AB1006C9047302383F3118806
:103B90000F4B5B6813F4006302D183F3118810BDEF
:103BA000EFF309834FF08072203BDA6183F30988D9
:103BB000084A1168D2688968926891428CBF064AA7
:103BC000064A9A6110BD00BF00540258AC0400249C
:103BD00000ED00E0C0050024E3030008E603000850
:103BE00008B5144B14481968426801F03D0199600A
:103BF0000AB180689047302383F311880F4B5B68CC
:103C000013F4006302D183F3118808BDEFF3098335
:103C10004FF08072203BDA6183F30988084A11680B
:103C2000D2688968926891428CBF064A064A9A61B6
:103C300008BD00BF000002402804002400ED00E0A1
:103C4000C0050024E3030008E603000800000000AC
:103C5000154B16481968C268890901F03D0110B575
:103C60008C019C600AB100699047302383F311886E
:103C70000F4B5B6813F4006302D183F3118810BD0E
:103C8000EFF309834FF08072203BDA6183F30988F8
:103C9000084A1168D2688968926891428CBF064AC6
:103CA000064A9A6110BD00BF0000024028040024AB
:103CB00000ED00E0C0050024E3030008E60300086F
:103CC000154B164819684269090C01F03D0110B501
:103CD0000C049C600AB180699047302383F31188FB
:103CE0000F4B5B6813F4006302D183F3118810BD9E
:103CF000EFF309834FF08072203BDA6183F3098888
:103D0000084A1168D2688968926891428CBF064A55
:103D1000064A9A6110BD00BF00000240280400243A
:103D200000ED00E0C0050024E3030008E6030008FE
:103D3000154B16481968C269890D01F03D0110B58F
:103D40008C059C600AB1006A9047302383F3118888
:103D50000F4B5B6813F4006302D183F3118810BD2D
:103D6000EFF309834FF08072203BDA6183F3098817
:103D7000084A1168D2688968926891428CBF064AE5
:103D8000064A9A6110BD00BF0000024028040024CA
:103D900000ED00E0C0050024E3030008E60300088E
:103DA00008B5144B14485968426A01F03D01D960C6
:103DB0000AB1806A9047302383F311880F4B5B6808
:103DC00013F4006302D183F3118808BDEFF3098374
:103DD0004FF08072203BDA6183F30988084A11684A
:103DE000D2688968926891428CBF064A064A9A61F5
:103DF00008BD00BF000002402804002400ED00E0E0
:103E0000C0050024E3030008E603000800000000EA
:103E1000154B16485968C26A890901F03D0110B571
:103E20008C01DC600AB1006B9047302383F311886A
:103E30000F4B5B6813F4006302D183F3118810BD4C
:103E4000EFF309834FF08072203BDA6183F3098836
:103E5000084A1168D2688968926891428CBF064A04
:103E6000064A9A6110BD00BF0000024028040024E9
:103E700000ED00E0C0050024E3030008E6030008AD
:103E8000154B16485968426B090C01F03D0110B5FD
:103E90000C04DC600AB1806B9047302383F31188F7
:103EA0000F4B5B6813F4006302D183F3118810BDDC
:103EB000EFF309834FF08072203BDA6183F30988C6
:103EC000084A1168D2688968926891428CBF064A94
:103ED000064A9A6110BD00BF000002402804002479
:103EE00000ED00E0C0050024E3030008E60300083D
:103EF000154B16485968C26B890D01F03D0110B58C
:103F00008C05DC600AB1006C9047302383F3118884
:103F10000F4B5B6813F4006302D183F3118810BD6B
:103F2000EFF309834FF08072203BDA6183F3098855
:103F3000084A1168D2688968926891428CBF064A23
:103F4000064A9A6110BD00BF000002402804002408
:103F500000ED00E0C0050024E3030008E6030008CC
:103F600008B5144B14481968426C01F03D01996082
:103F70000AB1806C9047302383F311880F4B5B6844
:103F800013F4006302D183F3118808BDEFF30983B2
:103F90004FF08072203BDA6183F30988084A116888
:103FA000D2688968926891428CBF064A064A9A6133
:103FB00008BD00BF000402402804002400ED00E01A
:103FC000C0050024E3030008E60300080000000029
:103FD000154B16481968C26C890901F03D0110B5EE
:103FE0008C019C600AB1006D9047302383F31188E7
:103FF0000F4B5B6813F4006302D183F3118810BD8B
:10400000EFF309834FF08072203BDA6183F3098874
:10401000084A1168D2688968926891428CBF064A42
:10402000064A9A6110BD00BF000402402804002423
:1040300000ED00E0C0050024E3030008E6030008EB
:10404000154B16481968426D090C01F03D0110B579
:104050000C049C600AB1806D9047302383F3118873
:104060000F4B5B6813F4006302D183F3118810BD1A
:10407000EFF309834FF08072203BDA6183F3098804
:10408000084A1168D2688968926891428CBF064AD2
:10409000064A9A6110BD00BF0004024028040024B3
:1040A00000ED00E0C0050024E3030008E60300087B
:1040B000154B16481968C26D890D01F03D0110B508
:1040C0008C059C600AB1006E9047302383F3118801
:1040D0000F4B5B6813F4006302D183F3118810BDAA
:1040E000EFF309834FF08072203BDA6183F3098894
:1040F000084A1168D2688968926891428CBF064A62
:10410000064A9A6110BD00BF000402402804002442
:1041100000ED00E0C0050024E3030008E60300080A
:1041200008B5144B14485968426E01F03D01D9603E
:104130000AB1806E9047302383F311880F4B5B6880
:1041400013F4006302D183F3118808BDEFF30983F0
:104150004FF08072203BDA6183F30988084A1168C6
:10416000D2688968926891428CBF064A064A9A6171
:1041700008BD00BF000402402804002400ED00E058
:10418000C0050024E3030008E60300080000000067
:10419000154B16485968C26E890901F03D0110B5EA
:1041A0008C01DC600AB1006F9047302383F31188E3
:1041B0000F4B5B6813F4006302D183F3118810BDC9
:1041C000EFF309834FF08072203BDA6183F30988B3
:1041D000084A1168D2688968926891428CBF064A81
:1041E000064A9A6110BD00BF000402402804002462
:1041F00000ED00E0C0050024E3030008E60300082A
:10420000154B16485968426F090C01F03D0110B575
:104210000C04DC600AB1806F9047302383F311886F
:104220000F4B5B6813F4006302D183F3118810BD58
:10423000EFF309834FF08072203BDA6183F3098842
:10424000084A1168D2688968926891428CBF064A10
:10425000064A9A6110BD00BF0004024028040024F1
:1042600000ED00E0C0050024E3030008E6030008B9
:10427000154B16485968C26F890D01F03D0110B504
:104280008C05DC6012B1D0F880009047302383F3B6
:1042900011880F4B5B6813F4006302D183F311881C
:1042A00010BDEFF309834FF08072203BDA6183F396
:1042B0000988084A1168D2688968926891428CBF5F
:1042C000054A064A9A6110BD0004024028040024F1
:1042D00000ED00E0C0050024E3030008E603000849
:1042E00010B5114CE269536911690B4093615B068B
:1042F00003D4BDE81040FDF71BBF2046FEF7C8F809
:1043000063689B680BB120469847302383F311887C
:1043100000210648FEF7ACF9002383F31188BDE8BD
:104320001040FDF705BF00BFEC030024F403002498
:1043300010B5114CE269536911690B4093615B063A
:1043400003D4BDE81040FDF7F3BE2046FEF7A0F809
:1043500063689B680BB120469847302383F311882C
:1043600000210648FEF784F9002383F31188BDE895
:104370001040FDF7DDBE00BFB0030024B8030024E9
:10438000A84A0023A8494FF6FF7CD2F888002DE9FF
:10439000F04140F2FF74A54F4FF0553E4FF0040836
:1043A0002043A34EA34DC2F88800D2F888006FF3D3
:1043B0000A00C2F88800D2F88820086C9E4A204380
:1043C0000864886E20439D4C8866886E9C485360C4
:1043D0009460D0609B48C2F814C010629A489B4C0D
:1043E00050629B4810609B48C2F80434C2F808042D
:1043F00000F1156000F5AA2000F29140C2F80C040B
:104400004BF6FE70C2F814044FF43000C2F82034AA
:10441000C2F824049048C2F8000440F60C70C2F8B8
:10442000043802F5006290608C48D0608C48C2F875
:1044300014C0106240F60820536210604FF4806090
:10444000C2F804044FF47020C2F808048548C2F88A
:104450000C047720C2F814C4C2F82034C2F8240433
:104460004FF4D010C2F800040C20C2F80438C2F88F
:1044700008087D48C2F80C084FF6FD70C2F8140811
:10448000C2F82038C2F82438C2F8008802F5005279
:104490007B60BB60C7F80CE0C7F814C03B627B626E
:1044A0003B604FF04C677360B76007F188476F4817
:1044B00007F1551707F5A857F7606D4FC6F814C0F8
:1044C000336277624FF0086737600F266B60AE602B
:1044D000684EEE60C5F814C02B626B622B6063609F
:1044E000A360C4F80CE0C4F814C0236263622360C4
:1044F00043608360C0F80CE0C0F814C003624362FC
:10450000036053609360C2F80CE0C2F814C01362F9
:104510005362136002F500524B6D43F002034B658A
:10452000CB6F43F00203CB67CB6FC2F80C805368AC
:104530009B04FCD5504801235049002410604FF4DF
:1045400040409360D16014614D4990614D4ACB6207
:1045500093699F04FCD51368324943F48073136058
:104560000B6F03F44073B3F5807F04D04FF48032B7
:1045700000230A670B672B4A136F43F01903136775
:10458000136F9E07FCD51368264943F0010313609F
:104590000B685D07FCD50023224A0B61136913F0F9
:1045A0003803FBD101204FF080414FF000541060E0
:1045B000516035483549D4605367D0621161136842
:1045C000184843F4A023136003689C03FCD50368D8
:1045D000144943F4805303600B689804FCD50B68BE
:1045E000104A43F080030B601368D905FCD5516F66
:1045F0000C4B41F0010151675A6F9207FCD5002224
:10460000234824499862244C5A6324481963244956
:10461000DA639C635A641864D9621968014A41F0EC
:10462000A8513FE0004402580045025800140258C7
:1046300000180258001C0258000002583CC0FFFF3E
:1046400051550040B00B00B00AAA0A0000200258E1
:104650002880AEAAC300003C8100001851505501CB
:10466000B000BB00555540555155555500240258D2
:1046700000B0B0005055555500C000F004000001D6
:1046800000040058004802580000FF01008810088C
:1046900042404000DF0313078F4F07078F0F0707C4
:1046A0005505FF011960136803F02853B3F1285F23
:1046B000F9D148244FF488614020002394614FF4DD
:1046C0008014D1614FF0005110623420D164194937
:1046D00013655465936508600B6803F00F03042BA2
:1046E000FAD1154A136943F003031361136903F008
:1046F0003803182BFAD1114BDA6B42F00052DA630F
:104700005A6E42F000525A665A6EDA6B42F080429C
:10471000DA635A6E42F080425A665A6EDA6B42F0A1
:104720000042DA635A6E42F000425A665B6EBDE8A0
:10473000F08100BF0020005200440258004502589A
:10474000124B01221868D96810B5046863600277BB
:104750000A7F1C60D860AAB1A2F10F02B2FA82F2FD
:1047600052097AB90B698C680A771B689A68A24269
:10477000FBD85A68BDE81040C1E9003211605960A9
:10478000FBF71EBE0248FDF77BFD00BFC0050024FD
:10479000F8590008000000000000000000000000C0
:1047A00008B5302383F31188194BDB6803F1380116
:1047B0009A6B5863914207D19A7FF2B10F20FEF7AE
:1047C00087F91448FDF75CFD104612689A63047F70
:1047D000DCB1A4F10F056C426C41B4B90477866872
:1047E00004692468A568B542FBD265688A42046002
:1047F000456028606060DFD0E6E7DA6A002ADDD134
:10480000D3E9093213605A60D8E70348FDF738FD51
:10481000C0050024EC590008305A000800000000D0
:10482000EFF30983203383F30988002383F311888E
:10483000704700BF00000000000000000000000002
:10484000D84B00224FF0FF30D74CD3F88010D74D13
:1048500061F000412DE9804889B0C3F88010D3F899
:10486000801001F00041C3F88010D3F88010D3F815
:104870008410C3F88400D3F88410C3F88420D3F8DC
:104880008410D96F2143D967DC6FC9492C40DC679C
:10489000DC6FD3F888402143C64CC3F88810D3F8A6
:1048A0008810C1F30A01C3F88810C349D3F88850AF
:1048B000D3F89050C3F89000D3F89050C3F89020EC
:1048C000D3F89050D3F89450C3F89400D3F8945090
:1048D000C3F89420D3F89450D3F89850C3F89800B4
:1048E000D3F89850C3F89820D3F89850D3F88C5048
:1048F000C3F88C00D3F88C50C3F88C20D3F88C50BC
:10490000D3F89C50C3F89C00D3F89C00C3F89C20BB
:10491000D3F89C302346226040344868143102604A
:104920005A6043F8082FA342F7D1A44900234FF05F
:10493000FF301F464860A24941F8042BA14A52F8B3
:104940002320176041F813700433402BF6D19E4AA0
:104950004FF0FF399D484FF0010A94469C4B9D4E05
:10496000E0460CF1180CC3F80890C3F80C90C3F89B
:104970000894C3F80C94984B1762D762974C9849E7
:104980002546DFF860E2DFF860B2C8E906CC00F146
:10499000180C4FF08058C0E906CC6FF06F0CC2E9DC
:1049A0000477C0E9047783F87AC34FF0806C8F4AAC
:1049B000C3F88CC1C3F80CC04FF0700C83F81CC353
:1049C000C3F88081C3F800806FF03F0883F836C3D6
:1049D0004FF4800CC3F884C1C3F804C04FF0800CBE
:1049E00083F82783C3F884C1C3F804C04FF4001CC4
:1049F00083F83583DFF8D081C3F884C1C3F804C0DD
:104A0000C44688F800A0DFF8E88180F800A0CCF860
:104A10002880B446DFF8DC8107624CF8048BC6F8C6
:104A200004C006F10C0C776145F8048B6560DFF873
:104A3000C881C76286F808A0366588F800A0C8F863
:104A4000047084F808A0C6E903CCDFF8B0C1C6F84A
:104A500018C0C6E908CC0CF1100CC6F81CC006F151
:104A6000300CC6E90CCC4FF0100CC6F838C0DFF89B
:104A700090C1C6F83CC0C6E911CC0CF1100CC6F8C8
:104A800040C0DFF880C1C6F858C004F10C0C654680
:104A9000C4F80CC0DFF870C1C0F828C04FF0100C8B
:104AA0005A48C8F80C005A48F0645A48706555488E
:104AB000C6E90A7625616FF05F06A06541F20A0536
:104AC0005548676181F800A0C4F838C0A06183F838
:104AD00023634F6181F82070C4F83CE02465C4E989
:104AE00008006044E06104F13000C4E90C000EEB02
:104AF0000C004FF0080C206401F10C00C1E9030028
:104B00004648C1E90177C1E90977C4E90A74C4E9F3
:104B100011EEC3F884C1E0644148606500F560406F
:104B2000C8614048C862303008634FF48001C3F860
:104B300004C082F800A083F85663C3F88811996016
:104B40004FF08041DBF84830576143EA0A0382F8AE
:104B500020A03548354EC2E90177C2E90977CBF884
:104B60004830DBF8703043EA0A03CBF87030DBF8EA
:104B7000703002F10C03C2E90333C36B43EA0A034A
:104B8000C36300202A4BB760D36141F21803C2E926
:104B90000B5345F6BF5304258B624B46C1F82C904E
:104BA00048E000BF00440258FFEFFF7F0010008084
:104BB00000F8FFFFAC0400243857000800540258E6
:104BC00028040024745800086C030024AC0100245D
:104BD000000002406005002400E100E00005002420
:104BE000EC0300240001002400450258B003002417
:104BF000F857000818580008F00400243001002479
:104C000020010024000E2707D8570008001000409C
:104C100061220008004800401001002471220008B1
:104C200000500040160001000010005CA4030024A6
:104C3000001400588F614F63CF604F60C1F814A01B
:104C4000C1F800A0002186F800A003970597CDE9E0
:104C5000060102A80293FDF72BFBFDF731FB013D96
:104C6000029BF6D1C84AA846C84F4FF0300B02F15C
:104C70001401C748B360C74BD56157609D605D6143
:104C8000DD62C2E90511C449C1E9007003F11001F8
:104C9000C01B04271961C14990601962996303F12F
:104CA0002401DF61596203F128015F63996203F116
:104CB0003C01D96303F14001196403F144015964D3
:104CC000B749C2E9035511601422B64D9A611C22FE
:104CD00075601A63C5F83880C3E90033B24B2B64A2
:104CE0008BF3118862B6B1494FF6FF0CC5F8088006
:104CF0004FF0200EC5F83C8005F1B809C86805F1F1
:104D0000440AAB4A00EA0C00AA4B4FF0020C0243E3
:104D10000520CA60D1F8FC2042F08072C1F8FC2066
:104D2000A54AC3F8B02F1A6842F001021A604FF08A
:104D3000E02381F81FE001224FF0030E81F822B03A
:104D4000C3F89C8DC3F8A08DC3F8A42DC3F8A88D1B
:104D5000C3F8ACCDC3F8B08DC3F8B4ED4FF0060E78
:104D6000C3F8B88DC3F89C7DC3F8A08DC3F8A40D1B
:104D7000C3F8A88DC3F8ACED4FF0070EC3F8B08DA3
:104D8000C3F8B4ED05F1680EC3F8B88DC1F894000E
:104D900005EB0B004B6A43F480334B6205F11003C3
:104DA0008021C5E904334FF0FF33AB614FF08043FE
:104DB00085F8B220A5F8B020EA64C5F89020C5F8BF
:104DC0001C80C5F820C0CDF80080C5F88C80C5F8DF
:104DD000A4506D65C5E936885B6AC5F89C100193DF
:104DE000C5F8E01005F1D001744BC5F8BC00AB6507
:104DF000C5F83090C5E9341103F58071E965704953
:104E0000C5F8A8106F49C5F8AC1005F1CC01C5F87C
:104E1000CC106D49C5F8B41005F19401E96005F1B5
:104E20007C01C5E93088C5E91C88E96705F180087F
:104E3000DDE9001085F86220644AC5F888106A66CA
:104E400003F1DC0286F800C02A65614AC3F8E0106D
:104E5000C3F8DC205F4AC5F8B8E0C3F8FC20C5F809
:104E600034E0A5F86010C5E90A0105EB0B00C5F8B0
:104E7000E410C5E91A09C5E92088C5E900AAC5E911
:104E8000115581F31188544840F202424FF4805189
:104E9000FDF776F9394640F2024200F58060FDF7F1
:104EA0006FF98BF31188237A5A1E012A00F2D181FF
:104EB000012B00F02081A26D4021484B1344484A49
:104EC000A2FB0323626D9B0CD3604FF0FF33516054
:104ED0000121916040F22D111160136284F85C3061
:104EE000022323722B68AB4240F0B681002383F388
:104EF00011883C494FF008083B480524FEF7B8F8F4
:104F00003A4801220821FDF73BF906460322102109
:104F10003027C146FDF734F903222021FDF730F98F
:104F2000A6F8189087F311884FF47A710820FDF7DE
:104F3000F7FD2B68AB4240F0F880002383F3118823
:104F4000A6F81A8087F311884FF47A710820FDF7CC
:104F5000E7FD2B68AB4240F0DF80002383F311882C
:104F6000013C14F0FF04DBD1214D4FF08A4ADFF8F9
:104F700084B00026204F0FF20809D9E900893DE0EE
:104F8000182D4454FB21194040010024A806002498
:104F900000000824640100249C030024112300085D
:104FA000D1270008C00500244058000800ED00E0AB
:104FB0000003FA05001000E055CEACC50000002447
:104FC0000004002000080020A4560008AC56000889
:104FD000A1220008D10300080008025820A1070000
:104FE00083DE1B43B456000800050024000002586D
:104FF000D801002400E0FF4400005940204601345D
:10500000FCF7B4FC42464B46FCF71AFD3B463246E1
:10501000FCF740FEFCF726FFFBF7E8F95946FCF7E2
:10502000F5F85146FCF7ACF9FCF76CFF002380B2B1
:10503000642C60F30F0360F31F4345F8043FDDD198
:10504000302383F311888C4B1B785A1E012A00F2FF
:105050000C818A4A012B88490A6100F0CC80022326
:10506000854D00242B70FDF783F9854A8549906CA6
:10507000854B40F010009064106F40F010001067F6
:10508000126F40F2AF428C62CA6220227F484A60AF
:1050900001220A6041F21F021C6019680A431A606B
:1050A0007B4A19680A437B491A604FF4FA627A4BCB
:1050B000FDF7DEFF302383F311882B781A1F012AB6
:1050C00002D9022B40F0D4806B4A744B946A9360EF
:1050D0006423D360724B53602269122A16D8DFE82A
:1050E00002F02B2B2B2B2B2B2B2B2B2B2B2B2B2B74
:1050F0002B2BABA7A900624B9A6C42F480129A64E6
:105100001A6F42F480121A671B6FD4E600235A4AC2
:105110006448D362FDF7B4F8EA689B6892689A42E3
:10512000BFF41BAF6048FDF7ABF8EA689B68926874
:105130009A42BFF402AFF5E700925C4B0120009D5C
:10514000196802E001359542E0D800FA05F30B42F8
:10515000F8D1564819432E4600EBC5020160544869
:10516000D9B2A56950604448906032463001514E32
:1051700006EB0216002961D0414A13F47F4F916B70
:1051800041F001019163116E41F001011166126E4F
:1051900054D1484B19580B6823F01F030B600A6861
:1051A00012F00102FBD1434B2D01434F0344EDB2FA
:1051B000987B93F80CE0D3F804C03D2303FA0EF378
:1051C000CCF8003021230A6042094B613B1800F003
:1051D0001F0083F800530123E169834007EB82003D
:1051E000C0F8803147F82230B368234A2D48D66290
:1051F0001960FDF745F8224A4FF400648D6A916CFE
:1052000041F000519164116F41F000511167126F2C
:105210002A68D5E902016D688340D06B0840D063ED
:10522000106801400B4342F8083B42F8254016E75E
:10523000072282E7072300930F227EE7104B9A6B29
:1052400042F002029A631A6E42F002021A661B6E64
:105250009FE71A48FDF714F8EA689B6892689A423B
:10526000BFF444AE1648FDF70BF81648FDF708F8F2
:105270001548FDF705F800BF6C030024C05900086D
:105280000045025800100040007400400005002452
:1052900000001F10DC560008400D0300DC01002454
:1052A000B059000874590008A459000828040024C3
:1052B000B12600087458000800E100E060580008BA
:0C52C00054580008685800089059000875
:1052CC00000FC93F000F494000CB9640000FC9406A
:1052DC000053FB4000CB164100ED2F41000F49411C
:1052EC000031624100537B41003A8A4100CB964128
:1052FC00005CA34100EDAF41007EBC41000FC941F1
:10530C0000A0D5410031E24100C2EE410053FB4107
:10531C0000F20342003A0A420083104200CB1642CC
:10532C0000141D42005C234200A5294200ED2F42CF
:10533C0000363642007E3C4200C74242000F4942D2
:10534C00A2000000F9000000830000006E000000C5
:10535C004E00000044000000150000002900000071
:10536C00FC0000002700000057000000D1000000E6
:10537C00F500000034000000DD000000C00000005B
:10538C00DB000000620000009500000099000000A6
:10539C003C000000430000009000000041000000B1
:1053AC00FE0000005100000063000000AB00000094
:1053BC00DE000000BB000000C50000006100000022
:1053CC00B7000000240000006E0000003A0000004E
:1053DC00420000004D000000D2000000E000000080
:1053EC0006000000490000002E000000EA0000004A
:1053FC0009000000D1000000920000001C00000019
:10540C00FE0000001D000000EB0000001C0000006E
:10541C00B100000029000000A70000003E000000C1
:10542C00E80000008200000035000000F5000000DC
:10543C002E000000BB0000004400000084000000AF
:10544C00E90000009C000000700000002600000035
:10545C00B40000005F0000007E000000410000006E
:10546C003900000091000000D60000003900000057
:10547C00830000005300000039000000F40000001D
:10548C009C000000840000005F0000008B00000006
:10549C00BD000000F9000000280000003B000000E7
:1054AC001F000000F800000097000000FF00000043
:1054BC00DE00000005000000980000000F00000056
:1054CC00EF0000002F000000110000008B00000016
:1054DC005A0000000A0000006D0000001F000000D0
:1054EC006D000000360000007E000000CF000000C0
:1054FC0027000000CB00000009000000B7000000EE
:10550C004F000000460000003F0000006600000055
:10551C009E0000005F000000EA0000002D0000006B
:10552C007500000027000000BA000000C700000052
:10553C00EB000000E5000000F10000007B00000023
:10554C003D0000000700000039000000F7000000DB
:10555C008A0000005200000092000000EA000000E7
:10556C006B000000FB0000005F000000B1000000B9
:10557C001F0000008D0000005D000000080000000E
:10558C005600000003000000300000004600000040
:10559C00FC0000007B0000006B000000AB00000072
:1055AC00F0000000CF000000BC0000002000000054
:1055BC009A000000F4000000360000001D000000FE
:1055CC00A9000000E3000000910000006100000051
:1055DC005E000000E60000001B0000000800000058
:1055EC006500000099000000850000005F000000CD
:1055FC0014000000A0000000680000004000000043
:10560C008D000000FF000000D800000080000000AA
:10561C004D00000073000000270000003100000066
:10562C0006000000060000001500000056000000F7
:10563C00CA00000073000000A8000000C9000000B0
:10564C0060000000E20000007B000000C0000000D1
:10565C008C0000006B00000004000000070000003C
:10566C00090000000000C93F0000F0390000DA37E3
:10567C000000A2330000842E0000502B0000C22733
:10568C000000D0220000C41F0000C61B00004417FD
:10569C00286E756C6C2900006D61696E000000004D
:1056AC0069646C65000000005374617274206F664D
:1056BC0020444D412073696E6520776176652067C3
:1056CC00656E657261746F722E2E2E0D0A000000CD
:1056DC00436F6E6669677572656420256420487A2D
:1056EC002073696E6520776176652C205352203DBE
:1056FC002025640D0A0000006330000063685468C4
:10570C0064446F446571756575654E6578744900C0
:10571C007374536574416C61726D000073745374CF
:10572C00617274416C61726D00000000005402588B
:10573C000854025800000000005802580081000074
:10574C00005402581C54025804000000045802581B
:10575C000182000000540258305402580800000026
:10576C00085802580283000000540258445402584E
:10577C000C0000000C58025803840000005402581E
:10578C0058540258100000001058025804850000AC
:10579C00005402586C54025814000000145802585B
:1057AC00058600000054025880540258180000006E
:1057BC001858025806870000005402589454025896
:1057CC001C0000001C5802580788000000740040A0
:1057DC000300000010000000FFFF0000100000009C
:1057EC005E0502000A000000440000000074004046
:1057FC0000000000000000000000FFFF100000008F
:10580C005E0502000A0000004300000000000000DA
:10581C00612D0008812F000851300008312E00083E
:10582C0061300008412E0008712D0008912F0008EE
:10583C002121000804570008000400200008002063
:10584C0000000024000100246368537973556E6CCA
:10585C006F636B007364537461727400646163539F
:10586C0074617274000000001000024008000240D5
:10587C000008024000000B00280002400800024013
:10588C000408024006010C004000024008000240DF
:10589C000808024010020D005800024008000240A7
:1058AC000C08024016030E00700002400C0002406F
:1058BC001008024000040F00880002400C00024057
:1058CC001408024006051000A00002400C00024023
:1058DC001808024010061100B80002400C000240EB
:1058EC001C08024016072F00100402400804024056
:1058FC002008024000083800280402400804024036
:10590C002408024006093900400402400804024001
:10591C0028080240100A3A005804024008040240C9
:10592C002C080240160B3B00700402400C04024091
:10593C0030080240000C3C00880402400C04024079
:10594C0034080240060D4400A00402400C0402403E
:10595C0038080240100E4500B80402400C04024006
:10596C003C080240160F46006461635F6C6C645F18
:10597C0073746172745F636F6E76657273696F6E48
:10598C00000000006461635374617274436F6E763F
:10599C00657273696F6E49006368537973556E6CE9
:1059AC006F636B00020000000000000000000000AC
:1059BC0001000000000800000000000000000000D2
:1059CC00000000006368537973556E6C6F636B0055
:1059DC006368546864526573756D65490000000016
:1059EC006368546864457869745300005F5F73633F
:1059FC00685F72656164795F61686561640000006D
:105A0C00636853797347657449646C65546872654F
:105A1C00616458006368536368476F536C656570C5
:105A2C00530000005F5F7363685F72656164795F48
:105A3C00626568696E6400007263635265736574B5
:105A4C00415042320000000072636352657365740A
:105A5C0041504234000000007370695F6C6C645FED
:105A6C0073746F705F61626F727400007263634471
:105A7C00697361626C65414842310000646D615329
:105A8C00747265616D4672656549000063685F6498
:105A9C006C6973745F696E736572740063685654D5
:105AAC00446F5469636B49006368537973556E6C2A
:105ABC006F636B006368537973556E6C6F636B0027
:105ACC00545B0008A8060024A8060024A80600249D
