:020000040800F2
:1000000000040020B9030008BB030008BB0300087C
:10001000BB030008BB030008BB030008BB030008C8
:10002000BB030008BB030008BB030008F14800083D
:10003000BB030008BB030008BB030008BB030008A8
:10004000BB030008BB030008BB030008BB03000898
:10005000BB030008BB030008BB030008BB03000888
:10006000BB030008BB030008BB030008913C000869
:10007000013D0008713D0008E13D0008513E0008C7
:10008000C13E0008313F0008BB030008BB03000865
:10009000BB030008BB030008BB030008BB03000848
:1000A000BB030008BB030008BB030008BB03000838
:1000B00001370008BB030008BB030008BB030008AE
:1000C000BB030008BB030008BB0300089143000802
:1000D000BB030008BB030008BB030008413600084F
:1000E000BB030008BB030008BB030008BB030008F8
:1000F000BB030008BB030008BB030008A13F0008C6
:10010000BB030008BB030008BB030008BB030008D7
:10011000BB030008A136000871380008BB030008C3
:100120001140000881400008F140000861410008CA
:10013000D1410008BB030008BB030008BB03000853
:10014000BB030008BB030008BB030008BB03000897
:1001500041420008B142000821430008BB030008E7
:10016000BB030008BB030008BB030008BB03000877
:10017000BB030008BB030008BB030008BB03000867
:10018000BB030008BB030008BB030008BB03000857
:10019000BB030008BB03000801440008BB030008C0
:1001A000BB030008BB030008BB030008BB03000837
:1001B000BB030008BB030008BB030008BB03000827
:1001C000BB030008BB030008BB030008BB03000817
:1001D000BB030008BB030008BB030008BB03000807
:1001E000BB030008BB030008BB030008BB030008F7
:1001F000BB030008BB030008BB030008BB030008E7
:10020000BB030008BB030008BB030008BB030008D6
:10021000BB030008BB030008BB030008BB030008C6
:10022000BB030008BB030008BB030008BB030008B6
:10023000BB030008BB030008BB030008BB030008A6
:10024000BB0300081139000881390008F1390008A2
:10025000613A0008D13A0008413B0008B13B000870
:10026000213C0008BB030008BB030008BB030008D7
:10027000BB030008BB030008BB030008BB03000866
:10028000BB030008BB030008BB030008BB03000856
:10029000BB030008BB030008BB030008BB03000846
:1002A000BB030008BB030008BB030008BB03000836
:1002B000BB030008BB030008BB030008BB03000826
:1002C000BB030008BB030008BB030008BB03000816
:1002D000BB030008BB030008BB030008BB03000806
:1002E00072B6264880F30888254880F30988254897
:1002F00025490860022080F31488BFF36F8F03F054
:10030000F7F804F0B5F84FF0553020491B4A9142F8
:100310003CBF41F8040BFAE71D49194A91423CBF22
:1003200041F8040BFAE71B491B4A1C4B9A423EBF9B
:1003300051F8040B42F8040BF8E700201849194A59
:1003400091423CBF41F8040BFAE703F021F903F0B6
:100350000FF9154C154DAC4203DA54F8041B8847CD
:10036000F9E704F0D5FA124C124DAC4203DA54F816
:10037000041B8847F9E703F003B9000000040020DC
:10038000000800200000000808ED00E00000002048
:1003900000040020D45800080000002400000024BD
:1003A0000000002480050024E0020008E0020008AC
:1003B000E0020008E002000892E700F000F8FEE723
:1003C0002DE9F04FC1F80CD0D0F80CD0BDE8F08F7B
:1003D000002383F311882846A047002004F048FA40
:1003E000FEE704F025FA00DFFEE700001A4A20F0DD
:1003F000004393421AD900B5B3F1FF4F83B005D340
:10040000014600F0BBFF03B05DF804FB694600F055
:100410009BF800F003000128019912D0022809D0AE
:1004200098B90098012200F019F8ECE700210022A9
:1004300000F014B80098012200F010F800F100401C
:10044000E1E7009800F0DAFDDDE7009800F0D6FD66
:1004500000F10040D7E700BFD80F493F2DE9F8432E
:1004600020F00043B3F1485F04460E46904603D2A5
:1004700001F004F9002858D02146204600F0C6FEBD
:1004800005460146204600F0C1FE2949814628461E
:1004900000F0BCFE274900F071FF294600F0B6FECF
:1004A000254900F06DFF294600F0B0FE234900F019
:1004B00065FF294600F0AAFE214900F061FF0746CA
:1004C000B8F1000F22D04FF07C51304600F09EFE74
:1004D00039468046484600F099FE0146404600F005
:1004E0004DFF294600F092FE314600F047FF1549C6
:1004F0000546484600F08AFE0146284600F040FFC7
:100500000146204600F03AFFBDE8F8830146284640
:1005100000F07CFE0B4900F031FF494600F076FE0A
:10052000214600F02DFFBDE8F8832046BDE8F883A2
:10053000D3C92E2F342FD7321BEF3836010D503947
:100540008988083CABAA2A3E2DE9F04FA64A20F044
:100550000045954289B00C466FD9A44A954206469B
:100560001FD820F000450028A14925F00F0540F3D1
:10057000148100F003FF9F4B9D42064668D09E49C0
:1005800000F0FCFE01460546304600F0F7FE9A49B1
:1005900000F0F4FE256060600127384609B0BDE830
:1005A000F08F964A954263D9B5F1FF4F4AD2EF15C5
:1005B000863FA5EBC755284601F060F800F094FF90
:1005C00001462846059100F0D9FE4FF0874100F022
:1005D0001DFE804601F052F800F086FF05462946D0
:1005E0004046069500F0CAFE4FF0874100F00EFE2F
:1005F0000021079001F010F8002800F0CA800021C7
:10060000284601F009F8002814BF012302237C4A80
:1006100001920222009221463A4605A800F002F912
:10062000002E0746B9DAD4E9002302F1004203F1B3
:100630000043226063604742AFE7002220604A60C7
:100640000027AAE7014600F099FE60602060F7E706
:100650006C4900F093FE6C49064600F08FFE01469F
:100660000546304600F08AFE674900F087FE91E7B4
:1006700000F0D4F86549804600F0C8FD4FF07C5189
:1006800000F07EFE00F0FAFF074600F02DFF58490B
:10069000834600F0BBFD0146404600F06FFE564920
:1006A0008246584600F0B2FD1F2F81460146504653
:1006B00022DC574B7A1E53F8222026F0004323F009
:1006C000FF03934218D000F059FE80464146C4F81B
:1006D0000080504600F052FE494600F04FFE002ECA
:1006E0006060BFF65AAF08F1004800F10040C4F85E
:1006F000008060607F4250E700F040FEC0F3C753C7
:10070000C3EBD553EA15082B80460392DEDD3D4945
:10071000584600F07BFD80460146504600F02EFE14
:1007200005462946504600F029FE414600F026FEC7
:1007300035498046584600F069FD414600F01EFEEE
:1007400001468146284600F019FE039AC0F3C753BC
:10075000D21A192A80461EDD2E49584600F056FD51
:1007600001468046284600F009FE8246514628464A
:1007700000F004FE414600F001FE274905465846B8
:1007800000F044FD294600F0F9FD8146014650463F
:1007900099E703233BE7AA4698E700F0F1FD154BE4
:1007A0009D4206460FD0144900F0EAFD0146054679
:1007B000304600F0E3FD104900F0E2FD2560606086
:1007C0004FF0FF37E9E60F4900F0DAFD0E49064623
:1007D00000F0D6FD01460546304600F0CFFD0A493F
:1007E00000F0CEFDEAE700BFD80F493FE3CB16404B
:1007F000800FC93FD00FC93F43443537800F49436D
:10080000685200080044353708A3852E84F9223F3A
:10081000E851000800A3852E32318D2420F00040DD
:10082000704700BF2DE9F04FDDB09E469346C14BA7
:10083000669A099153F822A01BF1040F0EF1FF33C1
:1008400080460193C0F2B382BBF1030348BF0BF1B2
:100850000403DB1006930133DB000A930A9B069A1C
:10086000ABEB030303930EF1FF331AEB0307A2EB89
:1008700003051ED401372F4420AE3B46DDF89C9182
:10088000CDF800E0374600241E4608E059F8250060
:1008900000F02AFE0135B54247F8040B07D0002DC1
:1008A000F4DA01352046B54247F8040BF7D1DDF8FC
:1008B00000E0A8F10403BAF1000F0293B8BF4FEAB9
:1008C0008E0837DBDDF80490CDF810A020AA4FEA9F
:1008D0008E080AEB0E0102EB8E0248AECDE907E866
:1008E000CDF814B0009103EB8E059246CB46B0468E
:1008F000B9F1000FB8BF00240FDB029E5746002459
:1009000057F8041D56F8040F00F080FC01462046FD
:1009100000F036FDAE420446F2D1009B48F8044B8D
:100920000BF1010B9B450AF1040AE1D1DDE904ABAF
:10093000DDE907E8029BCDF810A003EB08050CAB3E
:1009400003EB8A03043B07930CAB03EB8A03D1460A
:10095000CDF82CB09A46CDF820E05CAB03EB8903D0
:10096000B9F1000F53F850BC4FEA8903009322DD20
:100970000DF5907808EB03060CAF4FF06E5158461A
:1009800000F044FC00F07AFE00F0AEFD4FF087412D
:10099000044600F03BFC0146584600F0EFFC00F036
:1009A0006DFE56F8041D47F8040B204600F0E8FCE5
:1009B00046458346E1D1039E5846314600F0C6FACB
:1009C0004FF07851044600F021FC00F0DBFB4FF0C3
:1009D000824100F01BFC0146204600F0CFFC04469B
:1009E00000F04CFE074600F07FFD0146204600F077
:1009F000C5FC002E804640F3828009F1FF3C0CAA22
:100A0000C6F1080352F82C10C6F1070041FA03F6AC
:100A100006FA03F3C91A41FA00F40CAB002C43F8B0
:100A20002C10374400F312810021404600F0F4FD01
:100A3000002800F0BA80049B99450CDD009B303300
:100A40006B44002153F8042D534541EA0201F9D1CA
:100A5000002940F01681049B0CAA013B52F8233078
:100A6000002B40F00A810799012351F8042D01332E
:100A7000002AFAD04B4409F101060699089ACDF8EC
:100A800014A001EB060808F18048679908F1FF38C7
:100A90004A4401EB8808DDF80090009320A901EB9F
:100AA000820748AA914458F8040F00F01DFD019BED
:100AB00047F8040B002B1ADBDDF808A0BB46002426
:100AC0005BF8041D5AF8040F00F0A0FB0146204615
:100AD00000F056FCAA450446F2D1009B49F8044FA9
:100AE0000136B342DFDADDF814A0994635E7009B02
:100AF00001360024B34249F8044FD4DAF3E740F05A
:100B00008D8009F1FF330CAA52F82340E411002C28
:100B10008ADDB9F1000F07F1010740F3EF810CAB5B
:100B2000002153F8046B002E74D0C6F5807643F88C
:100B3000046C06E0805500081A68C2F1FF0243F811
:100B4000042B01318945F7DC0126039B002B0FDDC7
:100B5000039B012B00F08680022B09D109F1FF31A4
:100B60000CAB0CAA53F8213003F03F0342F82130BC
:100B7000022C7FF459AF41464FF07E5000F0FEFB4F
:100B80008046002E3FF450AF03994FF07E5000F0A6
:100B9000DDF90146404600F0F1FB80460021404669
:100BA00000F03AFD00287FF446AFDDE90A3B4046FD
:100BB000A3EB0B010194DDF810A000F0C7F94FF092
:100BC0008741044600F046FD002800F079814FF08F
:100BD0006E51204600F01AFB00F050FD00F084FC3E
:100BE0004FF08741054600F011FB0146204600F01A
:100BF000C5FB00F043FD0CAB09F1010643F82900E9
:100C0000039B28460833039300F038FD0CAB43F8F0
:100C1000260050E00131894583DC96E74FF07C5196
:100C200000F018FD044600283FF4FEAEB9F1000FB5
:100C300007F10107C8BF02243FF771AF41464FF0EB
:100C40007E5000F09BFB02248046EDE6B9F1000FD8
:100C500007F10107D8BF00263FF761AF039B012BC7
:100C60007FF47AAF09F1FF310CAB0CAA53F82130B5
:100C700003F07F0342F821307AE709F10106334699
:100C8000FBE6039BDDF810A00194A3F1080209F133
:100C9000FF360CAB039253F8263063B909F1804359
:100CA000013B0CA901EB830353F8041D013E083AF4
:100CB0000029F9D0039203994FF07E5000F046F9D5
:100CC000002E8146C0F22481741C0CABA10003EB02
:100CD000840848AB4FF06E5503EB84048B4658F8FC
:100CE000040D00F001FC494600F090FA294644F852
:100CF000040D484600F08AFA0CAB98458146EED1C7
:100D0000ABF1080348AA34AC1344CDE90274B146F0
:100D100059461A464FF0000B0496C8465E462346D5
:100D200005919146BAF1000F71DB874F0093BB46E6
:100D3000002500244F4601E0B4420DDC57F8041FA3
:100D40005BF8040B00F062FA0146284600F018FB3D
:100D50000134A2450546EFDA009B43F8045B08F135
:100D6000FF38B8F1FF3F06F10106A9F10409D9D116
:100D7000669B022BDDE90274DDE9046149DC002B8E
:100D80001ADC0FD134AB5C18002054F8041D00F0BD
:100D9000F7FA34AB9C42F8D1019B002B40F0AB80BA
:100DA000099B186007F007005DB0BDE8F08F0823CD
:100DB0000A930023069351E534AB002503EB0109A8
:100DC000284659F8041D00F0DBFA34AB9945F8D1F8
:100DD00005462946349800F0D1FA019B002B40F0DB
:100DE0008280099B1D605EB1012554F8041F013506
:100DF00000F0C6FAAE42F8DA019B0BB100F10040F8
:100E0000099B586007F007005DB0BDE8F08F002532
:100E1000A3E7669B032BC5D1002E00F0868034AB80
:100E200003EB860A53F82640B500D3465BF8049CD2
:100E30002046494600F0A4FAA0460446214648460A
:100E400000F09CFA414600F09BFACBF800004BF80A
:100E5000044D34AB9B45E9D1012E66D034AB53F839
:100E600026401E1D5AF8049C2046494600F088FA88
:100E7000A04604462146484600F080FA414600F06C
:100E80007FFACAF800004AF8044D5645EAD134AB5F
:100E90002C1D1C4403F10808002054F8041D00F028
:100EA0006FFAA045F9D10199349A359B81B9099916
:100EB0000A604B60886007F007005DB0BDE8F08F06
:100EC000204600F0DBFB0CAB4E4643F82900F2E66F
:100ED000099902F1004203F1004300F100400A6069
:100EE0004B608860E7E7099B05F100451D60002E17
:100EF0007FF47AAF82E700F1004051E7022C7FF4E3
:100F000093AD01464FF07E5000F038FA80468BE5F5
:100F1000669B022B05DC002B09DC7FF443AF00202D
:100F20003AE7669B032B7FF43DAF0020BBE7019BB4
:100F300034981BB9099A0023136061E7099A4FF0AE
:100F4000004313605AE700BF8C55000810B50C46EB
:100F500030F0004103461DD0B1F1FF4F1BD210F01D
:100F6000FF4F02461BD14FF0984100F04FF9204A45
:100F7000944203462CDBC0F3C75102464CF250307A
:100F80008442A1F1190110DD1A49184661F31E00CF
:100F900000F03CF910BD014600F0F2F910BD4CF232
:100FA000503084424FEAD151EEDC2144FE29EBDC83
:100FB000002911DC11F1160F13DB01F1190022F0E9
:100FC000FF424FF04C5142EAC05000F01FF910BDF3
:100FD000094900F01BF910BD22F0FF4242EAC1505E
:100FE00010BD0549184661F31E0000F00FF910BD51
:100FF000B03CFFFFCAF249716042A20D2DE9F843EF
:1010000020F00046B6F1485F0546884649D200F018
:1010100035FB002800F09D802946284600F0F6F8B0
:101020004E49044600F0F2F84D4900F0A9F9214676
:1010300000F0ECF84B4900F0A1F9214600F0E6F889
:10104000494900F09DF9214600F0E0F8474900F0D9
:1010500095F9214600F0DAF8454900F091F921466A
:1010600000F0D4F807464FF07C51204600F0CEF84F
:1010700039460646204600F0C9F84146044628464F
:1010800000F0C4F80146204600F078F901463046E9
:1010900000F074F901464FF07E5000F06FF9BDE8A2
:1010A000F883014600F0B2F82C49044600F0AEF88F
:1010B0002B4900F065F9214600F0A8F8294900F015
:1010C0005DF9214600F0A2F8274900F059F92146C0
:1010D00000F09CF8254900F051F9214600F096F8FF
:1010E000234900F04DF9214600F090F8214B9E4233
:1010F0000746B8D9204B9E4227D806F17F464FF0CD
:101100007E50314600F03AF981464FF07C5120463E
:1011100000F07CF8314600F031F9394606462046A9
:1011200000F074F841460446284600F06FF8014686
:10113000204600F023F90146304600F01FF9014631
:10114000484600F01BF9BDE8F883DFF830900C4EFC
:10115000DBE74FF07E50BDE8F88300BF4ED747ADC8
:10116000F6740F317CF29334010DD037610BB63A2F
:10117000ABAA2A3D9999993E0000483F0000383FAC
:101180000000903E2DE9F041C0F3C7557F3D162D7C
:10119000044620F0004725DC002D804614DB184F64
:1011A0002F4138421BD0174900F0EAF8002100F027
:1011B0005BFAA0B1002C03DA4FF400032B419844F2
:1011C00028EA0700BDE8F0810E4900F0D9F80021B7
:1011D00000F04AFA18B1002C0CDB002000E0204699
:1011E000BDE8F081B7F1FF4FF9D3014600F0C8F830
:1011F000BDE8F08117B94FF00040F1E70248EFE792
:10120000FFFF7F00CAF24971000080BF4FF0FF0C62
:101210001CEAD0521EBF1CEAD15392EA0C0F93EA8B
:101220000C0F6FD01A4480EA010C400218BF5FEA2D
:1012300041211ED04FF0006343EA501043EA5111A0
:10124000A0FB01310CF00040B1F5000F3EBF49009A
:1012500041EAD3715B0040EA010062F17F02FD2A9E
:101260001DD8B3F1004F40EBC25008BF20F0010081
:10127000704790F0000F0CF0004C08BF49024CEA98
:10128000502040EA51207F3AC2BFD2F1FF0340EA2A
:10129000C250704740F400004FF00003013A5DDC9B
:1012A00012F1190FDCBF00F000407047C2F10002DC
:1012B000410021FA02F1C2F1200200FA02FC5FEAC9
:1012C000310040F1000053EA4C0308BF20EADC7013
:1012D000704792F0000F00F0004C02BF400010F485
:1012E000000F013AF9D040EA0C0093F0000F01F032
:1012F000004C02BF490011F4000F013BF9D041EA54
:101300000C018FE70CEAD15392EA0C0F18BF93EA55
:101310000C0F0AD030F0004C18BF31F0004CD8D17F
:1013200080EA010000F00040704790F0000F17BF06
:1013300090F0004F084691F0000F91F0004F14D04C
:1013400092EA0C0F01D142020FD193EA0C0F03D1A4
:101350004B0218BF084608D180EA010000F00040A7
:1013600040F0FE4040F40000704740F0FE4040F482
:101370004000704780F0004002E000BF81F0004173
:1013800042001FBF5FEA410392EA030F7FEA226C2B
:101390007FEA236C6AD04FEA1262D2EB1363C1BFBB
:1013A000D218414048404140B8BF5B42192B88BF2A
:1013B000704710F0004F40F4000020F07F4018BF4D
:1013C000404211F0004F41F4000121F07F4118BF6D
:1013D000494292EA030F3FD0A2F1010241FA03FC15
:1013E00010EB0C00C3F1200301FA03F100F00043FD
:1013F00002D5494260EB4000B0F5000F13D3B0F1C5
:10140000807F06D340084FEA310102F10102FE2A33
:1014100051D2B1F1004F40EBC25008BF20F00100A3
:1014200040EA03007047490040EB0000013A28BF42
:10143000B0F5000FEDD2B0FA80FCACF1080CB2EBC5
:101440000C0200FA0CF0AABF00EBC2505242184343
:10145000BCBFD0401843704792F0000F81F40001E8
:1014600006BF80F400000132013BB5E74FEA4103BB
:101470007FEA226C18BF7FEA236C21D092EA030F27
:1014800004D092F0000F08BF0846704790EA010FA1
:101490001CBF0020704712F07F4F04D1400028BFCE
:1014A00040F00040704712F100723CBF00F50000B0
:1014B000704700F0004343F0FE4040F400007047E6
:1014C0007FEA226216BF08467FEA23630146420292
:1014D00006BF5FEA412390EA010F40F480007047A5
:1014E0004FF0000304E000BF10F0004348BF40424B
:1014F0005FEA000C08BF704743F0964301464FF087
:1015000000001CE050EA010208BF70474FF00003E2
:101510000AE000BF50EA010208BF704711F0004323
:1015200002D5404261EB41015FEA010C02BF8446F3
:101530000146002043F0B64308BFA3F18053A3F552
:101540000003BCFA8CF2083AA3EBC25310DB01FA99
:1015500002FC634400FA02FCC2F12002BCF1004F1D
:1015600020FA02F243EB020008BF20F001007047AE
:1015700002F1200201FA02FCC2F1200250EA4C0002
:1015800021FA02F243EB020008BF20EADC70704748
:101590004FF0FF3C06E000BF4FF0010C02E000BF3F
:1015A0004FF0010C4DF804CD4FEA40024FEA4103E1
:1015B0007FEA226C18BF7FEA236C11D001B052EA97
:1015C000530C18BF90EA010F58BFB2EB030088BF5D
:1015D000C81738BF6FEAE17018BF40F001007047CC
:1015E0007FEA226C02D15FEA402C05D17FEA236CAE
:1015F000E4D15FEA412CE1D05DF8040B704700BFF5
:10160000844608466146FFE70FB5FFF7C9FF00288B
:1016100048BF10F1000F0FBD4DF808EDFFF7F4FFC4
:101620000CBF012000205DF808FB00BF4DF808ED5D
:10163000FFF7EAFF34BF012000205DF808FB00BF80
:101640004DF808EDFFF7E0FF94BF012000205DF8A2
:1016500008FB00BF4DF808EDFFF7D2FF94BF012053
:1016600000205DF808FB00BF4DF808EDFFF7C8FF4C
:1016700034BF012000205DF808FB00BF4FEA4002A4
:10168000B2F1FE4F0FD34FF09E03B3EB12620DD9B0
:101690004FEA002343F0004310F0004F23FA02F01A
:1016A00018BF404270474FF00000704712F1610FC1
:1016B00001D1420205D110F0004008BF6FF0004098
:1016C00070474FF00000704781F0004102E000BF1A
:1016D00083F0004330B54FEA41044FEA430594EAF2
:1016E000050F08BF90EA020F1FBF54EA000C55EA2D
:1016F000020C7FEA645C7FEA655C00F0E2804FEAFE
:101700005454D4EB5555B8BF6D420CDD2C4480EADF
:10171000020281EA030382EA000083EA010180EA0F
:10172000020281EA0303362D88BF30BD11F0004F5D
:101730004FEA01314FF4801C4CEA113102D0404293
:1017400061EB410113F0004F4FEA03334CEA1333CE
:1017500002D0524263EB430394EA050F00F0A780E6
:10176000A4F10104D5F1200E0DDB02FA0EFC22FAE1
:1017700005F2801841F1000103FA0EF2801843FAD5
:1017800005F359410EE0A5F120050EF1200E012AC6
:1017900003FA0EFC28BF4CF0020C43FA05F3C01804
:1017A00051EBE37101F0004507D54FF0000EDCF17D
:1017B000000C7EEB00006EEB0101B1F5801F1BD326
:1017C000B1F5001F0CD349085FEA30004FEA3C0C2A
:1017D00004F101044FEA445212F5800F80F09A8020
:1017E000BCF1004F08BF5FEA500C50F1000041EB24
:1017F000045141EA050130BD5FEA4C0C404141EB28
:101800000101013C28BFB1F5801FE9D291F0000F22
:1018100004BF01460020B1FA81F308BF2033A3F1D1
:101820000B03B3F120020CDA0C3208DD02F1140CC8
:10183000C2F10C0201FA0CF021FA02F10CE002F103
:101840001402D8BFC2F1200C01FA02F120FA0CFCFC
:10185000DCBF41EA0C019040E41AA2BF01EB045145
:10186000294330BD6FEA04041F3C1CDA0C340EDC43
:1018700004F11404C4F1200220FA04F001FA02F386
:1018800040EA030021FA04F345EA030130BDC4F144
:101890000C04C4F1200220FA02F001FA04F340EA39
:1018A0000300294630BD21FA04F0294630BD94F0EA
:1018B000000F83F4801306BF81F480110134013DD1
:1018C0004EE77FEA645C18BF7FEA655C29D094EA42
:1018D000050F08BF90EA020F05D054EA000C04BFC0
:1018E0001946104630BD91EA030F1EBF00210020AB
:1018F00030BD5FEA545C05D14000494128BF41F04A
:10190000004130BD14F580043CBF01F5801130BDAD
:1019100001F0004545F0FE4141F470014FF0000038
:1019200030BD7FEA645C1ABF194610467FEA655CE9
:101930001CBF0B46024650EA013406BF52EA03358B
:1019400091EA030F41F4002130BD00BF90F0000F79
:1019500004BF0021704730B54FF4806404F13204B5
:101960004FF000054FF0000150E700BF90F0000F6E
:1019700004BF0021704730B54FF4806404F1320495
:1019800010F0004548BF40424FF000013EE700BF65
:1019900042004FEAE2014FEA31014FEA02701FBFF5
:1019A00012F07F4393F07F4F81F06051704732F027
:1019B0007F4208BF704793F07F4F04BF41F400217E
:1019C000704730B54FF4607401F0004521F00041DC
:1019D0001CE700BF50EA010208BF704730B54FF066
:1019E00000050AE050EA010208BF704730B511F067
:1019F000004502D5404261EB41014FF4806404F19F
:101A000032045FEA915C3FF4D8AE4FF003025FEA24
:101A1000DC0C18BF03325FEADC0C18BF033202EBA8
:101A2000DC02C2F1200300FA03FC20FA02F001FA02
:101A300003FE40EA0E0021FA02F11444BDE600BFA5
:101A400070B54FF0FF0C4CF4E06C1CEA11541DBF54
:101A50001CEA135594EA0C0F95EA0C0F00F0DEF81F
:101A60002C4481EA030621EA4C5123EA4C5350EA04
:101A7000013518BF52EA033541F4801143F4801355
:101A800038D0A0FB02CE4FF00005E1FB02E506F0E6
:101A90000042E0FB03E54FF00006E1FB03569CF03B
:101AA000000F18BF4EF0010EA4F1FF04B6F5007F41
:101AB00064F5407404D25FEA4E0E6D4146EB0606B3
:101AC00042EAC62141EA55514FEAC52040EA5E503C
:101AD0004FEACE2EB4F1FD0C88BFBCF5E06F1ED8E6
:101AE000BEF1004F08BF5FEA500E50F1000041EB1D
:101AF000045170BD06F0004646EA010140EA0200CA
:101B000081EA0301B4EB5C04C2BFD4EB0C0541EAEB
:101B1000045170BD41F480114FF0000E013C00F300
:101B2000AB8014F1360FDEBF002001F0004170BD24
:101B3000C4F10004203C35DA0C341BDC04F114043D
:101B4000C4F1200500FA05F320FA04F001FA05F2C9
:101B500040EA020001F0004221F0004110EBD37096
:101B600021FA04F642EB06015EEA430E08BF20EAC2
:101B7000D37070BDC4F10C04C4F1200500FA04F365
:101B800020FA05F001FA04F240EA020001F00041F7
:101B900010EBD37041F100015EEA430E08BF20EA6A
:101BA000D37070BDC4F1200500FA05F24EEA020EB2
:101BB00020FA04F301FA05F243EA020321FA04F0E1
:101BC00001F0004121FA04F220EA020000EBD37098
:101BD0005EEA430E08BF20EAD37070BD94F0000F98
:101BE0000FD101F00046400041EB010111F4801FCC
:101BF00008BF013CF7D041EA060195F0000F18BF7D
:101C0000704703F00046520043EB030313F4801FB8
:101C100008BF013DF7D043EA0603704794EA0C0F72
:101C20000CEA135518BF95EA0C0F0CD050EA410688
:101C300018BF52EA4306D1D181EA030101F0004105
:101C40004FF0000070BD50EA410606BF104619462D
:101C500052EA430619D094EA0C0F02D150EA013639
:101C600013D195EA0C0F05D152EA03361CBF10467A
:101C700019460AD181EA030101F0004141F0FE4119
:101C800041F470014FF0000070BD41F0FE4141F49D
:101C9000780170BD70B54FF0FF0C4CF4E06C1CEA9D
:101CA00011541DBF1CEA135594EA0C0F95EA0C0F52
:101CB00000F0A7F8A4EB050481EA030E52EA03350D
:101CC0004FEA013100F088804FEA03334FF080552E
:101CD00045EA131343EA12634FEA022245EA11155B
:101CE00045EA10654FEA00260EF000419D4208BF0C
:101CF000964244F1FD0404F5407402D25B084FEAB9
:101D00003202B61A65EB03055B084FEA32024FF464
:101D100080104FF4002CB6EB020E75EB030E22BFC1
:101D2000B61A754640EA0C005B084FEA3202B6EB81
:101D3000020E75EB030E22BFB61A754640EA5C0030
:101D40005B084FEA3202B6EB020E75EB030E22BFC0
:101D5000B61A754640EA9C005B084FEA3202B6EBC1
:101D6000020E75EB030E22BFB61A754640EADC0080
:101D700055EA060E18D04FEA051545EA16754FEAE2
:101D800006164FEAC30343EA52734FEAC2025FEA00
:101D90001C1CC0D111F4801F0BD141EA00014FF08F
:101DA00000004FF0004CB6E711F4801F04BF014360
:101DB0000020B4F1FD0C88BFBCF5E06F3FF6AFAE7C
:101DC000B5EB030C04BFB6EB020C5FEA500C50F10C
:101DD000000041EB045170BD0EF0004E4EEA11318F
:101DE00014EB5C04C2BFD4EB0C0541EA045170BD96
:101DF00041F480114FF0000E013C90E645EA060EDA
:101E00008DE60CEA135594EA0C0F08BF95EA0C0F07
:101E10003FF43BAF94EA0C0F0AD150EA01347FF44F
:101E200034AF95EA0C0F7FF425AF104619462CE726
:101E300095EA0C0F06D152EA03353FF4FDAE104689
:101E4000194622E750EA410618BF52EA43067FF4DA
:101E5000C5AE50EA41047FF40DAF52EA43057FF46A
:101E6000EBAE12E74FEA4102B2F1E04324BFB3F513
:101E7000001CDCF1FE5C0DD901F0004C4FEAC00201
:101E80004CEA5070B2F1004F40EB830008BF20F0E5
:101E90000100704711F0804F21D113F13872BCBF9F
:101EA00001F00040704741F480114FEA5252C2F1F4
:101EB0001802C2F1200C10FA0CF320FA02F018BF3D
:101EC00040F001004FEAC1234FEAD32303FA0CFC90
:101ED00040EA0C0023FA02F34FEA4303CCE77FEA1F
:101EE000625307D150EA01331EBF4FF0FE4040F469
:101EF0004000704701F0004040F0FE4040F4000018
:101F0000704700BF42000ED2B2F1FE4F0BD34FF02C
:101F10009E03B3EB126209D44FEA002343F000435F
:101F200023FA02F070474FF00000704712F1610F82
:101F300001D1420202D14FF0FF3070474FF0000054
:101F4000704700BF830730B547D0541E002A3ED0EB
:101F5000CAB2034601E0013C39D303F8012B9D07C7
:101F6000F9D1032C2CD9CDB205EB05250F2C05EBAF
:101F7000054535D9A4F1100222F00F0C03F1100E23
:101F8000E6444FEA121C1A46C2E90055C2E902555E
:101F900010327245F8D10CF1010214F00C0F03EB72
:101FA000021204F00F0C13D0ACF1040323F003036E
:101FB0000433134442F8045B9342FBD10CF0030456
:101FC0002CB1C9B21C4403F8011BA342FBD130BDA4
:101FD00064461346002CF4D1F9E703461446C0E7E3
:101FE0001A46A446E0E700BF844641EA000313F026
:101FF00003036DD1403A41D351F8043B40F8043B10
:1020000051F8043B40F8043B51F8043B40F8043BD2
:1020100051F8043B40F8043B51F8043B40F8043BC2
:1020200051F8043B40F8043B51F8043B40F8043BB2
:1020300051F8043B40F8043B51F8043B40F8043BA2
:1020400051F8043B40F8043B51F8043B40F8043B92
:1020500051F8043B40F8043B51F8043B40F8043B82
:1020600051F8043B40F8043B51F8043B40F8043B72
:1020700051F8043B40F8043B403ABDD2303211D312
:1020800051F8043B40F8043B51F8043B40F8043B52
:1020900051F8043B40F8043B51F8043B40F8043B42
:1020A000103AEDD20C3205D351F8043B40F8043B12
:1020B000043AF9D2043208D0D2071CBF11F8013B10
:1020C00000F8013B01D30B8803806046704700BFD6
:1020D000082A13D38B078DD010F003038AD0C3F1E5
:1020E0000403D21ADB071CBF11F8013B00F8013BC7
:1020F00080D331F8023B20F8023B7BE7043AD9D386
:10210000013A11F8013B00F8013BF9D20B7803705A
:102110004B7843708B7883706046704700000000F6
:10212000012914BF6FF01300002070470000000069
:102130002DE9F047846A2369122B00F2D080DFE892
:1021400003F00A0A0A0A0A0A0A0A0A0A0A0A0A0A10
:102150000A0AB49AB0009E46634D4FF0010C2968FC
:1021600003E001339E45C0F0BA800CFA03F20A4244
:10217000F7D1114346685D4F296005EBC3055C4903
:10218000A8606960D1B21D01D0F80CC0D6F80080FB
:1021900007EB0313D4F818E0002970D1554A916B6E
:1021A00041F002019163116E41F002011166126E5D
:1021B00079590A6822F01F020A600A6812F00102C7
:1021C000FBD13D4408FB0CF74FEA0E1EDFF82881D7
:1021D00095F80EC095F80CA05FFA8EFED5F8049025
:1021E0003D2505FA0AF5C9F800504FEA5C150A606A
:1021F00021224A6108EB0C020CF01F0C82F800E36C
:10220000012202FA0CF208EB850CCCF8802148F888
:102210002520D0F810C0C362E2699B681A609CF860
:102220000430012B50D0022B43D013BB6369D4E997
:10223000005243F4205305F1080E0EEB82028A602F
:10224000826843F01E03CA604F60BCF808200B6030
:10225000F36842EA830241F203031343D4E9022004
:1022600093400A6842F001020A602A680240134360
:102270002B60BDE8F08700234FF0070E6CE71D4987
:1022800012F47F4FD1F8389049F00109C1F8389025
:10229000D1F8609049F00109C1F86090096E87D0CB
:1022A0007CE707234FF00F0E56E700234FF00F0E89
:1022B00052E7D4E900520137636905F1100E7F0837
:1022C0000EEB82028A60BBE7D4E90052636905F134
:1022D0000C0E43F420530EEB82028A60B0E7002319
:1022E0009A68C362FFDE00BF000300244C57000859
:1022F000512600080045025800E100E000000000FF
:10230000C16A0A68136823F01F0370B5136013686D
:1023100013F00103FBD10D7B3D224C684FF0010E01
:10232000AA4022608A7B234C02F01F0556092244F2
:102330000EFA05F504EB860CCCF88050CCF88051F1
:1023400082F800331C4A497B13680EFA01FE23EA27
:102350000E03D9B2136049B9184A916B21F00101FB
:102360009163116E21F001011166126E13F47F4F1B
:1023700009D1124B9A6B22F002029A631A6E22F074
:1023800002021A661B6E836A00221968C262026921
:102390000C68C86BD3E90256138934409289AB406C
:1023A0003040AA402343024343F00103CA630B6059
:1023B00070BD00BF00E100E00003002400450258AA
:1023C0002B4B984270B434D02A4B984225D000252C
:1023D000846A01692268E068D36BA66803EA000C8E
:1023E0008B89B34043EA0C03D3630B8943F00103A9
:1023F000B34016683040034313600B680979012924
:1024000029D0022920D031B99BB2002D2ED108321B
:10241000616842F8213070BC7047174B01259A6CF7
:1024200042F000529A641A6F42F000521A671B6F12
:10243000CEE7114B9A6C42F000529A641A6F42F048
:1024400000521A671B6FC2E79BB26DB91032616808
:1024500042F82130DFE79BB225B90C32616842F8BF
:102460002130D8E79361D6E7D361D4E75361D2E74F
:10247000D0020024A0020024004502580000000001
:102480002DE9F04702F00305D4094FF0000C4FF09E
:102490000108AE4603270F2601F001034908ABB33C
:1024A000D0F804A008FA0CF94FEA4C030CF007022C
:1024B0002AEA0909022D07FA03F34FEA8202C0F85B
:1024C0000490D0F8089029EA0309C0F80890D0F8E1
:1024D0000C9029EA03096FEA0303C0F80C9006FA8E
:1024E00002F904FA02F26FEA090914D0D0F800A048
:1024F000BCF1070F03EA0A0343EA0E0303601DD889
:10250000036A03EA090313430362A9B14FEA8E0E7B
:102510000CF1010CC0E7BCF1070F15D8D0F820A0D2
:102520000AEA090949EA020202620268134043EA20
:102530000E0303600029E9D1BDE8F087436A03EA8E
:10254000090313434362E0E7D0F824A00AEA09092B
:1025500049EA02024262E8E70000000000000000D1
:10256000024A136843F0C0031360704700480040FC
:10257000024A136843F0C0031360704700500040E4
:10258000FEE700BF000000000000000000000000A7
:10259000014B5B6883607047001000E000000000A2
:1025A0000E4A0F4B81685B6810B4946802691B1B6C
:1025B000C4685B1A41690134D218026141F100011B
:1025C000426841619342026888BF43609342C0E918
:1025D000023438BF036010BC704700BF1C020024E7
:1025E000001000E0000000000000000000000000FB
:1025F000302310B483F311880B4B49425C68201AD6
:1026000008401968821A8A4207D3944205D35A6057
:10261000002383F3118810BC70470020002383F34C
:10262000118810BC704700BF140200240000000095
:10263000064B49425A68101A08401968884203D369
:10264000824201D358607047002070471402002472
:1026500011F00C0F38B504462BD1CB0601F0200544
:1026600004D543685B68002B4DD0984705B3636879
:102670005B6833B104222046227098472378042BEC
:102680003BD0302383F31188636973B100211A6949
:102690009868616159631977126891688142FBD229
:1026A0005168C3E900210B605360002383F3118854
:1026B00038BDFFF725FE2046FFF722FE63689B68C2
:1026C0003BB1052200212046227098472378052B34
:1026D00016D000213023616083F311886369002BD9
:1026E000E3D04FF0FF3598681A69616119775D632F
:1026F000126891688142D3D3FAE703232370C0E7BD
:1027000002232370E5E7002DBBD138BD0000000097
:1027100038B5044690F82030806A616A002B54D0A6
:102720004268136823F00F0313600E23027A0068D7
:1027300003FA02F242604868026822F00F02026067
:10274000087A0A68834053603E4B9C425AD03E4B05
:102750009C4267D061680022E36940204D691A609D
:102760005A603A4A18614FF0FF302A40986142F4AB
:10277000404288699A604A780AB320F4C020D86041
:1027800040F201108A6818600AB120469047302351
:1027900083F31188A36873B100211A699868A16056
:1027A00059631977126891688142FBD25168C3E975
:1027B00000210B605360002383F3118838BD244A45
:1027C000024042F00152DA60DAE70268136823F04F
:1027D0001F0313601368DD07FCD4027B3D234068B0
:1027E00093400A680360136823F01F0313601368A3
:1027F000DB07FCD4087B3D234A6883401360114B00
:102800009C42A4D1134BD3F8982042F48052C3F8D1
:102810009820D3F8982022F48052C3F89820D3F857
:10282000983097E70B4BD3F89C2042F02002C3F876
:102830009C20D3F89C2022F02002C3F89C20D3F8DF
:102840009C3087E764020024280200241F3EFFFF1B
:10285000FFFFB9DF00440258000000000000000044
:10286000302383F311880B7F0C2B10D8DFE803F0A3
:10287000290F0F250B070F0B0F0F0F0F0B004A6BC4
:10288000936801339360D1E9003213605A600022EB
:102890000B69886810B44FF0FF340A774C631B68EB
:1028A0009A688242FBD25A6800200B604A6011602D
:1028B000596080F3118810BC70474B6B00221A607E
:1028C000E5E7002383F31188704700BF0000000094
:1028D0000368984239D0F0B40025DA680A43DA6018
:1028E00059B11A69114208D11B68984215D0DA68AB
:1028F0000A43DA601A691142F6D0D3E90124566C12
:1029000092F81CC03443BCF10A0F546407D0BCF1E8
:102910000B0F15D01B689842DFD1F0BC7047566B87
:102920003442F7D014699768556315772468A66810
:10293000BE42FBD26668C2E9004632606260E9E7E7
:10294000566B36EA0404E5D1ECE77047000000005E
:102950002DE9F041466D0446F5692A07356240F0DD
:10296000B180E80500F1A280AA0646D53027201DD7
:102970004FF0000828E06269591C0132216262614F
:102980001D70D4E907329A4201D3A369236204F18E
:102990000C01E368994212D01D681A69D3F808C087
:1029A000E5606960C3F8348083F81C801268916820
:1029B0006145FBD25168C3E900210B60536088F385
:1029C0001188F569A90618D587F31188726A94F8F9
:1029D0005C5063691540002B64D0D4E908329342FF
:1029E000C9D16269002AC6D04FF40061FFF770FFB9
:1029F00088F31188F569A906E6D437683B0640D507
:102A000029063ED54FF0300E002104EB0E0C26E0D7
:102A1000A26B5D1C206C0132A5648542A26393F811
:102A2000008001D3E36BA364236B9C4510D01A682C
:102A30009D6818692263C2F804C059631977006859
:102A40008268AA42FBD24268C3E900021360436075
:102A5000C6F8288081F31188F569280611D58EF310
:102A60001188D4E911239A42D2D1A26B002ACFD087
:102A70000821201DFFF72CFF27F08007002383F398
:102A800011887A060BD56B0609D5302383F311889C
:102A9000D4E911239A422BD0002383F311883760A5
:102AA000BDE8F0810421FFF713FF96E7302383F39D
:102AB00011884FF48061201DFFF70AFF002383F384
:102AC000118851E76901AB074FF0300301F49071B1
:102AD00048BF41F040016F0748BF41F0800183F3D8
:102AE00011880430FFF7F4FE002383F3118838E7E0
:102AF000A36B002BD0D01021201D27F04007FFF73B
:102B0000E7FEC9E700000000000000000000000030
:102B1000184BF0B403F11004D96102250026C0E976
:102B200001421C69046060601C6A18614FF08040BB
:102B3000A24238BF22468F1847630661C560456AC6
:102B4000A5EB010C624501D9F0BC70472646013661
:102B500031444163426A511BB14208D2B442F3D2BC
:102B6000DA6B1E6242F00102F0BCDA63704729465C
:102B70001546ECE798040024000000000000000067
:102B80002DE9F0414B1C5E4D86B00746EE684AD0F9
:102B9000A8465C4B4FF0804C0A4658F8100FCDE920
:102BA000033640454FF000030593DCF8241000F095
:102BB0009980EB698468CB1AD31828BF13469C42CE
:102BC00040D804D200681B1B84689C42FAD302934D
:102BD0006C4682680090D21A43680193C3F800D013
:102BE0004FF0FF33C0E90142AB612868012237771B
:102BF000314603685D6002772B60E860FDF7E0FB1B
:102C0000009B63B12A69A2423ED09A68DDE90110B7
:102C100002440B60C3E901124FF0FF33AB61706BEC
:102C200006B0BDE8F0812868012237773146036895
:102C30005D600277E8602B60FDF7C2FB706B06B049
:102C4000BDE8F0812C6AA24238BF224601EB020E99
:102C5000CCF834E0DCF824E0AEEB01018A42B6D8CF
:102C6000224601320EEB0201CCF83410DCF82410BD
:102C7000A1EB0E0E96453ED29442A8D22A62EA6B90
:102C800042F00102EA63A2E7002243452B61009271
:102C9000C3F804802BD09A684FF0804002990A4410
:102CA0009A60EB69416ACC1AA242B8D95B1A2C6AC5
:102CB0001344A34238BF2346CA184263426A511ADA
:102CC0009942ACD32146013153184363436A9A1A9F
:102CD0008A4212D28C42A2D2EB6B296243F00103EA
:102CE000EB639CE768466C46FFF712FF7DE74FF009
:102CF0008043DA6093E78E46B3E71A46E3E700BF06
:102D00009804002461280008000000000000000072
:102D10002DE9F04F85B01646D0F81C804FF03009F1
:102D2000019389F3118882B34646044692464FF0D8
:102D3000000B88460392A26852452DD2A1692769EB
:102D4000A5687F1AAF422DD833D23A464046FFF7E6
:102D50004BF9EA1BE16808EB07000292FFF744F920
:102D6000E168029A0A44A168491BA261A1600EB100
:102D70002046B0478BF31188AAEB050AA84489F3D3
:102D80001188BAF1000FD6D1039E3046002383F399
:102D9000118805B0BDE8F08FA169554627697F1AF3
:102DA000AF42D1D92A464046FFF71EF9A16929440E
:102DB00004E02A464046FFF717F9E168A268A161DE
:102DC000521BA260002DD2D10B4BDA68019B53B18C
:102DD00061680420C2E900410A6001996260FFF75E
:102DE000CFFE0028A7D0039E0023A6EB0A0083F3A2
:102DF000118805B0BDE8F08F9804002400000000A1
:102E00004FF0FF330C30FFF783BF00BF000000001E
:102E10000C30FFF77DBF00BF000000000000000085
:102E200070B53023044683F311888368CBB90D460F
:102E300029B94FF0FF30002383F3118870BD134E82
:102E4000F36800E0F368626829461C6004205A6059
:102E500013606360FFF794FE0028ECDBA368002B8F
:102E6000F0D0A368A169013B4A1CA3602369A26159
:102E70009A420D7801D3E368A361E3690BB1204660
:102E80009847002383F31188284670BD98040024D6
:102E90004FF0FF310C30FFF7C3BF00BF0000000050
:102EA0000C30FFF7BDBF00BF0000000000000000B5
:102EB0002DE9F04130230446884683F31188836866
:102EC000D3B9164632B94FF0FF30002383F311888F
:102ED000BDE8F081144FFB6800E0FB68656831468F
:102EE0001C6004205D602B606360FFF749FE0028D2
:102EF000EBDBA368002BF0D06269A368511C013B97
:102F00006161A36082F80080D4E904329A4201D35F
:102F1000E3686361E3690BB120469847002080F3C2
:102F20001188BDE8F08100BF980400240000000073
:102F30004FF0FF323030FFF7BBBF00BF0000000092
:102F40003030FFF7B5BF00BF0000000000000000F8
:102F50002DE9F04F85B01646D0F81C804FF03009AF
:102F6000019389F3118882B34646044692464FF096
:102F7000000B88460392A26852452DD2A568D4E979
:102F800004703F1AAF422DD833D23A464146FFF77C
:102F90002BF8EA1B08EB0701E0680292FFF724F820
:102FA000E168029A0A44A168491B6261A1600EB1FE
:102FB0002046B0478BF31188AAEB050AA84489F391
:102FC0001188BAF1000FD6D1039E3046002383F357
:102FD000118805B0BDE8F08FD4E9047055463F1A5A
:102FE000AF42D1D941462A46FEF7FEFF6169294426
:102FF00004E041462A46FEF7F7FFE168A2686161F6
:10300000521BA260002DD2D10B4BDA68019B53B149
:1030100061680420C2E900410A6001996260FFF71B
:10302000AFFD0028A7D0039E0023A6EB0A0083F380
:10303000118805B0BDE8F08F98040024000000005E
:103040004FF0FF333030FFF783BF00BF00000000B8
:103050003030FFF77DBF00BF00000000000000001F
:103060000EB42DE9F04F86B00FAB53F8046B344625
:103070000093029314F8011B002900F01E824FF008
:10308000000A854D0CE02B680AF1010A26468248A9
:10309000DB689847344614F8011B002900F0E180F2
:1030A0002529F0D173782D2B00F0C5804FF0000C4E
:1030B00021782B2900F0BB800027302900F0B38055
:1030C0004FF020082A294DD16178A61C00982E299E
:1030D00050F8043B5CD04FF0000E01F0DF024C2AA8
:1030E00063D13178002900F0BC80A1F1440201369F
:1030F000342A00F2BD80DFE812F0AA01BB00BB0059
:10310000BB00BB00AA01BB00BB00BB00BB00BB00F7
:10311000D801B701BB00BB00BB00BB00DC01BB009A
:10312000BB00B701BB00BB00BB00BB00BB00BB00CA
:10313000BB00BB00BB00BB004001AA01BB00BB0041
:10314000BB00BB00AA01BB00BB00BB00BB00BB00B7
:10315000D801B701BB00BB002201BB00DC01BB00F2
:10316000BB00B701601C00297BD0002305E010F8EC
:10317000011B02EB4403002973D0A1F13002064683
:1031800003EB8304D2B2092AF1D92E290098A2D1E7
:103190003178002965D02A2951D17178023650F84A
:1031A00004EB01F0DF024C2A9BD0A1F14102A1F116
:1031B0004404D2B2342C5BD8DFE814F016015A0074
:1031C0005A005A005A0016015A005A005A005A0072
:1031D0005A006B0147015A005A005A005A00700009
:1031E0005A005A0047015A005A005A005A005A0021
:1031F0005A005A005A005A005A00DF0016015A00BD
:103200005A005A005A0016015A005A005A005A0031
:103210005A006B0147015A005A00C1005A00700061
:103220005A005A0047010134884621784AE76178FC
:103230000127013441E7B41C4FF0010C38E7741C3E
:103240004FF0000EA1F1300226460EEB8E09D2B2ED
:10325000092A3FF642AF14F8011B02EB490E002980
:10326000F0D15346184606B0BDE8F04F03B07047A2
:103270005F1E00908DF80C1027EAE777BCF1000F75
:1032800040F08B80012B624600F3F28003ACDFF844
:1032900008B0674633E000BFD80300240A24011DAC
:1032A00000910DF1170E026871461046B2FBF4F260
:1032B00004FB120909F13007392FC8BF09F137079C
:1032C000A04201F8017DF0D203ACAEEB010722462B
:1032D00011F8010B714502F8010BF9D127443F1B8E
:1032E000DB1B7A1E23EAE377BCF1000F58D1002BD9
:1032F0005BDC002AFFF6CEAE6746DFF8E4B102F1F0
:10330000010901965E469346A1443368284614F8A5
:10331000011BDB6898474C45F7D10AEB0B03019E74
:1033200003F1010A002F3FF4B5AE3C462B6841463D
:103330002846DB689847013CF8D1BA44AAE6024621
:1033400052F8044B0092002C00F0A58047F6FF7263
:10335000BEF1000F08BF96462278002A00F0AF8029
:10336000611E2746714402E017F8012F12B1CA1BF3
:10337000002AF9DA4FF02008B1E702465F1E4FF04D
:10338000200852F8041B27EAE777C9B200928DF8AB
:103390000C10BCF1000F3FF475AF002203AC01E04C
:1033A000002ABFDBDFF838B1A9E7B94621782B291D
:1033B00018BF2D2902D1B8F1300F5CD0DFF820B151
:1033C00001947F425C46B346164623684146444812
:1033D000DB6898470137F8D13246CA445E46A346B7
:1033E000002A019C8BDA55E60446192A54F8041B7E
:1033F00000942DD900292FDB002F53D02B220DF163
:103400000D0703AC8DF80C2007F10B0EDFF8D490FC
:1034100001937046A9FB01230A46DB08092A03EB46
:10342000830B1946A2EB4B0303F1300300F8013D77
:10343000F0DC019B7A1EAEEB000910F8011B8645FB
:1034400002F8011FF9D14F4449E7102427E7041D72
:10345000016800940029CFDA2D2249420DF10D07B1
:1034600003AC8DF80C20CFE7021D1024009218E762
:10347000B94603AC9AE7DFF868B00AF1010A019295
:103480000134DBF800305846DB689847019A013A6E
:1034900096E7082403E7BEF1000F01D147F6FF7E4F
:1034A000114C5DE703AC2746AEE7021D08240092ED
:1034B000F7E6021D0A240092F3E60B46D2E623EA61
:1034C000E377BCF1000F08D1002B7FF7E3ADB946DD
:1034D0004FF020084FF0FF3270E74FF0200821E74F
:1034E000D8030024CDCCCCCCB85500080000000097
:1034F00010B5BFF34F8FBFF36F8F1C480022C0F889
:103500005022BFF34F8FBFF36F8F436943F40033F3
:103510004361BFF34F8FBFF36F8FC0F88420BFF3B9
:103520004F8FD0F8803043F6E074C3F34E3CC3F3C2
:10353000C90E4FEA4C1C0CEA0401734641EA83723F
:10354000013BC0F860225A1CF8D1ACF1200C1CF1F0
:10355000200FF0D1BFF34F8F436943F480334361B1
:10356000BFF34F8FBFF36F8F10BD00BF00ED00E0C2
:10357000704700BF000000000000000000000000D5
:10358000FEE700BF00000000000000000000000097
:1035900070B5294D05F1800455F8102C55E903014B
:1035A00088420DD2043A034652F8046F43F8046B84
:1035B0008B42F9D30139031D091A21F00301C81800
:1035C00055F8043C834207D9013B00211B1A23F024
:1035D00003020432FEF7B6FC1035A542DCD11748D1
:1035E0000023C0F88430BFF34F8FD0F8805043F6EB
:1035F000E076C5F34E34C5F3C905640104EA06015B
:103600002B4641EA8372013BC0F86C225A1CF8D168
:10361000203C14F1200FF1D1BFF34F8FBFF36F8F18
:10362000BFF34F8FBFF36F8F0023C0F85032BFF34B
:103630004F8FBFF36F8F70BD5C58000800ED00E046
:1036400008B51048FFF784F9302383F311880E4B37
:103650005B6813F4006302D183F3118808BDEFF3B4
:1036600009834FF08072203BDA6183F30988074AAF
:103670001168D2688968926891428CBF044A054AF1
:103680009A6108BD3804002400ED00E0980400248D
:10369000E3030008E603000800000000000000004B
:1036A00008B51048FFF754F9302383F311880E4B07
:1036B0005B6813F4006302D183F3118808BDEFF354
:1036C00009834FF08072203BDA6183F30988074A4F
:1036D0001168D2688968926891428CBF044A054A91
:1036E0009A6108BDD803002400ED00E0980400248E
:1036F000E3030008E60300080000000000000000EB
:103700002DE9F0474FF080463369F2681340DAB292
:103710009B076FEA020232610BD4302383F31188D6
:103720004F4B5B6813F4006360D183F31188BDE8ED
:10373000F087302383F311884A4D4FF0000A05F1DA
:1037400010074FF0300809E08AF31188D4E90331FB
:103750002046984788F311886369B3B9EA69716AAA
:103760002C69881AA368984202EB03092AD3D4E98A
:103770000032C5F81C9013605A60C4F800A02B6991
:10378000BB42E1D1C6F80CA0DEE7716A2A69A1EB61
:10379000090083423ED3BA4256D091688B4204D985
:1037A00012685B1A91689942FAD3A360916822600B
:1037B000C91A536863601C604FF0FF33C2E90141CE
:1037C000AB61BEE7BC420DD05B1A286AE9611344C5
:1037D0008342A36038BF0346CA187263726A511AE3
:1037E0008B421FD9002383F3118896E7EFF30983F7
:1037F0004FF08072203BDA6183F30988194A11681F
:10380000D2688968926891428CBF174A174A9A61B8
:10381000BDE8F087EB6BBA4243F00203EB631AD0CA
:103820000346BAE701464FF08043013154185C6308
:103830005C6AA21A8A4210D28842D3D2EB6B296208
:1038400043F00103EB63CDE75B1A03EB090220466B
:10385000FFF75EF9C6E70022F9E72246E5E700BF79
:1038600000ED00E098040024E3030008E6030008EC
:103870001F48C26808B51369D1680B40D9B2DB078D
:103880006FEA0101116107D50378042B22D0436848
:103890005B680BB116489847302383F31188154BAA
:1038A0005B6813F4006302D183F3118808BDEFF362
:1038B00009834FF08072203BDA6183F309880E4A56
:1038C0001168D2688968926891428CBF0B4A0C4A91
:1038D0009A6108BD00230221017013601361D3684F
:1038E00023F0FF03D36043685B68002BD2D1D3E79A
:1038F000C803002400ED00E098040024E30300085E
:10390000E6030008000000000000000000000000C6
:1039100008B5144B14481968426801F00E0159604B
:103920000AB180689047302383F311880F4B5B689E
:1039300013F4006302D183F3118808BDEFF3098308
:103940004FF08072203BDA6183F30988084A1168DE
:10395000D2688968926891428CBF064A064A9A6189
:1039600008BD00BF005402588403002400ED00E0AD
:1039700098040024E3030008E603000800000000A8
:10398000154B16481968C268090901F00E0110B5F7
:103990000C015C600AB100699047302383F3118801
:1039A0000F4B5B6813F4006302D183F3118810BDE1
:1039B000EFF309834FF08072203BDA6183F30988CB
:1039C000084A1168D2688968926891428CBF064A99
:1039D000064A9A6110BD00BF0054025884030024B7
:1039E00000ED00E098040024E3030008E60300086B
:1039F000154B164819684269090A01F00E0110B505
:103A00000C025C600AB180699047302383F311880F
:103A10000F4B5B6813F4006302D183F3118810BD70
:103A2000EFF309834FF08072203BDA6183F309885A
:103A3000084A1168D2688968926891428CBF064A28
:103A4000064A9A6110BD00BF005402588403002446
:103A500000ED00E098040024E3030008E6030008FA
:103A6000154B16481968C269090B01F00E0110B513
:103A70000C035C600AB1006A9047302383F311881D
:103A80000F4B5B6813F4006302D183F3118810BD00
:103A9000EFF309834FF08072203BDA6183F30988EA
:103AA000084A1168D2688968926891428CBF064AB8
:103AB000064A9A6110BD00BF0054025884030024D6
:103AC00000ED00E098040024E3030008E60300088A
:103AD000154B16481968426A090C01F00E0110B521
:103AE0000C045C600AB1806A9047302383F311882C
:103AF0000F4B5B6813F4006302D183F3118810BD90
:103B0000EFF309834FF08072203BDA6183F3098879
:103B1000084A1168D2688968926891428CBF064A47
:103B2000064A9A6110BD00BF005402588403002465
:103B300000ED00E098040024E3030008E603000819
:103B4000154B16481968C26A090D01F00E0110B52F
:103B50000C055C600AB1006B9047302383F3118839
:103B60000F4B5B6813F4006302D183F3118810BD1F
:103B7000EFF309834FF08072203BDA6183F3098809
:103B8000084A1168D2688968926891428CBF064AD7
:103B9000064A9A6110BD00BF0054025884030024F5
:103BA00000ED00E098040024E3030008E6030008A9
:103BB000154B16481968426B090E01F00E0110B53D
:103BC0000C065C600AB1806B9047302383F3118848
:103BD0000F4B5B6813F4006302D183F3118810BDAF
:103BE000EFF309834FF08072203BDA6183F3098899
:103BF000084A1168D2688968926891428CBF064A67
:103C0000064A9A6110BD00BF005402588403002484
:103C100000ED00E098040024E3030008E603000838
:103C2000154B16481968C26B090F01F00E0110B54B
:103C30000C075C600AB1006C9047302383F3118855
:103C40000F4B5B6813F4006302D183F3118810BD3E
:103C5000EFF309834FF08072203BDA6183F3098828
:103C6000084A1168D2688968926891428CBF064AF6
:103C7000064A9A6110BD00BF005402588403002414
:103C800000ED00E098040024E3030008E6030008C8
:103C900008B5144B14481968426801F03D01996059
:103CA0000AB180689047302383F311880F4B5B681B
:103CB00013F4006302D183F3118808BDEFF3098385
:103CC0004FF08072203BDA6183F30988084A11685B
:103CD000D2688968926891428CBF064A064A9A6106
:103CE00008BD00BF000002400003002400ED00E01A
:103CF00098040024E3030008E60300080000000025
:103D0000154B16481968C268890901F03D0110B5C4
:103D10008C019C600AB100699047302383F31188BD
:103D20000F4B5B6813F4006302D183F3118810BD5D
:103D3000EFF309834FF08072203BDA6183F3098847
:103D4000084A1168D2688968926891428CBF064A15
:103D5000064A9A6110BD00BF000002400003002423
:103D600000ED00E098040024E3030008E6030008E7
:103D7000154B164819684269090C01F03D0110B550
:103D80000C049C600AB180699047302383F311884A
:103D90000F4B5B6813F4006302D183F3118810BDED
:103DA000EFF309834FF08072203BDA6183F30988D7
:103DB000084A1168D2688968926891428CBF064AA5
:103DC000064A9A6110BD00BF0000024000030024B3
:103DD00000ED00E098040024E3030008E603000877
:103DE000154B16481968C269890D01F03D0110B5DF
:103DF0008C059C600AB1006A9047302383F31188D8
:103E00000F4B5B6813F4006302D183F3118810BD7C
:103E1000EFF309834FF08072203BDA6183F3098866
:103E2000084A1168D2688968926891428CBF064A34
:103E3000064A9A6110BD00BF000002400003002442
:103E400000ED00E098040024E3030008E603000806
:103E500008B5144B14485968426A01F03D01D96015
:103E60000AB1806A9047302383F311880F4B5B6857
:103E700013F4006302D183F3118808BDEFF30983C3
:103E80004FF08072203BDA6183F30988084A116899
:103E9000D2688968926891428CBF064A064A9A6144
:103EA00008BD00BF000002400003002400ED00E058
:103EB00098040024E3030008E60300080000000063
:103EC000154B16485968C26A890901F03D0110B5C1
:103ED0008C01DC600AB1006B9047302383F31188BA
:103EE0000F4B5B6813F4006302D183F3118810BD9C
:103EF000EFF309834FF08072203BDA6183F3098886
:103F0000084A1168D2688968926891428CBF064A53
:103F1000064A9A6110BD00BF000002400003002461
:103F200000ED00E098040024E3030008E603000825
:103F3000154B16485968426B090C01F03D0110B54C
:103F40000C04DC600AB1806B9047302383F3118846
:103F50000F4B5B6813F4006302D183F3118810BD2B
:103F6000EFF309834FF08072203BDA6183F3098815
:103F7000084A1168D2688968926891428CBF064AE3
:103F8000064A9A6110BD00BF0000024000030024F1
:103F900000ED00E098040024E3030008E6030008B5
:103FA000154B16485968C26B890D01F03D0110B5DB
:103FB0008C05DC600AB1006C9047302383F31188D4
:103FC0000F4B5B6813F4006302D183F3118810BDBB
:103FD000EFF309834FF08072203BDA6183F30988A5
:103FE000084A1168D2688968926891428CBF064A73
:103FF000064A9A6110BD00BF000002400003002481
:1040000000ED00E098040024E3030008E603000844
:1040100008B5144B14481968426C01F03D019960D1
:104020000AB1806C9047302383F311880F4B5B6893
:1040300013F4006302D183F3118808BDEFF3098301
:104040004FF08072203BDA6183F30988084A1168D7
:10405000D2688968926891428CBF064A064A9A6182
:1040600008BD00BF000402400003002400ED00E092
:1040700098040024E3030008E603000800000000A1
:10408000154B16481968C26C890901F03D0110B53D
:104090008C019C600AB1006D9047302383F3118836
:1040A0000F4B5B6813F4006302D183F3118810BDDA
:1040B000EFF309834FF08072203BDA6183F30988C4
:1040C000084A1168D2688968926891428CBF064A92
:1040D000064A9A6110BD00BF00040240000300249C
:1040E00000ED00E098040024E3030008E603000864
:1040F000154B16481968426D090C01F03D0110B5C9
:104100000C049C600AB1806D9047302383F31188C2
:104110000F4B5B6813F4006302D183F3118810BD69
:10412000EFF309834FF08072203BDA6183F3098853
:10413000084A1168D2688968926891428CBF064A21
:10414000064A9A6110BD00BF00040240000300242B
:1041500000ED00E098040024E3030008E6030008F3
:10416000154B16481968C26D890D01F03D0110B557
:104170008C059C600AB1006E9047302383F3118850
:104180000F4B5B6813F4006302D183F3118810BDF9
:10419000EFF309834FF08072203BDA6183F30988E3
:1041A000084A1168D2688968926891428CBF064AB1
:1041B000064A9A6110BD00BF0004024000030024BB
:1041C00000ED00E098040024E3030008E603000883
:1041D00008B5144B14485968426E01F03D01D9608E
:1041E0000AB1806E9047302383F311880F4B5B68D0
:1041F00013F4006302D183F3118808BDEFF3098340
:104200004FF08072203BDA6183F30988084A116815
:10421000D2688968926891428CBF064A064A9A61C0
:1042200008BD00BF000402400003002400ED00E0D0
:1042300098040024E3030008E603000800000000DF
:10424000154B16485968C26E890901F03D0110B539
:104250008C01DC600AB1006F9047302383F3118832
:104260000F4B5B6813F4006302D183F3118810BD18
:10427000EFF309834FF08072203BDA6183F3098802
:10428000084A1168D2688968926891428CBF064AD0
:10429000064A9A6110BD00BF0004024000030024DA
:1042A00000ED00E098040024E3030008E6030008A2
:1042B000154B16485968426F090C01F03D0110B5C5
:1042C0000C04DC600AB1806F9047302383F31188BF
:1042D0000F4B5B6813F4006302D183F3118810BDA8
:1042E000EFF309834FF08072203BDA6183F3098892
:1042F000084A1168D2688968926891428CBF064A60
:10430000064A9A6110BD00BF000402400003002469
:1043100000ED00E098040024E3030008E603000831
:10432000154B16485968C26F890D01F03D0110B553
:104330008C05DC6012B1D0F880009047302383F305
:1043400011880F4B5B6813F4006302D183F311886B
:1043500010BDEFF309834FF08072203BDA6183F3E5
:104360000988084A1168D2688968926891428CBFAE
:10437000054A064A9A6110BD000402400003002469
:1043800000ED00E098040024E3030008E6030008C1
:104390001448C26908B5536911690B4093615B0603
:1043A0000AD4302383F311880F4B5B6813F4006346
:1043B00005D183F3118808BDFEF7AAF9F1E7EFF301
:1043C00009834FF08072203BDA6183F30988074A42
:1043D0001168D2688968926891428CBF044A054A84
:1043E0009A6108BD6402002400ED00E098040024F6
:1043F000E3030008E60300080000000000000000DE
:104400001448C26908B5536911690B4093615B0692
:104410000AD4302383F311880F4B5B6813F40063D5
:1044200005D183F3118808BDFEF772F9F1E7EFF3C8
:1044300009834FF08072203BDA6183F30988074AD1
:104440001168D2688968926891428CBF044A054A13
:104450009A6108BD2802002400ED00E098040024C1
:10446000E3030008E603000800000000000000006D
:10447000A84A0023A8494FF6FF7CD2F888002DE90E
:10448000F04140F2FF74A54F4FF0553E4FF0040845
:104490002043A34EA34DC2F88800D2F888006FF3E2
:1044A0000A00C2F88800D2F88820086C9E4A20438F
:1044B0000864886E20439D4C8866886E9C485360D3
:1044C0009460D0609B48C2F814C010629A489B4C1C
:1044D00050629B4810609B48C2F80434C2F808043C
:1044E00000F1156000F5AA2000F29140C2F80C041A
:1044F0004BF6FE70C2F814044FF43000C2F82034BA
:10450000C2F824049048C2F8000440F60C70C2F8C7
:10451000043802F5006290608C48D0608C48C2F884
:1045200014C0106240F60820536210604FF480609F
:10453000C2F804044FF47020C2F808048548C2F899
:104540000C047720C2F814C4C2F82034C2F8240442
:104550004FF4D010C2F800040C20C2F80438C2F89E
:1045600008087D48C2F80C084FF6FD70C2F8140820
:10457000C2F82038C2F82438C2F8008802F5005288
:104580007B60BB60C7F80CE0C7F814C03B627B627D
:104590003B604FF04C677360B76007F188476F4826
:1045A00007F1551707F5A857F7606D4FC6F814C007
:1045B000336277624FF0086737600F266B60AE603A
:1045C000684EEE60C5F814C02B626B622B606360AE
:1045D000A360C4F80CE0C4F814C0236263622360D3
:1045E00043608360C0F80CE0C0F814C0036243620B
:1045F000036053609360C2F80CE0C2F814C0136209
:104600005362136002F500524B6D43F002034B6599
:10461000CB6F43F00203CB67CB6FC2F80C805368BB
:104620009B04FCD5504801235049002410604FF4EE
:1046300040409360D16014614D4990614D4ACB6216
:1046400093699F04FCD51368324943F48073136067
:104650000B6F03F44073B3F5807F04D04FF48032C6
:1046600000230A670B672B4A136F43F01903136784
:10467000136F9E07FCD51368264943F001031360AE
:104680000B685D07FCD50023224A0B61136913F008
:104690003803FBD101204FF080414FF000541060EF
:1046A000516035483549D4605367D0621161136851
:1046B000184843F4A023136003689C03FCD50368E7
:1046C000144943F4805303600B689804FCD50B68CD
:1046D000104A43F080030B601368D905FCD5516F75
:1046E0000C4B41F0010151675A6F9207FCD5002233
:1046F000234824499862244C5A6324481963244966
:10470000DA639C635A641864D9621968014A41F0FB
:10471000A8513FE0004402580045025800140258D6
:1047200000180258001C0258000002583CC0FFFF4D
:1047300051550040B00B00B00AAA0A0000200258F0
:104740002880AEAAC300003C8100001851505501DA
:10475000B000BB00555540555155555500240258E1
:1047600000B0B0005055555500C000F004000001E5
:1047700000040058004802580000FF01008810089B
:1047800042404000DF0313078F4F07078F0F0707D3
:104790005505FF011960136803F02853B3F1285F32
:1047A000F9D148244FF488614020002394614FF4EC
:1047B0008014D1614FF0005110623420D164194946
:1047C00013655465936508600B6803F00F03042BB1
:1047D000FAD1154A136943F003031361136903F017
:1047E0003803182BFAD1114BDA6B42F00052DA631E
:1047F0005A6E42F000525A665A6EDA6B42F08042AC
:10480000DA635A6E42F080425A665A6EDA6B42F0B0
:104810000042DA635A6E42F000425A665B6EBDE8AF
:10482000F08100BF002000520044025800450258A9
:104830000D4B4FF0000C1868D968026810B40124C1
:1048400053601A600477D8608C680B6981F81CC0CB
:104850001B689A68A242FBD85A6810BCC1E90032B2
:1048600011605960FBF7ACBD980400240000000003
:10487000302370B583F311881A4BD96801F1380CD5
:104880008A6B4863624510D18A7F1AB318680F2279
:104890004FF0010C0A770268536080F81CC01A6060
:1048A000D860BDE87040FBF78BBD4FF0000E146878
:1048B000106996688C6382F81CE000688568B542D0
:1048C000FBD245686445106055602A604260DBD0C9
:1048D0002246ECE7CA6A002AD8D1D1E90920026051
:1048E0005060D3E79804002400000000000000009E
:1048F000EFF30983203383F30988002383F31188BE
:10490000704700BF00000000000000000000000031
:10491000D24B00214FF0FF30D14CD3F88020D14D45
:1049200062F000422DE9804889B0C3F88020D3F8B6
:10493000802002F00042C3F88020D3F88020D3F812
:104940008420C3F88400D3F88420C3F88410D3F8FB
:104950008420DA6F2243DA67DC6FC34A2C40DC67BD
:10496000DC6FD3F888402243C04CC3F88820D3F8CA
:104970008820C2F30A02C3F88820BD4AD3F88850C1
:10498000D3F89050C3F89000D3F89050C3F890102B
:10499000D3F89050D3F89450C3F89400D3F89450BF
:1049A000C3F89410D3F89450D3F89850C3F89800F3
:1049B000D3F89850C3F89810D3F89850D3F88C5087
:1049C000C3F88C00D3F88C50C3F88C10D3F88C50FB
:1049D000D3F89C50C3F89C00D3F89C00C3F89C10FB
:1049E000D3F89C3023462160403450681432016073
:1049F000596043F8081F9C42F7D19E4B4FF0FF349B
:104A000000229D485C609D4C134640F8041B54F8FE
:104A100022100B6040F812300432402AF7D14FF0D8
:104A2000FF3A974897499024C0F808A04FF0C00C6F
:104A3000C0F80CA04FF08060934A4FF0800EDFF872
:104A40004CB20127C2F808A0C2F80CA0702281F86D
:104A50007A43C1F88C01C8604FF0805081F81C2364
:104A6000C1F88001086081F836234FF4800288483D
:104A7000C1F8842180464A600362C362854C864A3D
:104A8000864E874DDFF81C92C0E90433CBE904332E
:104A900081F827C3C1F884E1C1F804E0C64681F873
:104AA00035C34FF4001C8048C1F884C1C1F804C06C
:104AB00008F1180C88F800708BF80070C8E906CC73
:104AC0000BF1180CDFF8E481CBE906CCCEF8288096
:104AD000A446DFF8DCE19046CBF820304CF804EB3C
:104AE000C4F804C002F10C0C5361D66348F804EB1F
:104AF000C2F80480DFF8BCE1CBF82C30CEF80430EB
:104B0000177212658EF800702772C2E903CCDFF8C5
:104B1000A8C1C2F818C0C2E908CC0CF1100CC2F848
:104B20001CC002F1300CC2E90CCC4FF0100CC2E9F1
:104B30001166C2F838C0B444604EC2F840C09665F1
:104B400004F10C06DFF878C1B046E6605D4ECBF8A4
:104B500028C0D6645C4EDFF874C15665574ECEF857
:104B60000CC04FF0100CC2E90A32C4F81080584A49
:104B7000A6656FF05F0663612F70C4F838C0A2614C
:104B800081F823636B6185F820302465C4E908222D
:104B90006244E26104F13002C4E90C224D4AE2634E
:104BA000C4E9112262444FF0080C226405F10C02A2
:104BB000C5E90322484AC5E90133C5E90933C4E917
:104BC0000A34C1F884C1E264444A626502F5604275
:104BD000EA61434AEA6230322A634FF48002C1F844
:104BE00004C041F20A0C077081F856630426C1F82C
:104BF00088218A6000F10C01D9F8482043613A43CA
:104C000080F82070374DC0E90133C0E90933C9F895
:104C10004820D9F870203A43C9F87020D9F870209C
:104C20004FF08042C0E90311E96B3943E9632E4933
:104C30002E4DC16141F21801AB60C0E90BC145F6D0
:104C4000BF5191625146C2F82CA093615363D36067
:104C500053605761176000222F7049E000440258EA
:104C6000FFEFFF7F0010008000F8FFFF84030024A7
:104C70001056000800540258000300244C57000846
:104C80000000024000E100E000040240A002002415
:104C9000D0020024D803002438040024200100247A
:104CA000640200240045025828020024D05600085F
:104CB000F0560008C803002430010024000E270726
:104CC000B056000861250008004800400010004070
:104CD000100100240001002471250008005000404C
:104CE000160001000010005C001400581C02002493
:104CF000039305930023CDE9062302A80291FDF753
:104D000047FCFDF74DFC013E0299F6D1CC4A4FF02D
:104D10003008DFF830C3CC4FA960CC49CC4896604E
:104D200000F114035661D662C661C0F804C0C1E93F
:104D300000C702F11001A7EB0C071161C54987609C
:104D400004271162916302F12401D761516202F1DB
:104D500028015763916202F13C01D16302F14001E5
:104D6000116402F144015164BB4901601421916155
:104D70001C21C2E90022C0E905331163B74BB84AD0
:104D80006B609E631A64C0E9036688F3118862B69B
:104D9000B4494FF6FF0E9E604FF00209DE634FF0FC
:104DA000030AD1F80CC0B0480CEA0E0CAF4A4FF021
:104DB000200E4CEA00004FF0010CC860D1F8FC0056
:104DC00040F08070C1F8FC00A948C2F8B00F10682C
:104DD00040F0010010604FF0E02281F81FE0052054
:104DE0004FF0060E81F82280C2F89C6DC2F8A06DCB
:104DF000C2F8A4CDC2F8A86DC2F8AC9DC2F8B06DDF
:104E0000C2F8B4ADC2F8B86DC2F89C7DC2F8A06D0E
:104E1000C2F8A40DC2F8A86DC2F8ACED4FF0070EB1
:104E2000C2F8B06DC2F8B4ED03F1440EC2F8B86D2B
:104E3000C1F894004A6A42F480324A6203F11002D7
:104E400003F1D001C3E904224FF0FF32C3E9062683
:104E50004FF08042C3F8209083F8B2C0A3F8B0C0EE
:104E6000C3F84CC0C3F8A4305B65C3E93666C3E938
:104E7000236C526AC3E9341103EB080101927D4AA5
:104E800001F18800C3F8BC1080219A651863C3F84B
:104E90009C10C3F8E01003F1CC010198C3F8CC10CA
:104EA00003F19401D96002F58071D96503F17C01A9
:104EB000D9677149C3F8A8107049C3F8AC1070499C
:104EC000C3F8B4103146C3E93066C3E91C66C3E9D0
:104ED0000A0185F8009003EB08016A4D03F1B80060
:104EE000C2F8E0605D6602F1DC05C3F8E4601D65B0
:104EF000654DC3F88860C2F8DC50644D83F862C029
:104F0000C2F8FC5003F180029966D866A3F860608D
:104F1000C3E9202203F16802C3E91133C3F8B820C2
:104F20005A63C3E900EE86F31188594840F2024201
:104F30004FF48051FDF7A4FA00F58060394640F245
:104F40000242FDF79DFA5246A0F540601021FDF7A0
:104F500097FA52462021FDF793FA88F31188237AB5
:104F6000012B09D14B4B9A6C42F480129A641A6F50
:104F700042F480121A671B6FA16D474B626D0B44A0
:104F80004649A1FB03139B0CD360402353600123CC
:104F9000936040F22D1313604FF0FF33136202222F
:104FA00084F85C300023227283F3118808270A25D5
:104FB0003B4CB8463B493C48FEF752F84FF03009AD
:104FC000A4F8188089F311884FF4FA710820FDF7CE
:104FD000D7FD002686F31188678389F311884FF483
:104FE000FA710820FDF7CCFD86F311886B1E13F0D3
:104FF000FF05E3D14FF400632C4ADFF8B0800124B1
:1050000013804FF08A492A4ADFF8A8A0154613807A
:1050100009A7D7E9006720460134FCF7A7FC324610
:105020003B46FCF70DFD0022234BFCF733FEFCF75B
:1050300019FFFBF7DBF941E0182D4454FB2119401F
:1050400064010024800500240000082414020024C8
:105050004001002431260008F125000898040024AE
:105060001857000800ED00E00003FA05001000E00A
:1050700055CEACC50000002400040020000800202C
:10508000C0550008C855000881250008D103000854
:10509000000802580045025820A1070083DE1B4388
:1050A00000000258D0550008D8030024E001002475
:1050B000AC01002400E0FF44000039405146FCF7F9
:1050C000A5F84946FCF75CF9FCF71CFF192C80B2E7
:1050D00028F8020F25F8020F9DD1302383F31188A1
:1050E000374B384C1C611B78012B02D13448FDF73B
:1050F00067F90223324A1370002383F311883023A7
:1051000083F311889BF80030CBF81040012B02D1BB
:105110002D48FDF755F9022300248BF8003084F365
:1051200011882A4AA9252A4B6420916C41F010016C
:105130009164116F41F010011167126F20229D627E
:105140003025D8625A601A6842F001021A6085F36D
:105150001188DFF86C904FF019081E4B03261E4F84
:105160004846C9F80830C9F80C80C9F80470FCF743
:10517000DFFF89F8006084F3118885F31188174BED
:105180001148CBF80470CBE90238FCF7D1FF8BF85B
:10519000006084F3118885F3118842F210710820B1
:1051A000FDF7EEFC002383F311884FF08042234685
:1051B0000B490134526A0B48FDF752FFEBE700BF81
:1051C000D00200243C570008A002002400450258E9
:1051D00000100040E00100242C570008AC0100241E
:0851E000E8550008D803002483
:1051E800000FC93F000F494000CB9640000FC9404F
:1051F8000053FB4000CB164100ED2F41000F494101
:105208000031624100537B41003A8A4100CB96410C
:10521800005CA34100EDAF41007EBC41000FC941D5
:1052280000A0D5410031E24100C2EE410053FB41EC
:1052380000F20342003A0A420083104200CB1642B1
:1052480000141D42005C234200A5294200ED2F42B4
:1052580000363642007E3C4200C74242000F4942B7
:10526800A2000000F9000000830000006E000000AA
:105278004E00000044000000150000002900000056
:10528800FC0000002700000057000000D1000000CB
:10529800F500000034000000DD000000C000000040
:1052A800DB0000006200000095000000990000008B
:1052B8003C00000043000000900000004100000096
:1052C800FE0000005100000063000000AB00000079
:1052D800DE000000BB000000C50000006100000007
:1052E800B7000000240000006E0000003A00000033
:1052F800420000004D000000D2000000E000000065
:1053080006000000490000002E000000EA0000002E
:1053180009000000D1000000920000001C000000FD
:10532800FE0000001D000000EB0000001C00000053
:10533800B100000029000000A70000003E000000A6
:10534800E80000008200000035000000F5000000C1
:105358002E000000BB000000440000008400000094
:10536800E90000009C00000070000000260000001A
:10537800B40000005F0000007E0000004100000053
:105388003900000091000000D6000000390000003C
:10539800830000005300000039000000F400000002
:1053A8009C000000840000005F0000008B000000EB
:1053B800BD000000F9000000280000003B000000CC
:1053C8001F000000F800000097000000FF00000028
:1053D800DE00000005000000980000000F0000003B
:1053E800EF0000002F000000110000008B000000FB
:1053F8005A0000000A0000006D0000001F000000B5
:105408006D000000360000007E000000CF000000A4
:1054180027000000CB00000009000000B7000000D2
:105428004F000000460000003F000000660000003A
:105438009E0000005F000000EA0000002D00000050
:105448007500000027000000BA000000C700000037
:10545800EB000000E5000000F10000007B00000008
:105468003D0000000700000039000000F7000000C0
:105478008A0000005200000092000000EA000000CC
:105488006B000000FB0000005F000000B10000009E
:105498001F0000008D0000005D00000008000000F3
:1054A8005600000003000000300000004600000025
:1054B800FC0000007B0000006B000000AB00000057
:1054C800F0000000CF000000BC0000002000000039
:1054D8009A000000F4000000360000001D000000E3
:1054E800A9000000E3000000910000006100000036
:1054F8005E000000E60000001B000000080000003D
:105508006500000099000000850000005F000000B1
:1055180014000000A0000000680000004000000027
:105528008D000000FF000000D8000000800000008F
:105538004D0000007300000027000000310000004B
:1055480006000000060000001500000056000000DC
:10555800CA00000073000000A8000000C900000095
:1055680060000000E20000007B000000C0000000B6
:105578008C0000006B000000040000000700000021
:10558800090000000000C93F0000F0390000DA37C8
:105598000000A2330000842E0000502B0000C22718
:1055A8000000D0220000C41F0000C61B00004417E2
:1055B800286E756C6C2900006D61696E0000000032
:1055C80069646C65000000007374617274206F6612
:1055D8002070726F6772616D2E2E2E0D0A0000000A
:1055E800557074696D653A20256C75207469636B14
:1055F800732C20636F756E7465723A2025640D0AEA
:10560800000000006330000000540258085402589B
:1056180000000000005802580081000000540258A1
:105628001C5402580400000004580258018200006B
:105638000054025830540258080000000858025814
:105648000283000000540258445402580C00000021
:105658000C58025803840000005402585854025849
:105668001000000010580258048500000054025829
:105678006C540258140000001458025805860000A3
:105688000054025880540258180000001858025854
:105698000687000000540258945402581C00000069
:1056A8001C580258078800000074004003000000DE
:1056B80010000000FFFF0000100000005E0502005F
:1056C8000A000000440000000074004000000000D0
:1056D800000000000000FFFF100000005E0502004F
:1056E8000A000000430000000000000041300008EC
:1056F800012E0008312F0008912E0008412F0008C4
:10570800A12E000851300008112E000821210008A0
:105718000C560008000400200008002000000024A7
:10572800000100240100000000000000000000004B
:1057380001000000FF070000000000000200020056
:10574800000000001000024008000240000802406B
:1057580000000B0028000240080002400408024034
:1057680006010C0040000240080002400808024000
:1057780010020D0058000240080002400C080240C8
:1057880016030E00700002400C0002401008024090
:1057980000040F00880002400C0002401408024078
:1057A80006051000A00002400C0002401808024044
:1057B80010061100B80002400C0002401C0802400C
:1057C80016072F0010040240080402402008024077
:1057D8000008380028040240080402402408024057
:1057E8000609390040040240080402402808024023
:1057F800100A3A0058040240080402402C080240EB
:10580800160B3B00700402400C04024030080240B2
:10581800000C3C00880402400C040240340802409A
:10582800060D4400A00402400C040240380802405F
:10583800100E4500B80402400C0402403C08024027
:10584800160F4600D458000880050024800500245F
:1058580080050024D4580008000000300000003003
:1058680000000030D458000800000030000000306C
:1058780000000030D4580008000004300000043054
:1058880000000430D4580008000000380000003838
:1058980000000038D4580008000800200008002044
:1058A80000080020D4580008000000000000000094
:1058B80000000000D458000800008038000080383C
:0458C8000000803824
:0858CC001CC7FF7F0100000072
:04000005080003B933
:00000001FF
