:020000040800F2
:1000000000040020B9030008BB030008BB0300087C
:10001000BB030008BB030008BB030008BB030008C8
:10002000BB030008BB030008BB03000871450008C0
:10003000BB030008BB030008BB030008BB030008A8
:10004000BB030008BB030008BB030008BB03000898
:10005000BB030008BB030008BB030008BB03000888
:10006000BB030008BB030008BB03000811390008EC
:1000700081390008F1390008613A0008D13A0008D6
:10008000413B0008B13B0008BB030008BB0300086C
:10009000BB030008BB030008BB030008BB03000848
:1000A000BB030008BB030008BB030008BB03000838
:1000B00081330008BB030008BB030008BB03000832
:1000C000BB030008BB030008BB0300081140000885
:1000D000BB030008BB030008BB030008C1320008D3
:1000E000BB030008BB030008BB030008BB030008F8
:1000F000BB030008BB030008BB030008213C000849
:10010000BB030008BB030008BB030008BB030008D7
:10011000BB03000821330008F1340008BB030008CA
:10012000913C0008013D0008713D0008E13D0008D8
:10013000513E0008BB030008BB030008BB030008D6
:10014000BB030008BB030008BB030008BB03000897
:10015000C13E0008313F0008A13F0008BB03000872
:10016000BB030008BB030008BB030008BB03000877
:10017000BB030008BB030008BB030008BB03000867
:10018000BB030008BB030008BB030008BB03000857
:10019000BB030008BB03000881400008BB03000844
:1001A000BB030008BB030008BB030008BB03000837
:1001B000BB030008BB030008BB030008BB03000827
:1001C000BB030008BB030008BB030008BB03000817
:1001D000BB030008BB030008BB030008BB03000807
:1001E000BB030008BB030008BB030008BB030008F7
:1001F000BB030008BB030008BB030008BB030008E7
:10020000BB030008BB030008BB030008BB030008D6
:10021000BB030008BB030008BB030008BB030008C6
:10022000BB030008BB030008BB030008BB030008B6
:10023000BB030008BB030008BB030008BB030008A6
:10024000BB0300089135000801360008713600082C
:10025000E136000851370008C1370008313800087E
:10026000A1380008BB030008BB030008BB0300085B
:10027000BB030008BB030008BB030008BB03000866
:10028000BB030008BB030008BB030008BB03000856
:10029000BB030008BB030008BB030008BB03000846
:1002A000BB030008BB030008BB030008BB03000836
:1002B000BB030008BB030008BB030008BB03000826
:1002C000BB030008BB030008BB030008BB03000816
:1002D000BB030008BB030008BB030008BB03000806
:1002E00072B6264880F30888254880F30988254897
:1002F00025490860022080F31488BFF36F8F02F055
:1003000037FF03F0F5FE4FF0553020491B4A91426C
:100310003CBF41F8040BFAE71D49194A91423CBF22
:1003200041F8040BFAE71B491B4A1C4B9A423EBF9B
:1003300051F8040B42F8040BF8E700201849194A59
:1003400091423CBF41F8040BFAE702F061FF02F072
:100350004FFF154C154DAC4203DA54F8041B884787
:10036000F9E704F015F9124C124DAC4203DA54F8D7
:10037000041B8847F9E702F043BF00000004002097
:10038000000800200000000808ED00E00000002048
:100390000004002064540008000000240000002431
:1003A00000000024E0050024E0020008E00200084C
:1003B000E0020008E002000892E700F000F8FEE723
:1003C0002DE9F04FC1F80CD0D0F80CD0BDE8F08F7B
:1003D000002383F311882846A047002004F088F802
:1003E000FEE704F065F800DFFEE700001A4A20F09F
:1003F000004393421AD900B5B3F1FF4F83B005D340
:10040000014600F0BBFF03B05DF804FB694600F055
:100410009BF800F003000128019912D0022809D0AE
:1004200098B90098012200F019F8ECE700210022A9
:1004300000F014B80098012200F010F800F100401C
:10044000E1E7009800F0DAFDDDE7009800F0D6FD66
:1004500000F10040D7E700BFD80F493F2DE9F8432E
:1004600020F00043B3F1485F04460E46904603D2A5
:1004700001F004F9002858D02146204600F0C6FEBD
:1004800005460146204600F0C1FE2949814628461E
:1004900000F0BCFE274900F071FF294600F0B6FECF
:1004A000254900F06DFF294600F0B0FE234900F019
:1004B00065FF294600F0AAFE214900F061FF0746CA
:1004C000B8F1000F22D04FF07C51304600F09EFE74
:1004D00039468046484600F099FE0146404600F005
:1004E0004DFF294600F092FE314600F047FF1549C6
:1004F0000546484600F08AFE0146284600F040FFC7
:100500000146204600F03AFFBDE8F8830146284640
:1005100000F07CFE0B4900F031FF494600F076FE0A
:10052000214600F02DFFBDE8F8832046BDE8F883A2
:10053000D3C92E2F342FD7321BEF3836010D503947
:100540008988083CABAA2A3E2DE9F04FA64A20F044
:100550000045954289B00C466FD9A44A954206469B
:100560001FD820F000450028A14925F00F0540F3D1
:10057000148100F003FF9F4B9D42064668D09E49C0
:1005800000F0FCFE01460546304600F0F7FE9A49B1
:1005900000F0F4FE256060600127384609B0BDE830
:1005A000F08F964A954263D9B5F1FF4F4AD2EF15C5
:1005B000863FA5EBC755284601F060F800F094FF90
:1005C00001462846059100F0D9FE4FF0874100F022
:1005D0001DFE804601F052F800F086FF05462946D0
:1005E0004046069500F0CAFE4FF0874100F00EFE2F
:1005F0000021079001F010F8002800F0CA800021C7
:10060000284601F009F8002814BF012302237C4A80
:1006100001920222009221463A4605A800F002F912
:10062000002E0746B9DAD4E9002302F1004203F1B3
:100630000043226063604742AFE7002220604A60C7
:100640000027AAE7014600F099FE60602060F7E706
:100650006C4900F093FE6C49064600F08FFE01469F
:100660000546304600F08AFE674900F087FE91E7B4
:1006700000F0D4F86549804600F0C8FD4FF07C5189
:1006800000F07EFE00F0FAFF074600F02DFF58490B
:10069000834600F0BBFD0146404600F06FFE564920
:1006A0008246584600F0B2FD1F2F81460146504653
:1006B00022DC574B7A1E53F8222026F0004323F009
:1006C000FF03934218D000F059FE80464146C4F81B
:1006D0000080504600F052FE494600F04FFE002ECA
:1006E0006060BFF65AAF08F1004800F10040C4F85E
:1006F000008060607F4250E700F040FEC0F3C753C7
:10070000C3EBD553EA15082B80460392DEDD3D4945
:10071000584600F07BFD80460146504600F02EFE14
:1007200005462946504600F029FE414600F026FEC7
:1007300035498046584600F069FD414600F01EFEEE
:1007400001468146284600F019FE039AC0F3C753BC
:10075000D21A192A80461EDD2E49584600F056FD51
:1007600001468046284600F009FE8246514628464A
:1007700000F004FE414600F001FE274905465846B8
:1007800000F044FD294600F0F9FD8146014650463F
:1007900099E703233BE7AA4698E700F0F1FD154BE4
:1007A0009D4206460FD0144900F0EAFD0146054679
:1007B000304600F0E3FD104900F0E2FD2560606086
:1007C0004FF0FF37E9E60F4900F0DAFD0E49064623
:1007D00000F0D6FD01460546304600F0CFFD0A493F
:1007E00000F0CEFDEAE700BFD80F493FE3CB16404B
:1007F000800FC93FD00FC93F43443537800F49436D
:100800002C4E00080044353708A3852E84F9223F7A
:10081000AC4D000800A3852E32318D2420F000401D
:10082000704700BF2DE9F04FDDB09E469346C14BA7
:10083000669A099153F822A01BF1040F0EF1FF33C1
:1008400080460193C0F2B382BBF1030348BF0BF1B2
:100850000403DB1006930133DB000A930A9B069A1C
:10086000ABEB030303930EF1FF331AEB0307A2EB89
:1008700003051ED401372F4420AE3B46DDF89C9182
:10088000CDF800E0374600241E4608E059F8250060
:1008900000F02AFE0135B54247F8040B07D0002DC1
:1008A000F4DA01352046B54247F8040BF7D1DDF8FC
:1008B00000E0A8F10403BAF1000F0293B8BF4FEAB9
:1008C0008E0837DBDDF80490CDF810A020AA4FEA9F
:1008D0008E080AEB0E0102EB8E0248AECDE907E866
:1008E000CDF814B0009103EB8E059246CB46B0468E
:1008F000B9F1000FB8BF00240FDB029E5746002459
:1009000057F8041D56F8040F00F080FC01462046FD
:1009100000F036FDAE420446F2D1009B48F8044B8D
:100920000BF1010B9B450AF1040AE1D1DDE904ABAF
:10093000DDE907E8029BCDF810A003EB08050CAB3E
:1009400003EB8A03043B07930CAB03EB8A03D1460A
:10095000CDF82CB09A46CDF820E05CAB03EB8903D0
:10096000B9F1000F53F850BC4FEA8903009322DD20
:100970000DF5907808EB03060CAF4FF06E5158461A
:1009800000F044FC00F07AFE00F0AEFD4FF087412D
:10099000044600F03BFC0146584600F0EFFC00F036
:1009A0006DFE56F8041D47F8040B204600F0E8FCE5
:1009B00046458346E1D1039E5846314600F0C6FACB
:1009C0004FF07851044600F021FC00F0DBFB4FF0C3
:1009D000824100F01BFC0146204600F0CFFC04469B
:1009E00000F04CFE074600F07FFD0146204600F077
:1009F000C5FC002E804640F3828009F1FF3C0CAA22
:100A0000C6F1080352F82C10C6F1070041FA03F6AC
:100A100006FA03F3C91A41FA00F40CAB002C43F8B0
:100A20002C10374400F312810021404600F0F4FD01
:100A3000002800F0BA80049B99450CDD009B303300
:100A40006B44002153F8042D534541EA0201F9D1CA
:100A5000002940F01681049B0CAA013B52F8233078
:100A6000002B40F00A810799012351F8042D01332E
:100A7000002AFAD04B4409F101060699089ACDF8EC
:100A800014A001EB060808F18048679908F1FF38C7
:100A90004A4401EB8808DDF80090009320A901EB9F
:100AA000820748AA914458F8040F00F01DFD019BED
:100AB00047F8040B002B1ADBDDF808A0BB46002426
:100AC0005BF8041D5AF8040F00F0A0FB0146204615
:100AD00000F056FCAA450446F2D1009B49F8044FA9
:100AE0000136B342DFDADDF814A0994635E7009B02
:100AF00001360024B34249F8044FD4DAF3E740F05A
:100B00008D8009F1FF330CAA52F82340E411002C28
:100B10008ADDB9F1000F07F1010740F3EF810CAB5B
:100B2000002153F8046B002E74D0C6F5807643F88C
:100B3000046C06E0445100081A68C2F1FF0243F851
:100B4000042B01318945F7DC0126039B002B0FDDC7
:100B5000039B012B00F08680022B09D109F1FF31A4
:100B60000CAB0CAA53F8213003F03F0342F82130BC
:100B7000022C7FF459AF41464FF07E5000F0FEFB4F
:100B80008046002E3FF450AF03994FF07E5000F0A6
:100B9000DDF90146404600F0F1FB80460021404669
:100BA00000F03AFD00287FF446AFDDE90A3B4046FD
:100BB000A3EB0B010194DDF810A000F0C7F94FF092
:100BC0008741044600F046FD002800F079814FF08F
:100BD0006E51204600F01AFB00F050FD00F084FC3E
:100BE0004FF08741054600F011FB0146204600F01A
:100BF000C5FB00F043FD0CAB09F1010643F82900E9
:100C0000039B28460833039300F038FD0CAB43F8F0
:100C1000260050E00131894583DC96E74FF07C5196
:100C200000F018FD044600283FF4FEAEB9F1000FB5
:100C300007F10107C8BF02243FF771AF41464FF0EB
:100C40007E5000F09BFB02248046EDE6B9F1000FD8
:100C500007F10107D8BF00263FF761AF039B012BC7
:100C60007FF47AAF09F1FF310CAB0CAA53F82130B5
:100C700003F07F0342F821307AE709F10106334699
:100C8000FBE6039BDDF810A00194A3F1080209F133
:100C9000FF360CAB039253F8263063B909F1804359
:100CA000013B0CA901EB830353F8041D013E083AF4
:100CB0000029F9D0039203994FF07E5000F046F9D5
:100CC000002E8146C0F22481741C0CABA10003EB02
:100CD000840848AB4FF06E5503EB84048B4658F8FC
:100CE000040D00F001FC494600F090FA294644F852
:100CF000040D484600F08AFA0CAB98458146EED1C7
:100D0000ABF1080348AA34AC1344CDE90274B146F0
:100D100059461A464FF0000B0496C8465E462346D5
:100D200005919146BAF1000F71DB874F0093BB46E6
:100D3000002500244F4601E0B4420DDC57F8041FA3
:100D40005BF8040B00F062FA0146284600F018FB3D
:100D50000134A2450546EFDA009B43F8045B08F135
:100D6000FF38B8F1FF3F06F10106A9F10409D9D116
:100D7000669B022BDDE90274DDE9046149DC002B8E
:100D80001ADC0FD134AB5C18002054F8041D00F0BD
:100D9000F7FA34AB9C42F8D1019B002B40F0AB80BA
:100DA000099B186007F007005DB0BDE8F08F0823CD
:100DB0000A930023069351E534AB002503EB0109A8
:100DC000284659F8041D00F0DBFA34AB9945F8D1F8
:100DD00005462946349800F0D1FA019B002B40F0DB
:100DE0008280099B1D605EB1012554F8041F013506
:100DF00000F0C6FAAE42F8DA019B0BB100F10040F8
:100E0000099B586007F007005DB0BDE8F08F002532
:100E1000A3E7669B032BC5D1002E00F0868034AB80
:100E200003EB860A53F82640B500D3465BF8049CD2
:100E30002046494600F0A4FAA0460446214648460A
:100E400000F09CFA414600F09BFACBF800004BF80A
:100E5000044D34AB9B45E9D1012E66D034AB53F839
:100E600026401E1D5AF8049C2046494600F088FA88
:100E7000A04604462146484600F080FA414600F06C
:100E80007FFACAF800004AF8044D5645EAD134AB5F
:100E90002C1D1C4403F10808002054F8041D00F028
:100EA0006FFAA045F9D10199349A359B81B9099916
:100EB0000A604B60886007F007005DB0BDE8F08F06
:100EC000204600F0DBFB0CAB4E4643F82900F2E66F
:100ED000099902F1004203F1004300F100400A6069
:100EE0004B608860E7E7099B05F100451D60002E17
:100EF0007FF47AAF82E700F1004051E7022C7FF4E3
:100F000093AD01464FF07E5000F038FA80468BE5F5
:100F1000669B022B05DC002B09DC7FF443AF00202D
:100F20003AE7669B032B7FF43DAF0020BBE7019BB4
:100F300034981BB9099A0023136061E7099A4FF0AE
:100F4000004313605AE700BF5051000810B50C462B
:100F500030F0004103461DD0B1F1FF4F1BD210F01D
:100F6000FF4F02461BD14FF0984100F04FF9204A45
:100F7000944203462CDBC0F3C75102464CF250307A
:100F80008442A1F1190110DD1A49184661F31E00CF
:100F900000F03CF910BD014600F0F2F910BD4CF232
:100FA000503084424FEAD151EEDC2144FE29EBDC83
:100FB000002911DC11F1160F13DB01F1190022F0E9
:100FC000FF424FF04C5142EAC05000F01FF910BDF3
:100FD000094900F01BF910BD22F0FF4242EAC1505E
:100FE00010BD0549184661F31E0000F00FF910BD51
:100FF000B03CFFFFCAF249716042A20D2DE9F843EF
:1010000020F00046B6F1485F0546884649D200F018
:1010100035FB002800F09D802946284600F0F6F8B0
:101020004E49044600F0F2F84D4900F0A9F9214676
:1010300000F0ECF84B4900F0A1F9214600F0E6F889
:10104000494900F09DF9214600F0E0F8474900F0D9
:1010500095F9214600F0DAF8454900F091F921466A
:1010600000F0D4F807464FF07C51204600F0CEF84F
:1010700039460646204600F0C9F84146044628464F
:1010800000F0C4F80146204600F078F901463046E9
:1010900000F074F901464FF07E5000F06FF9BDE8A2
:1010A000F883014600F0B2F82C49044600F0AEF88F
:1010B0002B4900F065F9214600F0A8F8294900F015
:1010C0005DF9214600F0A2F8274900F059F92146C0
:1010D00000F09CF8254900F051F9214600F096F8FF
:1010E000234900F04DF9214600F090F8214B9E4233
:1010F0000746B8D9204B9E4227D806F17F464FF0CD
:101100007E50314600F03AF981464FF07C5120463E
:1011100000F07CF8314600F031F9394606462046A9
:1011200000F074F841460446284600F06FF8014686
:10113000204600F023F90146304600F01FF9014631
:10114000484600F01BF9BDE8F883DFF830900C4EFC
:10115000DBE74FF07E50BDE8F88300BF4ED747ADC8
:10116000F6740F317CF29334010DD037610BB63A2F
:10117000ABAA2A3D9999993E0000483F0000383FAC
:101180000000903E2DE9F041C0F3C7557F3D162D7C
:10119000044620F0004725DC002D804614DB184F64
:1011A0002F4138421BD0174900F0EAF8002100F027
:1011B0005BFAA0B1002C03DA4FF400032B419844F2
:1011C00028EA0700BDE8F0810E4900F0D9F80021B7
:1011D00000F04AFA18B1002C0CDB002000E0204699
:1011E000BDE8F081B7F1FF4FF9D3014600F0C8F830
:1011F000BDE8F08117B94FF00040F1E70248EFE792
:10120000FFFF7F00CAF24971000080BF4FF0FF0C62
:101210001CEAD0521EBF1CEAD15392EA0C0F93EA8B
:101220000C0F6FD01A4480EA010C400218BF5FEA2D
:1012300041211ED04FF0006343EA501043EA5111A0
:10124000A0FB01310CF00040B1F5000F3EBF49009A
:1012500041EAD3715B0040EA010062F17F02FD2A9E
:101260001DD8B3F1004F40EBC25008BF20F0010081
:10127000704790F0000F0CF0004C08BF49024CEA98
:10128000502040EA51207F3AC2BFD2F1FF0340EA2A
:10129000C250704740F400004FF00003013A5DDC9B
:1012A00012F1190FDCBF00F000407047C2F10002DC
:1012B000410021FA02F1C2F1200200FA02FC5FEAC9
:1012C000310040F1000053EA4C0308BF20EADC7013
:1012D000704792F0000F00F0004C02BF400010F485
:1012E000000F013AF9D040EA0C0093F0000F01F032
:1012F000004C02BF490011F4000F013BF9D041EA54
:101300000C018FE70CEAD15392EA0C0F18BF93EA55
:101310000C0F0AD030F0004C18BF31F0004CD8D17F
:1013200080EA010000F00040704790F0000F17BF06
:1013300090F0004F084691F0000F91F0004F14D04C
:1013400092EA0C0F01D142020FD193EA0C0F03D1A4
:101350004B0218BF084608D180EA010000F00040A7
:1013600040F0FE4040F40000704740F0FE4040F482
:101370004000704780F0004002E000BF81F0004173
:1013800042001FBF5FEA410392EA030F7FEA226C2B
:101390007FEA236C6AD04FEA1262D2EB1363C1BFBB
:1013A000D218414048404140B8BF5B42192B88BF2A
:1013B000704710F0004F40F4000020F07F4018BF4D
:1013C000404211F0004F41F4000121F07F4118BF6D
:1013D000494292EA030F3FD0A2F1010241FA03FC15
:1013E00010EB0C00C3F1200301FA03F100F00043FD
:1013F00002D5494260EB4000B0F5000F13D3B0F1C5
:10140000807F06D340084FEA310102F10102FE2A33
:1014100051D2B1F1004F40EBC25008BF20F00100A3
:1014200040EA03007047490040EB0000013A28BF42
:10143000B0F5000FEDD2B0FA80FCACF1080CB2EBC5
:101440000C0200FA0CF0AABF00EBC2505242184343
:10145000BCBFD0401843704792F0000F81F40001E8
:1014600006BF80F400000132013BB5E74FEA4103BB
:101470007FEA226C18BF7FEA236C21D092EA030F27
:1014800004D092F0000F08BF0846704790EA010FA1
:101490001CBF0020704712F07F4F04D1400028BFCE
:1014A00040F00040704712F100723CBF00F50000B0
:1014B000704700F0004343F0FE4040F400007047E6
:1014C0007FEA226216BF08467FEA23630146420292
:1014D00006BF5FEA412390EA010F40F480007047A5
:1014E0004FF0000304E000BF10F0004348BF40424B
:1014F0005FEA000C08BF704743F0964301464FF087
:1015000000001CE050EA010208BF70474FF00003E2
:101510000AE000BF50EA010208BF704711F0004323
:1015200002D5404261EB41015FEA010C02BF8446F3
:101530000146002043F0B64308BFA3F18053A3F552
:101540000003BCFA8CF2083AA3EBC25310DB01FA99
:1015500002FC634400FA02FCC2F12002BCF1004F1D
:1015600020FA02F243EB020008BF20F001007047AE
:1015700002F1200201FA02FCC2F1200250EA4C0002
:1015800021FA02F243EB020008BF20EADC70704748
:101590004FF0FF3C06E000BF4FF0010C02E000BF3F
:1015A0004FF0010C4DF804CD4FEA40024FEA4103E1
:1015B0007FEA226C18BF7FEA236C11D001B052EA97
:1015C000530C18BF90EA010F58BFB2EB030088BF5D
:1015D000C81738BF6FEAE17018BF40F001007047CC
:1015E0007FEA226C02D15FEA402C05D17FEA236CAE
:1015F000E4D15FEA412CE1D05DF8040B704700BFF5
:10160000844608466146FFE70FB5FFF7C9FF00288B
:1016100048BF10F1000F0FBD4DF808EDFFF7F4FFC4
:101620000CBF012000205DF808FB00BF4DF808ED5D
:10163000FFF7EAFF34BF012000205DF808FB00BF80
:101640004DF808EDFFF7E0FF94BF012000205DF8A2
:1016500008FB00BF4DF808EDFFF7D2FF94BF012053
:1016600000205DF808FB00BF4DF808EDFFF7C8FF4C
:1016700034BF012000205DF808FB00BF4FEA4002A4
:10168000B2F1FE4F0FD34FF09E03B3EB12620DD9B0
:101690004FEA002343F0004310F0004F23FA02F01A
:1016A00018BF404270474FF00000704712F1610FC1
:1016B00001D1420205D110F0004008BF6FF0004098
:1016C00070474FF00000704781F0004102E000BF1A
:1016D00083F0004330B54FEA41044FEA430594EAF2
:1016E000050F08BF90EA020F1FBF54EA000C55EA2D
:1016F000020C7FEA645C7FEA655C00F0E2804FEAFE
:101700005454D4EB5555B8BF6D420CDD2C4480EADF
:10171000020281EA030382EA000083EA010180EA0F
:10172000020281EA0303362D88BF30BD11F0004F5D
:101730004FEA01314FF4801C4CEA113102D0404293
:1017400061EB410113F0004F4FEA03334CEA1333CE
:1017500002D0524263EB430394EA050F00F0A780E6
:10176000A4F10104D5F1200E0DDB02FA0EFC22FAE1
:1017700005F2801841F1000103FA0EF2801843FAD5
:1017800005F359410EE0A5F120050EF1200E012AC6
:1017900003FA0EFC28BF4CF0020C43FA05F3C01804
:1017A00051EBE37101F0004507D54FF0000EDCF17D
:1017B000000C7EEB00006EEB0101B1F5801F1BD326
:1017C000B1F5001F0CD349085FEA30004FEA3C0C2A
:1017D00004F101044FEA445212F5800F80F09A8020
:1017E000BCF1004F08BF5FEA500C50F1000041EB24
:1017F000045141EA050130BD5FEA4C0C404141EB28
:101800000101013C28BFB1F5801FE9D291F0000F22
:1018100004BF01460020B1FA81F308BF2033A3F1D1
:101820000B03B3F120020CDA0C3208DD02F1140CC8
:10183000C2F10C0201FA0CF021FA02F10CE002F103
:101840001402D8BFC2F1200C01FA02F120FA0CFCFC
:10185000DCBF41EA0C019040E41AA2BF01EB045145
:10186000294330BD6FEA04041F3C1CDA0C340EDC43
:1018700004F11404C4F1200220FA04F001FA02F386
:1018800040EA030021FA04F345EA030130BDC4F144
:101890000C04C4F1200220FA02F001FA04F340EA39
:1018A0000300294630BD21FA04F0294630BD94F0EA
:1018B000000F83F4801306BF81F480110134013DD1
:1018C0004EE77FEA645C18BF7FEA655C29D094EA42
:1018D000050F08BF90EA020F05D054EA000C04BFC0
:1018E0001946104630BD91EA030F1EBF00210020AB
:1018F00030BD5FEA545C05D14000494128BF41F04A
:10190000004130BD14F580043CBF01F5801130BDAD
:1019100001F0004545F0FE4141F470014FF0000038
:1019200030BD7FEA645C1ABF194610467FEA655CE9
:101930001CBF0B46024650EA013406BF52EA03358B
:1019400091EA030F41F4002130BD00BF90F0000F79
:1019500004BF0021704730B54FF4806404F13204B5
:101960004FF000054FF0000150E700BF90F0000F6E
:1019700004BF0021704730B54FF4806404F1320495
:1019800010F0004548BF40424FF000013EE700BF65
:1019900042004FEAE2014FEA31014FEA02701FBFF5
:1019A00012F07F4393F07F4F81F06051704732F027
:1019B0007F4208BF704793F07F4F04BF41F400217E
:1019C000704730B54FF4607401F0004521F00041DC
:1019D0001CE700BF50EA010208BF704730B54FF066
:1019E00000050AE050EA010208BF704730B511F067
:1019F000004502D5404261EB41014FF4806404F19F
:101A000032045FEA915C3FF4D8AE4FF003025FEA24
:101A1000DC0C18BF03325FEADC0C18BF033202EBA8
:101A2000DC02C2F1200300FA03FC20FA02F001FA02
:101A300003FE40EA0E0021FA02F11444BDE600BFA5
:101A400070B54FF0FF0C4CF4E06C1CEA11541DBF54
:101A50001CEA135594EA0C0F95EA0C0F00F0DEF81F
:101A60002C4481EA030621EA4C5123EA4C5350EA04
:101A7000013518BF52EA033541F4801143F4801355
:101A800038D0A0FB02CE4FF00005E1FB02E506F0E6
:101A90000042E0FB03E54FF00006E1FB03569CF03B
:101AA000000F18BF4EF0010EA4F1FF04B6F5007F41
:101AB00064F5407404D25FEA4E0E6D4146EB0606B3
:101AC00042EAC62141EA55514FEAC52040EA5E503C
:101AD0004FEACE2EB4F1FD0C88BFBCF5E06F1ED8E6
:101AE000BEF1004F08BF5FEA500E50F1000041EB1D
:101AF000045170BD06F0004646EA010140EA0200CA
:101B000081EA0301B4EB5C04C2BFD4EB0C0541EAEB
:101B1000045170BD41F480114FF0000E013C00F300
:101B2000AB8014F1360FDEBF002001F0004170BD24
:101B3000C4F10004203C35DA0C341BDC04F114043D
:101B4000C4F1200500FA05F320FA04F001FA05F2C9
:101B500040EA020001F0004221F0004110EBD37096
:101B600021FA04F642EB06015EEA430E08BF20EAC2
:101B7000D37070BDC4F10C04C4F1200500FA04F365
:101B800020FA05F001FA04F240EA020001F00041F7
:101B900010EBD37041F100015EEA430E08BF20EA6A
:101BA000D37070BDC4F1200500FA05F24EEA020EB2
:101BB00020FA04F301FA05F243EA020321FA04F0E1
:101BC00001F0004121FA04F220EA020000EBD37098
:101BD0005EEA430E08BF20EAD37070BD94F0000F98
:101BE0000FD101F00046400041EB010111F4801FCC
:101BF00008BF013CF7D041EA060195F0000F18BF7D
:101C0000704703F00046520043EB030313F4801FB8
:101C100008BF013DF7D043EA0603704794EA0C0F72
:101C20000CEA135518BF95EA0C0F0CD050EA410688
:101C300018BF52EA4306D1D181EA030101F0004105
:101C40004FF0000070BD50EA410606BF104619462D
:101C500052EA430619D094EA0C0F02D150EA013639
:101C600013D195EA0C0F05D152EA03361CBF10467A
:101C700019460AD181EA030101F0004141F0FE4119
:101C800041F470014FF0000070BD41F0FE4141F49D
:101C9000780170BD70B54FF0FF0C4CF4E06C1CEA9D
:101CA00011541DBF1CEA135594EA0C0F95EA0C0F52
:101CB00000F0A7F8A4EB050481EA030E52EA03350D
:101CC0004FEA013100F088804FEA03334FF080552E
:101CD00045EA131343EA12634FEA022245EA11155B
:101CE00045EA10654FEA00260EF000419D4208BF0C
:101CF000964244F1FD0404F5407402D25B084FEAB9
:101D00003202B61A65EB03055B084FEA32024FF464
:101D100080104FF4002CB6EB020E75EB030E22BFC1
:101D2000B61A754640EA0C005B084FEA3202B6EB81
:101D3000020E75EB030E22BFB61A754640EA5C0030
:101D40005B084FEA3202B6EB020E75EB030E22BFC0
:101D5000B61A754640EA9C005B084FEA3202B6EBC1
:101D6000020E75EB030E22BFB61A754640EADC0080
:101D700055EA060E18D04FEA051545EA16754FEAE2
:101D800006164FEAC30343EA52734FEAC2025FEA00
:101D90001C1CC0D111F4801F0BD141EA00014FF08F
:101DA00000004FF0004CB6E711F4801F04BF014360
:101DB0000020B4F1FD0C88BFBCF5E06F3FF6AFAE7C
:101DC000B5EB030C04BFB6EB020C5FEA500C50F10C
:101DD000000041EB045170BD0EF0004E4EEA11318F
:101DE00014EB5C04C2BFD4EB0C0541EA045170BD96
:101DF00041F480114FF0000E013C90E645EA060EDA
:101E00008DE60CEA135594EA0C0F08BF95EA0C0F07
:101E10003FF43BAF94EA0C0F0AD150EA01347FF44F
:101E200034AF95EA0C0F7FF425AF104619462CE726
:101E300095EA0C0F06D152EA03353FF4FDAE104689
:101E4000194622E750EA410618BF52EA43067FF4DA
:101E5000C5AE50EA41047FF40DAF52EA43057FF46A
:101E6000EBAE12E74FEA4102B2F1E04324BFB3F513
:101E7000001CDCF1FE5C0DD901F0004C4FEAC00201
:101E80004CEA5070B2F1004F40EB830008BF20F0E5
:101E90000100704711F0804F21D113F13872BCBF9F
:101EA00001F00040704741F480114FEA5252C2F1F4
:101EB0001802C2F1200C10FA0CF320FA02F018BF3D
:101EC00040F001004FEAC1234FEAD32303FA0CFC90
:101ED00040EA0C0023FA02F34FEA4303CCE77FEA1F
:101EE000625307D150EA01331EBF4FF0FE4040F469
:101EF0004000704701F0004040F0FE4040F4000018
:101F0000704700BF42000ED2B2F1FE4F0BD34FF02C
:101F10009E03B3EB126209D44FEA002343F000435F
:101F200023FA02F070474FF00000704712F1610F82
:101F300001D1420202D14FF0FF3070474FF0000054
:101F4000704700BF830730B547D0541E002A3ED0EB
:101F5000CAB2034601E0013C39D303F8012B9D07C7
:101F6000F9D1032C2CD9CDB205EB05250F2C05EBAF
:101F7000054535D9A4F1100222F00F0C03F1100E23
:101F8000E6444FEA121C1A46C2E90055C2E902555E
:101F900010327245F8D10CF1010214F00C0F03EB72
:101FA000021204F00F0C13D0ACF1040323F003036E
:101FB0000433134442F8045B9342FBD10CF0030456
:101FC0002CB1C9B21C4403F8011BA342FBD130BDA4
:101FD00064461346002CF4D1F9E703461446C0E7E3
:101FE0001A46A446E0E700BF844641EA000313F026
:101FF00003036DD1403A41D351F8043B40F8043B10
:1020000051F8043B40F8043B51F8043B40F8043BD2
:1020100051F8043B40F8043B51F8043B40F8043BC2
:1020200051F8043B40F8043B51F8043B40F8043BB2
:1020300051F8043B40F8043B51F8043B40F8043BA2
:1020400051F8043B40F8043B51F8043B40F8043B92
:1020500051F8043B40F8043B51F8043B40F8043B82
:1020600051F8043B40F8043B51F8043B40F8043B72
:1020700051F8043B40F8043B403ABDD2303211D312
:1020800051F8043B40F8043B51F8043B40F8043B52
:1020900051F8043B40F8043B51F8043B40F8043B42
:1020A000103AEDD20C3205D351F8043B40F8043B12
:1020B000043AF9D2043208D0D2071CBF11F8013B10
:1020C00000F8013B01D30B8803806046704700BFD6
:1020D000082A13D38B078DD010F003038AD0C3F1E5
:1020E0000403D21ADB071CBF11F8013B00F8013BC7
:1020F00080D331F8023B20F8023B7BE7043AD9D386
:10210000013A11F8013B00F8013BF9D20B7803705A
:102110004B7843708B7883706046704700000000F6
:10212000012914BF6FF01300002070470000000069
:1021300003691B79012B14D0022B08D083B9806A64
:102140000368C1B90833416843F821207047806AA9
:10215000036821B91033416843F821207047DA61E0
:102160007047806A036821B90C33416843F8212025
:1021700070479A6170475A61704700BF00000000C5
:102180002DE9F04702F00305D4094FF0000C4FF0A1
:102190000108AE4603270F2601F001034908ABB33F
:1021A000D0F804A008FA0CF94FEA4C030CF007022F
:1021B0002AEA0909022D07FA03F34FEA8202C0F85E
:1021C0000490D0F8089029EA0309C0F80890D0F8E4
:1021D0000C9029EA03096FEA0303C0F80C9006FA91
:1021E00002F904FA02F26FEA090914D0D0F800A04B
:1021F000BCF1070F03EA0A0343EA0E0303601DD88C
:10220000036A03EA090313430362A9B14FEA8E0E7E
:102210000CF1010CC0E7BCF1070F15D8D0F820A0D5
:102220000AEA090949EA020202620268134043EA23
:102230000E0303600029E9D1BDE8F087436A03EA91
:10224000090313434362E0E7D0F824A00AEA09092E
:1022500049EA02024262E8E70000000000000000D4
:10226000024A136843F0C0031360704700480040FF
:10227000024A136843F0C0031360704700500040E7
:10228000FEE700BF000000000000000000000000AA
:10229000014B5B6883607047001000E000000000A5
:1022A0000E4A0F4B81685B6810B4946802691B1B6F
:1022B000C4685B1A41690134D218026141F100011E
:1022C000426841619342026888BF43609342C0E91B
:1022D000023438BF036010BC704700BFDC0200242A
:1022E000001000E0000000000000000000000000FE
:1022F000302310B483F311880B4B49425C68201AD9
:1023000008401968821A8A4207D3944205D35A605A
:10231000002383F3118810BC70470020002383F34F
:10232000118810BC704700BFD402002400000000D8
:10233000064B49425A68101A08401968884203D36C
:10234000824201D35860704700207047D4020024B5
:1023500030B500F10B052B468C46B1FBF2F102FBC8
:1023600011C404F1300EBEF1390FC8BF04F1370EAD
:10237000624503F801EDEFD9421EEC1A13F8011B78
:102380009D4202F8011FF9D1204430BD0000000039
:1023900038B53023044683F3118801781C4B01299A
:1023A000036105D002220023227083F3118838BD17
:1023B000184B984221D0184B984213D00021A56A9F
:1023C0002868D5E90252C36B1340C3630123AB40B5
:1023D00005682A4013434FF4006203602046FFF76C
:1023E000A7FEDFE70D4B9A6C42F000529A641A6F19
:1023F00042F000521A671B6FE1E7084B9A6C42F0FB
:1024000000529A641A6F42F000521A671B6FD5E7A8
:10241000CC530008A4020024740200240045025892
:1024200038B5044690F82030806A616A002B54D099
:102430004268136823F00F0313600E23027A0068CA
:1024400003FA02F242604868026822F00F0202605A
:10245000087A0A68834053603E4B9C425AD03E4BF8
:102460009C4267D061680022E36940204D691A6090
:102470005A603A4A18614FF0FF302A40986142F49E
:10248000404288699A604A780AB320F4C020D86034
:1024900040F201108A6818600AB120469047302344
:1024A00083F31188A36873B100211A699868A16049
:1024B00059631977126891688142FBD25168C3E968
:1024C00000210B605360002383F3118838BD244A38
:1024D000024042F00152DA60DAE70268136823F042
:1024E0001F0313601368DD07FCD4027B3D234068A3
:1024F00093400A680360136823F01F031360136896
:10250000DB07FCD4087B3D234A6883401360114BF2
:102510009C42A4D1134BD3F8982042F48052C3F8C4
:102520009820D3F8982022F48052C3F89820D3F84A
:10253000983097E70B4BD3F89C2042F02002C3F869
:102540009C20D3F89C2022F02002C3F89C20D3F8D2
:102550009C3087E724030024E80200241F3EFFFF8D
:10256000FFFFB9DF00440258000000000000000037
:10257000302383F311880B7F0C2B10D8DFE803F096
:10258000290F0F250B070F0B0F0F0F0F0B004A6BB7
:10259000936801339360D1E9003213605A600022DE
:1025A0000B69886810B44FF0FF340A774C631B68DE
:1025B0009A688242FBD25A6800200B604A60116020
:1025C000596080F3118810BC70474B6B00221A6071
:1025D000E5E7002383F31188704700BF0000000087
:1025E0000368984239D0F0B40025DA680A43DA600B
:1025F00059B11A69114208D11B68984215D0DA689E
:102600000A43DA601A691142F6D0D3E90124566C04
:1026100092F81CC03443BCF10A0F546407D0BCF1DB
:102620000B0F15D01B689842DFD1F0BC7047566B7A
:102630003442F7D014699768556315772468A66803
:10264000BE42FBD26668C2E9004632606260E9E7DA
:10265000566B36EA0404E5D1ECE770470000000051
:102660002DE9F041466D0446F5692A07356240F0D0
:10267000B180E80500F1A280AA0646D53027201DCA
:102680004FF0000828E06269591C01322162626142
:102690001D70D4E907329A4201D3A369236204F181
:1026A0000C01E368994212D01D681A69D3F808C07A
:1026B000E5606960C3F8348083F81C801268916813
:1026C0006145FBD25168C3E900210B60536088F378
:1026D0001188F569A90618D587F31188726A94F8EC
:1026E0005C5063691540002B64D0D4E908329342F2
:1026F000C9D16269002AC6D04FF40061FFF770FFAC
:1027000088F31188F569A906E6D437683B0640D5F9
:1027100029063ED54FF0300E002104EB0E0C26E0CA
:10272000A26B5D1C206C0132A5648542A26393F804
:10273000008001D3E36BA364236B9C4510D01A681F
:102740009D6818692263C2F804C05963197700684C
:102750008268AA42FBD24268C3E900021360436068
:10276000C6F8288081F31188F569280611D58EF303
:102770001188D4E911239A42D2D1A26B002ACFD07A
:102780000821201DFFF72CFF27F08007002383F38B
:1027900011887A060BD56B0609D5302383F311888F
:1027A000D4E911239A422BD0002383F31188376098
:1027B000BDE8F0810421FFF713FF96E7302383F390
:1027C00011884FF48061201DFFF70AFF002383F377
:1027D000118851E76901AB074FF0300301F49071A4
:1027E00048BF41F040016F0748BF41F0800183F3CB
:1027F00011880430FFF7F4FE002383F3118838E7D3
:10280000A36B002BD0D01021201D27F04007FFF72D
:10281000E7FEC9E700000000000000000000000023
:10282000184BF0B403F11004D96102250026C0E969
:1028300001421C69046060601C6A18614FF08040AE
:10284000A24238BF22468F1847630661C560456AB9
:10285000A5EB010C624501D9F0BC70472646013654
:1028600031444163426A511BB14208D2B442F3D2AF
:10287000DA6B1E6242F00102F0BCDA63704729464F
:102880001546ECE7F80400240000000000000000FA
:102890002DE9F0414B1C5E4D86B00746EE684AD0EC
:1028A000A8465C4B4FF0804C0A4658F8100FCDE913
:1028B000033640454FF000030593DCF8241000F088
:1028C0009980EB698468CB1AD31828BF13469C42C1
:1028D00040D804D200681B1B84689C42FAD3029340
:1028E0006C4682680090D21A43680193C3F800D006
:1028F0004FF0FF33C0E90142AB612868012237770E
:10290000314603685D6002772B60E860FDF758FD93
:10291000009B63B12A69A2423ED09A68DDE90110AA
:1029200002440B60C3E901124FF0FF33AB61706BDF
:1029300006B0BDE8F0812868012237773146036888
:102940005D600277E8602B60FDF73AFD706B06B0C2
:10295000BDE8F0812C6AA24238BF224601EB020E8C
:10296000CCF834E0DCF824E0AEEB01018A42B6D8C2
:10297000224601320EEB0201CCF83410DCF82410B0
:10298000A1EB0E0E96453ED29442A8D22A62EA6B83
:1029900042F00102EA63A2E7002243452B61009264
:1029A000C3F804802BD09A684FF0804002990A4403
:1029B0009A60EB69416ACC1AA242B8D95B1A2C6AB8
:1029C0001344A34238BF2346CA184263426A511ACD
:1029D0009942ACD32146013153184363436A9A1A92
:1029E0008A4212D28C42A2D2EB6B296243F00103DD
:1029F000EB639CE768466C46FFF712FF7DE74FF0FC
:102A00008043DA6093E78E46B3E71A46E3E700BFF8
:102A1000F8040024712500080000000000000000F8
:102A20002DE9F04F85B01646D0F81C804FF03009E4
:102A3000019389F3118882B34646044692464FF0CB
:102A4000000B88460392A26852452DD2A1692769DE
:102A5000A5687F1AAF422DD833D23A464046FFF7D9
:102A6000C3FAEA1BE16808EB07000292FFF7BCFA21
:102A7000E168029A0A44A168491BA261A1600EB1F3
:102A80002046B0478BF31188AAEB050AA84489F3C6
:102A90001188BAF1000FD6D1039E3046002383F38C
:102AA000118805B0BDE8F08FA169554627697F1AE6
:102AB000AF42D1D92A464046FFF796FAA169294488
:102AC00004E02A464046FFF78FFAE168A268A16158
:102AD000521BA260002DD2D10B4BDA68019B53B17F
:102AE00061680420C2E900410A6001996260FFF751
:102AF000CFFE0028A7D0039E0023A6EB0A0083F395
:102B0000118805B0BDE8F08FF80400240000000033
:102B10004FF0FF330C30FFF783BF00BF0000000011
:102B20000C30FFF77DBF00BF000000000000000078
:102B300070B53023044683F311888368CBB90D4602
:102B400029B94FF0FF30002383F3118870BD134E75
:102B5000F36800E0F368626829461C6004205A604C
:102B600013606360FFF794FE0028ECDBA368002B82
:102B7000F0D0A368A169013B4A1CA3602369A2614C
:102B80009A420D7801D3E368A361E3690BB1204653
:102B90009847002383F31188284670BDF804002469
:102BA0004FF0FF310C30FFF7C3BF00BF0000000043
:102BB0000C30FFF7BDBF00BF0000000000000000A8
:102BC0002DE9F04130230446884683F31188836859
:102BD000D3B9164632B94FF0FF30002383F3118882
:102BE000BDE8F081144FFB6800E0FB686568314682
:102BF0001C6004205D602B606360FFF749FE0028C5
:102C0000EBDBA368002BF0D06269A368511C013B89
:102C10006161A36082F80080D4E904329A4201D352
:102C2000E3686361E3690BB120469847002080F3B5
:102C30001188BDE8F08100BFF80400240000000006
:102C40004FF0FF323030FFF7BBBF00BF0000000085
:102C50003030FFF7B5BF00BF0000000000000000EB
:102C60002DE9F04F85B01646D0F81C804FF03009A2
:102C7000019389F3118882B34646044692464FF089
:102C8000000B88460392A26852452DD2A568D4E96C
:102C900004703F1AAF422DD833D23A464146FFF76F
:102CA000A3F9EA1B08EB0701E0680292FFF79CF921
:102CB000E168029A0A44A168491B6261A1600EB1F1
:102CC0002046B0478BF31188AAEB050AA84489F384
:102CD0001188BAF1000FD6D1039E3046002383F34A
:102CE000118805B0BDE8F08FD4E9047055463F1A4D
:102CF000AF42D1D941462A46FFF776F961692944A6
:102D000004E041462A46FFF76FF9E168A268616175
:102D1000521BA260002DD2D10B4BDA68019B53B13C
:102D200061680420C2E900410A6001996260FFF70E
:102D3000AFFD0028A7D0039E0023A6EB0A0083F373
:102D4000118805B0BDE8F08FF804002400000000F1
:102D50004FF0FF333030FFF783BF00BF00000000AB
:102D60003030FFF77DBF00BF000000000000000012
:102D70000EB42DE9F04F86B0DFF82C924FF000082A
:102D8000044610AB732109F1FF35009302930CE068
:102D9000236808F101084D462046DB689847A9469C
:102DA00019F8011B002900F0E1802529F0D16B788A
:102DB0002D2B00F0C180002799F800202B2A00F06D
:102DC000B5800020302A00F0AB8020262A2A50D17E
:102DD000DDF800C009F1020599F801205CF804ABA8
:102DE0002E2A00F0AD80002102F0DF034C2B58D1D9
:102DF0002A78002A00F0BA80A2F144030135342B6E
:102E000000F2BA80DFE813F06B01B800B800B80038
:102E1000B8006B01B800B800B800B800B8009C0159
:102E20007101B800B800B800B8009701B800B80048
:102E30007101B800B800B800B800B800B800B80018
:102E4000B800B800B80029016B01B800B800B8009C
:102E5000B8006B01B800B800B800B800B8009C0119
:102E60007101B800B8000B01B8009701B800B800B4
:102E7000710109F10109002A78D04FF0000A05E03C
:102E800019F8012B03EB410A002A6FD0A2F130039D
:102E90004D460AEB8A01DBB2092BF1D9DDF800C0FF
:102EA0009EE7A2F141035FFA83FEA2F14403342BB3
:102EB00062D8DFE813F0FD0061006100610061008D
:102EC000FD00610061006100610061002A011201E2
:102ED00061006100610061007B006100610012011E
:102EE00061006100610061006100610061006100DA
:102EF00061006100D200FD006100610061006100BD
:102F0000FD00610061006100610061002A011201A1
:102F100061006100B40061007B006100610012018A
:102F200009F10109164699F800204FE799F80120A8
:102F3000012009F1010945E705F1020901273BE7F5
:102F40002A789AB12A2A2AD005F1010E0021A2F18D
:102F50003003754601EB8109DBB2092B3FF644AF24
:102F60001EF8012B03EB4901002AF0D1404606B0C0
:102F7000BDE8F04F03B07047CDF800C00AF1FF394B
:102F80008DF80C2029EAE979002F40F08C80BAF105
:102F9000010FBA466CDC0DF10C0BB94623E06A78E0
:102FA00002355CF8041B1FE77D5100080A220CF172
:102FB000040300930DF10C0BDCF800105846FFF7EA
:102FC000C7F9A0EB0B02AAEB0203019223EAE37913
:102FD000002F48D1002B02F1FF3A4DDC019B002B62
:102FE0007FF7DDAEB9460AF101075F44236820464A
:102FF0001BF8011BDB6898475F45F7D1C2440AF113
:103000000108B9F1000F3FF4CAAE4F4623683146BC
:103010002046DB689847013FF8D1C844BFE66346C5
:1030200053F804BB0093BBF1000F79D047F6FF7350
:10303000002908BF19469BF80030002B00F085805E
:103040000BF1FF3258460A4402E010F8013F13B179
:10305000131A002BF9DA2026B3E76346202613F86B
:10306000042B00938AE7019BB3F1010ABBD5C8E7A3
:1030700001230DF10C0B01939BF800102B2918BFB5
:103080002D2901D1302E35D0C9F1000723683146F2
:103090002046DB6898470137F8D1019BC844B3F15B
:1030A000010A9FD57BE64FF0000A0DF10C0B9AE761
:1030B0006346BEF1190F53F8041B009311D9002980
:1030C00025DBA0B32B230DF10D000DF10C0B8DF8BA
:1030D0000C300A22FFF73CF973E7102267E70CF186
:1030E0000403DCF800100093E9E70CF1040310225C
:1030F00000935FE72368204608F101080BF1010BFC
:10310000DB689847CDF804A0BEE708224FE72D23DF
:1031100049420DF10D000DF10C0B8DF80C30D8E784
:10312000DFF840B0002986D147F6FF7188E70DF13E
:103130000C0B5846CDE70CF104030A22009339E743
:103140000CF104030822009334E72AEAEA7937B93C
:10315000BAF1000F7FF723AE2026019794E72026CF
:103160004FE700BF9451000800000000000000007D
:1031700010B5BFF34F8FBFF36F8F1C480022C0F80C
:103180005022BFF34F8FBFF36F8F436943F4003377
:103190004361BFF34F8FBFF36F8FC0F88420BFF33D
:1031A0004F8FD0F8803043F6E074C3F34E3CC3F346
:1031B000C90E4FEA4C1C0CEA0401734641EA8372C3
:1031C000013BC0F860225A1CF8D1ACF1200C1CF174
:1031D000200FF0D1BFF34F8F436943F48033436135
:1031E000BFF34F8FBFF36F8F10BD00BF00ED00E046
:1031F000704700BF00000000000000000000000059
:10320000FEE700BF0000000000000000000000001A
:1032100070B5294D05F1800455F8102C55E90301CE
:1032200088420DD2043A034652F8046F43F8046B07
:103230008B42F9D30139031D091A21F00301C81883
:1032400055F8043C834207D9013B00211B1A23F0A7
:1032500003020432FEF776FE1035A542DCD1174892
:103260000023C0F88430BFF34F8FD0F8805043F66E
:10327000E076C5F34E34C5F3C905640104EA0601DE
:103280002B4641EA8372013BC0F86C225A1CF8D1EC
:10329000203C14F1200FF1D1BFF34F8FBFF36F8F9C
:1032A000BFF34F8FBFF36F8F0023C0F85032BFF3CF
:1032B0004F8FBFF36F8F70BDEC53000800ED00E03F
:1032C00008B51048FFF7CCF9302383F311880E4B73
:1032D0005B6813F4006302D183F3118808BDEFF338
:1032E00009834FF08072203BDA6183F30988074A33
:1032F0001168D2688968926891428CBF044A054A75
:103300009A6108BD9804002400ED00E0F804002450
:10331000E3030008E60300080000000000000000CE
:1033200008B51048FFF79CF9302383F311880E4B42
:103330005B6813F4006302D183F3118808BDEFF3D7
:1033400009834FF08072203BDA6183F30988074AD2
:103350001168D2688968926891428CBF044A054A14
:103360009A6108BD3804002400ED00E0F804002450
:10337000E3030008E603000800000000000000006E
:103380002DE9F0474FF080463369F2681340DAB216
:103390009B076FEA020232610BD4302383F311885A
:1033A0004F4B5B6813F4006360D183F31188BDE871
:1033B000F087302383F311884A4D4FF0000A05F15E
:1033C00010074FF0300809E08AF31188D4E903317F
:1033D0002046984788F311886369B3B9EA69716A2E
:1033E0002C69881AA368984202EB03092AD3D4E90E
:1033F0000032C5F81C9013605A60C4F800A02B6915
:10340000BB42E1D1C6F80CA0DEE7716A2A69A1EBE4
:10341000090083423ED3BA4256D091688B4204D908
:1034200012685B1A91689942FAD3A360916822608E
:10343000C91A536863601C604FF0FF33C2E9014151
:10344000AB61BEE7BC420DD05B1A286AE961134448
:103450008342A36038BF0346CA187263726A511A66
:103460008B421FD9002383F3118896E7EFF309837A
:103470004FF08072203BDA6183F30988194A1168A2
:10348000D2688968926891428CBF174A174A9A613C
:10349000BDE8F087EB6BBA4243F00203EB631AD04E
:1034A0000346BAE701464FF08043013154185C638C
:1034B0005C6AA21A8A4210D28842D3D2EB6B29628C
:1034C00043F00103EB63CDE75B1A03EB09022046EF
:1034D000FFF7A6F9C6E70022F9E72246E5E700BFB5
:1034E00000ED00E0F8040024E3030008E603000810
:1034F0001F48C26808B51369D1680B40D9B2DB0711
:103500006FEA0101116107D50378042B22D04368CB
:103510005B680BB116489847302383F31188154B2D
:103520005B6813F4006302D183F3118808BDEFF3E5
:1035300009834FF08072203BDA6183F309880E4AD9
:103540001168D2688968926891428CBF0B4A0C4A14
:103550009A6108BD00230221017013601361D368D2
:1035600023F0FF03D36043685B68002BD2D1D3E71D
:103570002804002400ED00E0F8040024E303000820
:10358000E60300080000000000000000000000004A
:1035900008B5144B14481968426801F00E015960CF
:1035A0000AB180689047302383F311880F4B5B6822
:1035B00013F4006302D183F3118808BDEFF309838C
:1035C0004FF08072203BDA6183F30988084A116862
:1035D000D2688968926891428CBF064A064A9A610D
:1035E00008BD00BF00540258E403002400ED00E0D1
:1035F000F8040024E3030008E603000800000000CC
:10360000154B16481968C268090901F00E0110B57A
:103610000C015C600AB100699047302383F3118884
:103620000F4B5B6813F4006302D183F3118810BD64
:10363000EFF309834FF08072203BDA6183F309884E
:10364000084A1168D2688968926891428CBF064A1C
:10365000064A9A6110BD00BF00540258E4030024DA
:1036600000ED00E0F8040024E3030008E60300088E
:10367000154B164819684269090A01F00E0110B588
:103680000C025C600AB180699047302383F3118893
:103690000F4B5B6813F4006302D183F3118810BDF4
:1036A000EFF309834FF08072203BDA6183F30988DE
:1036B000084A1168D2688968926891428CBF064AAC
:1036C000064A9A6110BD00BF00540258E40300246A
:1036D00000ED00E0F8040024E3030008E60300081E
:1036E000154B16481968C269090B01F00E0110B597
:1036F0000C035C600AB1006A9047302383F31188A1
:103700000F4B5B6813F4006302D183F3118810BD83
:10371000EFF309834FF08072203BDA6183F309886D
:10372000084A1168D2688968926891428CBF064A3B
:10373000064A9A6110BD00BF00540258E4030024F9
:1037400000ED00E0F8040024E3030008E6030008AD
:10375000154B16481968426A090C01F00E0110B5A4
:103760000C045C600AB1806A9047302383F31188AF
:103770000F4B5B6813F4006302D183F3118810BD13
:10378000EFF309834FF08072203BDA6183F30988FD
:10379000084A1168D2688968926891428CBF064ACB
:1037A000064A9A6110BD00BF00540258E403002489
:1037B00000ED00E0F8040024E3030008E60300083D
:1037C000154B16481968C26A090D01F00E0110B5B3
:1037D0000C055C600AB1006B9047302383F31188BD
:1037E0000F4B5B6813F4006302D183F3118810BDA3
:1037F000EFF309834FF08072203BDA6183F309888D
:10380000084A1168D2688968926891428CBF064A5A
:10381000064A9A6110BD00BF00540258E403002418
:1038200000ED00E0F8040024E3030008E6030008CC
:10383000154B16481968426B090E01F00E0110B5C0
:103840000C065C600AB1806B9047302383F31188CB
:103850000F4B5B6813F4006302D183F3118810BD32
:10386000EFF309834FF08072203BDA6183F309881C
:10387000084A1168D2688968926891428CBF064AEA
:10388000064A9A6110BD00BF00540258E4030024A8
:1038900000ED00E0F8040024E3030008E60300085C
:1038A000154B16481968C26B090F01F00E0110B5CF
:1038B0000C075C600AB1006C9047302383F31188D9
:1038C0000F4B5B6813F4006302D183F3118810BDC2
:1038D000EFF309834FF08072203BDA6183F30988AC
:1038E000084A1168D2688968926891428CBF064A7A
:1038F000064A9A6110BD00BF00540258E403002438
:1039000000ED00E0F8040024E3030008E6030008EB
:1039100008B5144B14481968426801F03D019960DC
:103920000AB180689047302383F311880F4B5B689E
:1039300013F4006302D183F3118808BDEFF3098308
:103940004FF08072203BDA6183F30988084A1168DE
:10395000D2688968926891428CBF064A064A9A6189
:1039600008BD00BF000002406003002400ED00E03D
:10397000F8040024E3030008E60300080000000048
:10398000154B16481968C268890901F03D0110B548
:103990008C019C600AB100699047302383F3118841
:1039A0000F4B5B6813F4006302D183F3118810BDE1
:1039B000EFF309834FF08072203BDA6183F30988CB
:1039C000084A1168D2688968926891428CBF064A99
:1039D000064A9A6110BD00BF000002406003002447
:1039E00000ED00E0F8040024E3030008E60300080B
:1039F000154B164819684269090C01F03D0110B5D4
:103A00000C049C600AB180699047302383F31188CD
:103A10000F4B5B6813F4006302D183F3118810BD70
:103A2000EFF309834FF08072203BDA6183F309885A
:103A3000084A1168D2688968926891428CBF064A28
:103A4000064A9A6110BD00BF0000024060030024D6
:103A500000ED00E0F8040024E3030008E60300089A
:103A6000154B16481968C269890D01F03D0110B562
:103A70008C059C600AB1006A9047302383F311885B
:103A80000F4B5B6813F4006302D183F3118810BD00
:103A9000EFF309834FF08072203BDA6183F30988EA
:103AA000084A1168D2688968926891428CBF064AB8
:103AB000064A9A6110BD00BF000002406003002466
:103AC00000ED00E0F8040024E3030008E60300082A
:103AD00008B5144B14485968426A01F03D01D96099
:103AE0000AB1806A9047302383F311880F4B5B68DB
:103AF00013F4006302D183F3118808BDEFF3098347
:103B00004FF08072203BDA6183F30988084A11681C
:103B1000D2688968926891428CBF064A064A9A61C7
:103B200008BD00BF000002406003002400ED00E07B
:103B3000F8040024E3030008E60300080000000086
:103B4000154B16485968C26A890901F03D0110B544
:103B50008C01DC600AB1006B9047302383F311883D
:103B60000F4B5B6813F4006302D183F3118810BD1F
:103B7000EFF309834FF08072203BDA6183F3098809
:103B8000084A1168D2688968926891428CBF064AD7
:103B9000064A9A6110BD00BF000002406003002485
:103BA00000ED00E0F8040024E3030008E603000849
:103BB000154B16485968426B090C01F03D0110B5D0
:103BC0000C04DC600AB1806B9047302383F31188CA
:103BD0000F4B5B6813F4006302D183F3118810BDAF
:103BE000EFF309834FF08072203BDA6183F3098899
:103BF000084A1168D2688968926891428CBF064A67
:103C0000064A9A6110BD00BF000002406003002414
:103C100000ED00E0F8040024E3030008E6030008D8
:103C2000154B16485968C26B890D01F03D0110B55E
:103C30008C05DC600AB1006C9047302383F3118857
:103C40000F4B5B6813F4006302D183F3118810BD3E
:103C5000EFF309834FF08072203BDA6183F3098828
:103C6000084A1168D2688968926891428CBF064AF6
:103C7000064A9A6110BD00BF0000024060030024A4
:103C800000ED00E0F8040024E3030008E603000868
:103C900008B5144B14481968426C01F03D01996055
:103CA0000AB1806C9047302383F311880F4B5B6817
:103CB00013F4006302D183F3118808BDEFF3098385
:103CC0004FF08072203BDA6183F30988084A11685B
:103CD000D2688968926891428CBF064A064A9A6106
:103CE00008BD00BF000402406003002400ED00E0B6
:103CF000F8040024E3030008E603000800000000C5
:103D0000154B16481968C26C890901F03D0110B5C0
:103D10008C019C600AB1006D9047302383F31188B9
:103D20000F4B5B6813F4006302D183F3118810BD5D
:103D3000EFF309834FF08072203BDA6183F3098847
:103D4000084A1168D2688968926891428CBF064A15
:103D5000064A9A6110BD00BF0004024060030024BF
:103D600000ED00E0F8040024E3030008E603000887
:103D7000154B16481968426D090C01F03D0110B54C
:103D80000C049C600AB1806D9047302383F3118846
:103D90000F4B5B6813F4006302D183F3118810BDED
:103DA000EFF309834FF08072203BDA6183F30988D7
:103DB000084A1168D2688968926891428CBF064AA5
:103DC000064A9A6110BD00BF00040240600300244F
:103DD00000ED00E0F8040024E3030008E603000817
:103DE000154B16481968C26D890D01F03D0110B5DB
:103DF0008C059C600AB1006E9047302383F31188D4
:103E00000F4B5B6813F4006302D183F3118810BD7C
:103E1000EFF309834FF08072203BDA6183F3098866
:103E2000084A1168D2688968926891428CBF064A34
:103E3000064A9A6110BD00BF0004024060030024DE
:103E400000ED00E0F8040024E3030008E6030008A6
:103E500008B5144B14485968426E01F03D01D96011
:103E60000AB1806E9047302383F311880F4B5B6853
:103E700013F4006302D183F3118808BDEFF30983C3
:103E80004FF08072203BDA6183F30988084A116899
:103E9000D2688968926891428CBF064A064A9A6144
:103EA00008BD00BF000402406003002400ED00E0F4
:103EB000F8040024E3030008E60300080000000003
:103EC000154B16485968C26E890901F03D0110B5BD
:103ED0008C01DC600AB1006F9047302383F31188B6
:103EE0000F4B5B6813F4006302D183F3118810BD9C
:103EF000EFF309834FF08072203BDA6183F3098886
:103F0000084A1168D2688968926891428CBF064A53
:103F1000064A9A6110BD00BF0004024060030024FD
:103F200000ED00E0F8040024E3030008E6030008C5
:103F3000154B16485968426F090C01F03D0110B548
:103F40000C04DC600AB1806F9047302383F3118842
:103F50000F4B5B6813F4006302D183F3118810BD2B
:103F6000EFF309834FF08072203BDA6183F3098815
:103F7000084A1168D2688968926891428CBF064AE3
:103F8000064A9A6110BD00BF00040240600300248D
:103F900000ED00E0F8040024E3030008E603000855
:103FA000154B16485968C26F890D01F03D0110B5D7
:103FB0008C05DC6012B1D0F880009047302383F389
:103FC00011880F4B5B6813F4006302D183F31188EF
:103FD00010BDEFF309834FF08072203BDA6183F369
:103FE0000988084A1168D2688968926891428CBF32
:103FF000054A064A9A6110BD00040240600300248D
:1040000000ED00E0F8040024E3030008E6030008E4
:104010001448C26908B5536911690B4093615B0686
:104020000AD4302383F311880F4B5B6813F40063C9
:1040300005D183F3118808BDFEF7F2F9F1E7EFF33C
:1040400009834FF08072203BDA6183F30988074AC5
:104050001168D2688968926891428CBF044A054A07
:104060009A6108BD2403002400ED00E0F804002458
:10407000E3030008E6030008000000000000000061
:104080001448C26908B5536911690B4093615B0616
:104090000AD4302383F311880F4B5B6813F4006359
:1040A00005D183F3118808BDFEF7BAF9F1E7EFF304
:1040B00009834FF08072203BDA6183F30988074A55
:1040C0001168D2688968926891428CBF044A054A97
:1040D0009A6108BDE802002400ED00E0F804002425
:1040E000E3030008E60300080000000000000000F1
:1040F000A84A0023A8494FF6FF7CD2F888002DE992
:10410000F04140F2FF74A54F4FF0553E4FF00408C8
:104110002043A34EA34DC2F88800D2F888006FF365
:104120000A00C2F88800D2F88820086C9E4A204312
:104130000864886E20439D4C8866886E9C48536056
:104140009460D0609B48C2F814C010629A489B4C9F
:1041500050629B4810609B48C2F80434C2F80804BF
:1041600000F1156000F5AA2000F29140C2F80C049D
:104170004BF6FE70C2F814044FF43000C2F820343D
:10418000C2F824049048C2F8000440F60C70C2F84B
:10419000043802F5006290608C48D0608C48C2F808
:1041A00014C0106240F60820536210604FF4806023
:1041B000C2F804044FF47020C2F808048548C2F81D
:1041C0000C047720C2F814C4C2F82034C2F82404C6
:1041D0004FF4D010C2F800040C20C2F80438C2F822
:1041E00008087D48C2F80C084FF6FD70C2F81408A4
:1041F000C2F82038C2F82438C2F8008802F500520C
:104200007B60BB60C7F80CE0C7F814C03B627B6200
:104210003B604FF04C677360B76007F188476F48A9
:1042200007F1551707F5A857F7606D4FC6F814C08A
:10423000336277624FF0086737600F266B60AE60BD
:10424000684EEE60C5F814C02B626B622B60636031
:10425000A360C4F80CE0C4F814C023626362236056
:1042600043608360C0F80CE0C0F814C0036243628E
:10427000036053609360C2F80CE0C2F814C013628C
:104280005362136002F500524B6D43F002034B651D
:10429000CB6F43F00203CB67CB6FC2F80C8053683F
:1042A0009B04FCD5504801235049002410604FF472
:1042B00040409360D16014614D4990614D4ACB629A
:1042C00093699F04FCD51368324943F480731360EB
:1042D0000B6F03F44073B3F5807F04D04FF480324A
:1042E00000230A670B672B4A136F43F01903136708
:1042F000136F9E07FCD51368264943F00103136032
:104300000B685D07FCD50023224A0B61136913F08B
:104310003803FBD101204FF080414FF00054106072
:10432000516035483549D4605367D06211611368D4
:10433000184843F4A023136003689C03FCD503686A
:10434000144943F4805303600B689804FCD50B6850
:10435000104A43F080030B601368D905FCD5516FF8
:104360000C4B41F0010151675A6F9207FCD50022B6
:10437000234824499862244C5A63244819632449E9
:10438000DA639C635A641864D9621968014A41F07F
:10439000A8513FE00044025800450258001402585A
:1043A00000180258001C0258000002583CC0FFFFD1
:1043B00051550040B00B00B00AAA0A000020025874
:1043C0002880AEAAC300003C81000018515055015E
:1043D000B000BB0055554055515555550024025865
:1043E00000B0B0005055555500C000F00400000169
:1043F00000040058004802580000FF01008810081F
:1044000042404000DF0313078F4F07078F0F070756
:104410005505FF011960136803F02853B3F1285FB5
:10442000F9D148244FF488614020002394614FF46F
:104430008014D1614FF0005110623420D1641949C9
:1044400013655465936508600B6803F00F03042B34
:10445000FAD1154A136943F003031361136903F09A
:104460003803182BFAD1114BDA6B42F00052DA63A1
:104470005A6E42F000525A665A6EDA6B42F080422F
:10448000DA635A6E42F080425A665A6EDA6B42F034
:104490000042DA635A6E42F000425A665B6EBDE833
:1044A000F08100BF0020005200440258004502582D
:1044B0000D4B4FF0000C1868D968026810B4012445
:1044C00053601A600477D8608C680B6981F81CC04F
:1044D0001B689A68A242FBD85A6810BCC1E9003236
:1044E00011605960FBF76CBFF80400240000000065
:1044F000302370B583F311881A4BD96801F1380C59
:104500008A6B4863624510D18A7F1AB318680F22FC
:104510004FF0010C0A770268536080F81CC01A60E3
:10452000D860BDE87040FBF74BBF4FF0000E146839
:10453000106996688C6382F81CE000688568B54253
:10454000FBD245686445106055602A604260DBD04C
:104550002246ECE7CA6A002AD8D1D1E909200260D4
:104560005060D3E7F80400240000000000000000C1
:10457000EFF30983203383F30988002383F3118841
:10458000704700BF000000000000000000000000B5
:10459000D14B00214FF0FF30D04CD3F88020D04DCC
:1045A00062F000422DE9804889B0C3F88020D3F83A
:1045B000802002F00042C3F88020D3F88020D3F896
:1045C0008420C3F88400D3F88420C3F88410D3F87F
:1045D0008420DA6F2243DA67DC6FC24A2C40DC6742
:1045E000DC6FD3F888402243BF4CC3F88820D3F84F
:1045F0008820C2F30A02C3F88820BC4AD3F8885046
:10460000D3F89050C3F89000D3F89050C3F89010AE
:10461000D3F89050D3F89450C3F89400D3F8945042
:10462000C3F89410D3F89450D3F89850C3F8980076
:10463000D3F89850C3F89810D3F89850D3F88C500A
:10464000C3F88C00D3F88C50C3F88C10D3F88C507E
:10465000D3F89C50C3F89C00D3F89C00C3F89C107E
:10466000D3F89C30234621604034506814320160F6
:10467000596043F8081F9C42F7D19D4B4FF0FF341F
:1046800000229C485C609C4C134640F8041B54F884
:1046900022100B6040F812300432402AF7D14FF05C
:1046A000FF3B9648964A9024C0F808B04FF0C008E7
:1046B000C0F80CB04FF0806092494FF08009924EE4
:1046C0004FF0010EC1F808B0C1F80CB0702182F8AB
:1046D0007A43C2F88C01D0604FF0805082F81C13EE
:1046E0008A4DC2F8800110604FF4800082F83613C2
:1046F000C2F8840150603362F362DFF814C2854C63
:10470000854F86488649DFF81CA2C6E90433C5E90F
:10471000043382F82783C2F88491C2F80490E146FA
:1047200082F835834FF40018C2F88481C2F80480FF
:1047300006F11808B76286F800E085F800E0C6E9DF
:10474000068805F11808784EC5E90688A0462B6250
:1047500049F8046B48F8046B0CF10C06CCF8049093
:104760004FF01009C4F80480EB62DFF8C081CCF888
:1047700014308CF808E0CCF83890CCF850C088F8A9
:1047800000E0C8F8043084F808E0CCE90366684E1D
:10479000CCF81860CCE908661036CCF81C600CF137
:1047A0003006CCE90C66634ECCF83C60CCE911666F
:1047B0004E44CCF84060604ECCF8586004F10C06D2
:1047C0003746E6605D4EAE625D4D5B4EC8F80C50FC
:1047D0005C4DCCF84C505C4DCCE90A3CCCF85450C4
:1047E0004FF0080C276141F20A07A6656FF05F06DB
:1047F000564D636180F800E0A561C4F8389082F8F6
:104800002363436180F820302465C4E908554D4492
:10481000E56104F13005C4E90C554D4DE563C4E98B
:1048200011554D44256400F10C05C0E90355494D6F
:10483000C0E90133C0E90933C4E90A34C2F884C1CC
:10484000E564454D656505F56045C561434DC56247
:10485000303505634FF48000C2F804C081F800E0F1
:1048600082F85663C2F8880190604FF08040DAF811
:1048700048204B6142EA0E0281F820E0384D394E63
:10488000C1E90133C1E90933CAF84820DAF87020D8
:1048900042EA0E02CAF87020DAF8702001F10C0228
:1048A000C1E90322EA6B42EA0E02EA6304252E4ABA
:1048B000B360CA6141F21802C1E90B7245F6BF52FA
:1048C000002182625A46C0F82CB083614363C36002
:1048D0004360C0F814E049E000440258FFEFFF7F56
:1048E0000010008000F8FFFFE4030024B05100082E
:1048F0000054025860030024505200080000024097
:1049000000E100E000040240A4020024740200243C
:104910009804002438040024705300082403002461
:10492000E80200240045025890530008280400249F
:104930003001002420010024000E270750530008F6
:1049400000100040612200080048004010010024CF
:1049500000010024712200080050004016000100F0
:104960000010005CDC02002400140058C0F800E0D5
:10497000002086F800E003930593CDE9060102A824
:104980000292FDF785FCFDF78BFC013D029AF6D102
:10499000CD4F4FF03008CD48CD4BB260CD4A0760C7
:1049A000436002F11000CC49DB1B1061CB488B60E7
:1049B00001F114031062906302F124004F60042798
:1049C000506202F12800CD61906202F13C009560D6
:1049D000D06302F140005561106402F14400D562D9
:1049E0005064BF48D76108605763C1E90533C1E926
:1049F00003551421BB4B91611C21736011639D63AE
:104A0000C2E90022B84A1A6488F3118862B6B7492D
:104A10004FF6FF0E9D604FF02009DD6303EB080A9F
:104A2000D1F80CC003F1440BB1480CEA0E0CB14AAA
:104A30004FF0020E4CEA00004FF0010CC860D1F8B4
:104A4000FC0040F08070C1F8FC00AB48C2F8B00F29
:104A5000106840F0010010604FF0E02281F81F90D4
:104A60004FF0030981F822800520C2F89C5DC2F84E
:104A7000A05DC2F8A4CDC2F8A85DC2F8ACEDC2F842
:104A8000B05DC2F8B49D4FF00609C2F8B85DC2F837
:104A90009C7DC2F8A05DC2F8A40DC2F8A85DC2F862
:104AA000AC9D4FF00709C2F8B05DC2F8B49D03F1A8
:104AB000B809C2F8B85DC1F894004A6A42F480327D
:104AC0004A6203F1100203F1D001C3E904224FF05E
:104AD000FF32C3E906254FF08042C3F820E083F897
:104AE000B2C0A3F8B0C0C3F84CC0C3F8A4305B6533
:104AF000C3E93655C3E9235C526AC3F8BCA00192EE
:104B00007E4A01989A65C3F83090C3E93411802138
:104B1000C3F89C10C3F8E01003F1CC01C3F8CC102B
:104B200003F19401D96002F58071D96503F17C012C
:104B3000D9677349C3F8A8107249C3F8AC10724919
:104B4000C3F8B4102946C3E93055C3E91C55C3E97D
:104B50000A016E49C2F8E050596602F1DC01C3F85F
:104B6000E45019656A49C3F88850C2F8DC106949F5
:104B700086F800E0C2F8FC1003F1800283F862C0FE
:104B8000A3F86050C3E9202203F16802C3E91AA91F
:104B9000C3F8B8205A63C3E91133C3E900BB85F3F6
:104BA00011885D4840F202424FF48051FDF7E8FA67
:104BB00040F20242394600F58060FDF7E1FA88F3E1
:104BC0001188237A012B09D1544B9A6C42F480123C
:104BD0009A641A6F42F480121A671B6FA26D402606
:104BE0004F4B01254F481344616D4FF0FF32A0FB3E
:104BF00003039B0CCB6040F22D134E608D600B6065
:104C000002230A622372002384F85C2083F3118854
:104C100045494FF0080845480A24FEF7A9F84448DA
:104C20002A460821FDF7ACFAC146032210210746A7
:104C3000FDF7A6FA03222021FDF7A2FA3026A7F8F5
:104C4000189086F311884FF4FA710820FDF720FEC2
:104C5000002585F31188A7F81A8086F311884FF490
:104C6000FA710820FDF714FE85F31188631E13F016
:104C7000FF04E3D1DFF8BC804FF400630124DFF8C8
:104C8000B8A045464FF08A49A8F800300CA7D7E9EC
:104C9000006720460134FCF769FE32463B46FCF7CC
:104CA000CFFE0022254BFCF7F5FFFDF7DBF8FBF705
:104CB0009DFB5146FCF7AAFA4946FCF761FB3FE031
:104CC000182D4454FB211940E0050024D40200248F
:104CD000000008246401002440010024312300085E
:104CE000F1220008F8040024B853000800ED00E0A9
:104CF0000003FA05001000E055CEACC5000000240A
:104D000000040020000800209C510008A451000865
:104D100081220008D103000800080258004502580B
:104D200020A1070083DE1B437C51000838040024C7
:104D300000000258AC01002400E0FF44000059408C
:104D4000FDF7E0F8642C25F8020FA2D100241448E6
:104D5000144EFDF71DFB25461348FDF719FB38F8E7
:104D6000142000210E48FDF7E3F900210E48FDF75D
:104D7000DFF9631C0295642186FB0320DC17029A8D
:104D8000C4EB6014B2F57A7F01FB1434E7D200BFA4
:104D9000029B01330293029BB3F57A7FF7D3DEE7E0
:0C4DA000A40200241F85EB5174020024C3
:104DAC00000FC93F000F494000CB9640000FC9408F
:104DBC000053FB4000CB164100ED2F41000F494141
:104DCC000031624100537B41003A8A4100CB96414D
:104DDC00005CA34100EDAF41007EBC41000FC94116
:104DEC0000A0D5410031E24100C2EE410053FB412D
:104DFC0000F20342003A0A420083104200CB1642F2
:104E0C0000141D42005C234200A5294200ED2F42F4
:104E1C0000363642007E3C4200C74242000F4942F7
:104E2C00A2000000F9000000830000006E000000EA
:104E3C004E00000044000000150000002900000096
:104E4C00FC0000002700000057000000D10000000B
:104E5C00F500000034000000DD000000C000000080
:104E6C00DB000000620000009500000099000000CB
:104E7C003C000000430000009000000041000000D6
:104E8C00FE0000005100000063000000AB000000B9
:104E9C00DE000000BB000000C50000006100000047
:104EAC00B7000000240000006E0000003A00000073
:104EBC00420000004D000000D2000000E0000000A5
:104ECC0006000000490000002E000000EA0000006F
:104EDC0009000000D1000000920000001C0000003E
:104EEC00FE0000001D000000EB0000001C00000094
:104EFC00B100000029000000A70000003E000000E7
:104F0C00E80000008200000035000000F500000001
:104F1C002E000000BB0000004400000084000000D4
:104F2C00E90000009C00000070000000260000005A
:104F3C00B40000005F0000007E0000004100000093
:104F4C003900000091000000D6000000390000007C
:104F5C00830000005300000039000000F400000042
:104F6C009C000000840000005F0000008B0000002B
:104F7C00BD000000F9000000280000003B0000000C
:104F8C001F000000F800000097000000FF00000068
:104F9C00DE00000005000000980000000F0000007B
:104FAC00EF0000002F000000110000008B0000003B
:104FBC005A0000000A0000006D0000001F000000F5
:104FCC006D000000360000007E000000CF000000E5
:104FDC0027000000CB00000009000000B700000013
:104FEC004F000000460000003F000000660000007B
:104FFC009E0000005F000000EA0000002D00000091
:10500C007500000027000000BA000000C700000077
:10501C00EB000000E5000000F10000007B00000048
:10502C003D0000000700000039000000F700000000
:10503C008A0000005200000092000000EA0000000C
:10504C006B000000FB0000005F000000B1000000DE
:10505C001F0000008D0000005D0000000800000033
:10506C005600000003000000300000004600000065
:10507C00FC0000007B0000006B000000AB00000097
:10508C00F0000000CF000000BC0000002000000079
:10509C009A000000F4000000360000001D00000023
:1050AC00A9000000E3000000910000006100000076
:1050BC005E000000E60000001B000000080000007D
:1050CC006500000099000000850000005F000000F2
:1050DC0014000000A0000000680000004000000068
:1050EC008D000000FF000000D800000080000000D0
:1050FC004D0000007300000027000000310000008C
:10510C00060000000600000015000000560000001C
:10511C00CA00000073000000A8000000C9000000D5
:10512C0060000000E20000007B000000C0000000F6
:10513C008C0000006B000000040000000700000061
:10514C00090000000000C93F0000F0390000DA3708
:10515C000000A2330000842E0000502B0000C22758
:10516C000000D0220000C41F0000C61B0000441722
:10517C007374617274206F662070726F6772616DE8
:10518C002E2E2E0D0A000000286E756C6C29000066
:10519C006D61696E0000000069646C6500000000C0
:1051AC0063300000005402580854025800000000FC
:1051BC000058025800810000005402581C54025838
:1051CC0004000000045802580182000000540258E8
:1051DC00305402580800000008580258028300009E
:1051EC0000540258445402580C0000000C58025849
:1051FC000384000000540258585402581000000058
:10520C001058025804850000005402586C5402587F
:10521C00140000001458025805860000005402586F
:10522C0080540258180000001858025806870000D5
:10523C0000540258945402581C0000001C58025888
:10524C0007880000100002400800024000080240DD
:10525C0000000B0028000240080002400408024035
:10526C0006010C0040000240080002400808024001
:10527C0010020D0058000240080002400C080240C9
:10528C0016030E00700002400C0002401008024091
:10529C0000040F00880002400C0002401408024079
:1052AC0006051000A00002400C0002401808024045
:1052BC0010061100B80002400C0002401C0802400D
:1052CC0016072F0010040240080402402008024078
:1052DC000008380028040240080402402408024058
:1052EC000609390040040240080402402808024024
:1052FC00100A3A0058040240080402402C080240EC
:10530C00160B3B00700402400C04024030080240B3
:10531C00000C3C00880402400C040240340802409B
:10532C00060D4400A00402400C0402403808024060
:10533C00100E4500B80402400C0402403C08024028
:10534C00160F46000074004003000000100000001F
:10535C00FFFF0000100000005E0502000A000000C4
:10536C004400000000740040000000000000000039
:10537C000000FFFF100000005E0502000A000000A4
:10538C004300000000000000512D0008112B000804
:10539C00412C0008A12B0008512C0008B12B00084F
:1053AC00612D0008212B000821210008AC510008B8
:1053BC00000400200008002000000024000100244C
:1053CC0000080000000000000000000000000000C9
:1053DC0064540008E0050024E0050024E0050024E6
:1053EC006454000800000030000000300000003061
:1053FC006454000800000030000000300000003051
:10540C006454000800000430000004300000043034
:10541C006454000800000038000000380000003818
:10542C006454000800080020000800200008002038
:10543C0064540008000000000000000000000000A0
:10544C006454000800008038000080380000803868
:08545C008CCBFF7F0100000072
:04000005080003B933
:00000001FF
